:100F5500C293D292D291D290E580540F7E00D29363
:100F6500C292D291D290C4F8540FC868FFEEC4540F
:100F7500F048FEE580540FFDEF4DD293D292C29119
:100F8500D290C4F8540FC868FFEEC454F048FEE58B
:100F950080540FFDEF4DD293D292D291C290C4F8F6
:100FA500540FC868FFEEC454F048FEE580540FFDA9
:100FB500EF4DF4FFEEF4FEEF8EF0120D6C106F00A6
:100FC500011068000210610004105A000810530057
:100FD50010104C002010450040103E0080103701D5
:100FE50000103002001029040010220800101B1008
:100FF5000010142000100D400010068000000010A5
:1010050076783D740DF2806D783D7409F2806678CE
:101015003D7405F2805F783D7401F28058783D7427
:101025000EF28051783D740AF2804A783D7406F2DA
:101035008043783D7402F2803C783D740FF2803530
:10104500783D740BF2802E783D7407F28027783D49
:101055007403F28020783D7410F28019783D740C89
:10106500F28012783D7408F2800B783D7404F280AA
:0910750004E4783DF2783DE2FF4D
:01107E00224F
:10082E000000000000000000002F00000000070084
:10083E00070000147F147F1400242A7F2A120062FE
:10084E0064081323003649552250000005030000AA
:10085E0000001C224100000041221C000014083E32
:10086E0008140008083E0808000000A060000008F8
:10087E00080808080000606000000020100804024C
:10088E00003E5149453E0000427F4000004261510A
:10089E004946002141454B31001814127F100027A4
:1008AE0045454539003C4A49493000017109050367
:1008BE0000364949493600064949291E0000363698
:1008CE0000000000563600000008142241000014FB
:1008DE0014141414000041221408000201510906D8
:1008EE0000324959513E007C1211127C007F494959
:1008FE004936003E41414122007F4141221C007F8A
:10090E0049494941007F09090901003E4149497A97
:10091E00007F0808087F0000417F41000020404111
:10092E003F01007F08142241007F40404040007F7D
:10093E00020C027F007F0408107F003E4141413EC1
:10094E00007F09090906003E4151215E007F091909
:10095E0029460046494949310001017F0101003F06
:10096E004040403F001F2040201F003F4038403F86
:10097E0000631408146300070870080700615149EA
:10098E00454300007F41410000552A552A5500007D
:10099E0041417F00000402010204004040404040FB
:1009AE00000001020400002054545478007F484493
:1009BE00443800384444442000384444487F0038CA
:1009CE005454541800087E0901020018A4A4A47CF3
:1009DE00007F080404780000447D400000408084BD
:1009EE007D00007F102844000000417F4000007C05
:1009FE0004180478007C0804047800384444443811
:100A0E0000FC242424180018242418FC007C08045C
:100A1E00040800485454542000043F444020003C35
:100A2E004040207C001C2040201C003C4030403CBC
:100A3E00004428102844001CA0A0A07C004464544C
:080A4E004C4414141414141498
:0C190C007522027523EFD523FDD522FAC9
:0119180022AC
:1018C100EF1FAC0670011E4C600512190C80F1224D
:10184900783DEFF27006FD7FA612167A783DE2B474
:0A1859000107E4FD7FA712167A22B2
:10172F00783DEFF2700DFD7FC812167AE4FD7FA1B0
:10173F0012167A783DE2B4010EE4FD7FC012167ADC
:08174F00E4FD7FA012167A22CE
:08192F007F01AE071FEE70FA04
:01193700228D
:0F18D100D2A0D2A112192FC2A012192FC2A12288
:0A192500C2A0D2A112192FD2A022F5
:0F18E000D2A012192FD2A112192FC2A102192FB3
:0217A500AD078E
:1017A700E4FCC2A1ED30E704D2A08002C2A0121966
:1017B7002FD2A112192FC2A1ED25E0FD0CECB40820
:0117C700E140
:0117C80022FE
:0D166D0012167AE4FDFF12167AE4FD7F10DC
:10167A00AB05AA071218D17F781217A51218E0EB4A
:10168A0060047F408002E4FF1217A51218E0AF023F
:09169A001217A51218E00219252F
:1017C900A907ED24B0FFE4FD12167AE954F0C454D8
:1017D9000F4410FFE4FD12167AE9540FFFE4FD02ED
:0217E900167A6E
:10000E00E4FD7F8D12167AE4FD7F1412167AE4FD5C
:05001E007FAF02167A1D
:0E18FE00E4FD7F8D121673E4FD7FAE02167AB4
:10175700E4F9E924B0FFE4FD12166DE4783DF27D6B
:1017670001E4FF12167A783DE204F2E2C394804066
:06177700EE09E9B408DCF4
:01177D002249
:071164007844EFF208EDF200
:10116B00E47848F218E2FFC313FD7849F2E408F281
:10117B0008F2EFB4080908E4F2087406F2802F783D
:10118B0047E2FF131313541FF582758300EF5407C7
:10119B007E0060047F0180027F00EF2582FFEE3529
:1011AB0083FE7C00120CA0784CEEF208EFF2EB24DD
:1011BB00E07848F27844E2FF08E2FD1217C9E478C0
:1011CB004AF208F2784CE2FC08E2FD784AE2FE08AB
:1011DB00E2FFC39DEE9C505D7849E2FD7C00120C52
:1011EB00B2ED4C70137847E26408600C7844E2FF70
:1011FB0008E2FD04F21217C97847E2B40837784ABF
:10120B00E2FE08E2FF7848E275F006A4242EF58290
:10121B00E5F03408F583E5822FF582E5833EF5830F
:10122B00E493FF7D0112167A784BE22401F218E267
:05123B003400F2808F79
:01124000228B
:10144D00783DEFF208EDF208EBF208EAF208E9F266
:10145D00E47843F2783FE2FB08E2FA08E2F97843D8
:10146D00E2F582758300120C616042783DE2FF085F
:10147D00E2FD08E2FB08E2FA08E2F97843E2FE0435
:10148D00F28E82758300120C61FB7842E27847F28E
:10149D001211647842E2FFB40808783DE22406F2A6
:0D14AD0080B2EFC313FF783DE22FF280A75D
:0114BA00220F
:10124100C2927FC87E001218C1D292E4FD7FAE1215
:10125100166DE4FD7F4012167AE4FD7F8112167A45
:10126100E4FD7FCF12167AE4FD7FA112167AE4FD28
:101271007FC812167AE4FD7FA612167AE4FD7FA8D4
:1012810012167AE4FD7F3F12167AE4FD7FD312161F
:101291007AE4FDFF12167AE4FD7FD512167AE4FD99
:1012A1007F8012167AE4FD7FD912167AE4FD7FF170
:1012B10012167AE4FD7FDA12167AE4FD7F12121615
:1012C1007AE4FD7FDB12167AE4FD7F4012167AE4A0
:1012D100FD7F2012167AE4FD7F0212167AE4FD7F6B
:1012E1008D12167AE4FD7F1412167AE4FD7FA412A2
:1012F100167AE4FD7FA612167A121757E4FD7FAF26
:0313010002167A57
:04186300D2A77F0584
:10186700000000000000000000000000000000AEC3
:06187700071FEE70EB22DA
:0F18EF00D2A6121863C2A67F05121867C2A722DD
:0C191900C2A6121863D2A67F0502186750
:0216D600AD075E
:1016D800E4FCC2A77F05121867ED30E704D2A680A4
:1016E80002C2A67F05121867D2A7ED25E0FD7F0587
:0A16F8001218670CECB408DAC2A760
:0117020022C4
:10182B00E4FC121863ED25E0FD30A6034401FDC274
:0D183B00A77F051218670CECB408E7AF0595
:01184800227D
:10170300EBF208EAF208E9F2AB051218EF7FA01238
:0A17130016D612171DAF031216D6EA
:10171D00121863A2A6E433FDC2A77F05121867AFA6
:01172D0005B6
:01172E002298
:10189600C2A7EF24FF92A67F05121867121863C22B
:0818A600A7D2A67F0502186716
:1016A30078001217037804E2FF14F2EF6022780047
:1016B300E2FB0808E2F92401F218E2FA3400F2121C
:1016C3000C48FF1216D612171D7FC812186780D553
:0316D300021919E0
:1015A70078051217031218EF7FA11216D612171D0E
:1015B7007809E2FF14F2EF602812182B7805E2FB96
:1015C7000808E2F92401F218E2FA3400F2EF120CEB
:1015D7008E7809E26004E4FF80027F01121896808A
:0415E700CF021919FD
:10187D0053877F75985053890F438920758BFD755C
:09188D008DFDC2ABD28ED2AC225B
:080003008F993099FDC299228A
:1018AE005389F0438901758A66758CFCC28DD28C82
:0318BE00D2A9228A
:100026004D6F64653A207573657200656E7465720E
:1000360020796F75722050494E3A002020202020EA
:100046002564202025642020256420202564006462
:100056006F6F7220636C6F7365006368616E6765AE
:100066003A2075736572006368616E676520796F03
:1000760075722050494E3A0025642564256425642E
:100086002D256425642564256400646F6F72206FD6
:1000960070656E20004D6F64653A20757365722039
:1000A60020004D6F64653A206D617374657200635C
:1000B60068616E67653A2075736572202000636813
:1000C600616E67653A206D617374657200000305A1
:1000D6000911FF118905C300E000F000F8000000D7
:1000E600000000004428FF11AA44000000000000A0
:1000F60000000000000000000000000000000000FA
:1001060000000000000000000000000000000000E9
:1001160000000000000000000000000000000000D9
:1001260000000000000000830138448292927401AE
:1001360083000000000000007C44FF017D7D7D01FE
:100146007D7D7D7D017D7D7D7D7D01FF0000000043
:100156000000010001000100010001000100000093
:100166000000000000000101000000000000000087
:100176000000000000000000000000000000000079
:100186000000000000000000000000000000000069
:100196000000000000000000000000000000000059
:1001A6000000000000000001010000000000000146
:1001B6000100000000000000000001010101010132
:1001C600010101010101010101010101000000001D
:1001D6000000000000000000000000000000000019
:1001E6000000000000000000003F3F0303F313116E
:1001F600111111111101F1116181010101816111C9
:10020600F1010101014141F10101010101C1211188
:1002160011111121C1010101014141F10101010148
:100226000101010101011111111111D33303033F22
:100236003F00000000000000000000000000000079
:1002460000000000000000000000000000000000A8
:100256000000000000000000000000000000000098
:10026600000000000000000000E0E000007F010147
:100276000101010100007F000001061806010000CF
:100286007F0000000040407F40400000001F2040EB
:10029600404040201F0000000040407F40400000DA
:1002A6000000600000000040300C0300000000E089
:1002B600E000000000000000000000000000000058
:1002C6000000000000000000000000000000000028
:1002D6000000000000000000000000000000000018
:1002E60000000000000000000007070606060604DE
:1002F6000404844444448404048444444484040438
:100306000484C404040404844444448404040404A7
:100316000484444444840404040404844444448417
:1003260004048444444484040404040606060607BC
:1003360007000000000000000000000000000000B0
:1003460000000000000000000000000000000000A7
:100356000000000000000000000000000000000097
:100366000000000000000000000000000000000087
:100376000000101814121100000F1010100F0000CA
:1003860000101F10000000081012120D00001800C7
:10039600000D1212120D0000180000101814121190
:1003A60000001018141211000000000000000000E8
:1003B6000000000000000000000000000000000037
:1003C6000000000000000000000000000000000027
:1003D6000000000000000000000000000000000017
:1003E6000000000000000000000000000000000007
:1003F60000000000000000000000000000000000F7
:100406000000000000000000008080808080808066
:100416008000000000000000000000000000000056
:1004260000000000000000000000000000000000C6
:1004360000000000000000000000000000000000B6
:1004460000000000000000000000000000007F0324
:100456000C300C037F00003854545800007C040410
:100466007800003C40407C000000000000000000D6
:100476000000000000000000000000000000000076
:10048600000000000000000000FFAAAAAA28080039
:10049600FF00000000000000000000000000000057
:1004A6000000000000000000000000000000000046
:1004B6000000000000007F030C300C037F000026C4
:0D04C6004949493200007F020408107F0000
:1015EB000F08FF193E0064FF0A56000AFF0DDE03C9
:1015FB00E88217000088350000000000000000881A
:10160B000D0001000200030004882D0004000300FC
:10161B00020001810C00C10DC109C10AC10EC10B31
:02162B00C10CF0
:1017EB0012180B121241E4FF121849E4FF12172FC3
:1017FB0012107F1218AE12187DD2AF12151180FB8A
:10107F00784074FFF2087400F2087426F27BFE7A4F
:10108F0000791912052F7BFE7A00791978427408BE
:10109F00F2E4FDFF12144D784074FFF2087400F271
:1010AF00087431F27BFE7A00791912052F7BFE7AD4
:1010BF0000791978427408F27D02E4FF12144DE4AE
:1010CF007835F208F208F208F208F208F208F2088E
:1010DF00F2784074FFF2087400F2087441F2783528
:1010EF00E2FF08E27843CFF208EFF27837E2FF0829
:1010FF00E27845CFF208EFF27839E2FF08E278475D
:10110F00CFF208EFF2783BE2FF08E27849CFF2081E
:10111F00EFF27BFE7A00791912052F7BFE7A0079A8
:10112F001978427408F27D04E4FF12144D7840746C
:10113F00FFF2087400F2087455F27BFE7A007919F9
:10114F0012052F7BFE7A00791978427408F27D061A
:05115F00E4FF02144D45
:10130400784074FFF2087400F2087460F27BFE7A8D
:1013140000791912052F7BFE7A0079197842740836
:10132400F2E4FDFF12144D784074FFF2087400F2E9
:1013340008746DF27BFE7A00791912052F7BFE7A10
:1013440000791978427408F27D02E4FF12144DE426
:101354007835F208F208F208F208F208F208F20806
:10136400F2784074FFF2087400F2087441F27835A0
:10137400E2FF08E27843CFF208EFF27837E2FF08A1
:10138400E27845CFF208EFF27839E2FF08E27847D5
:10139400CFF208EFF2783BE2FF08E27849CFF20897
:1013A400EFF27BFE7A00791912052F7BFE7A007921
:0D13B4001978427408F27D04E4FF02144D24
:0A14BB00783DEBF208EAF208E9F2CE
:1014C500E47843F27840E2FB08E2FA08E2F908E240
:1014D500FF75F002A4F58285F083120D07FDACF0CF
:1014E500783DE2FB08E2FA08E2F975F002EFA4F5AF
:1014F5008285F083120D076D7003E5F06C6002C301
:0B150500227843E204F2E2B404BAD3FF
:0115100022B8
:0A156100783DEBF208EAF208E9F227
:10156B00E4FF7840E2FB08E2FA08E2F975F002EFDB
:10157B00A4F58285F083120D07FDACF0783DE2FBFC
:10158B0008E2FA08E2F975F002EFA4F58285F08320
:0B159B00EC8DF0120D3F0FEFB404C701
:0115A6002222
:03000B0002162EAC
:0D162E00C0E0C0D075D000C000C004C007EF
:10163B00758A66758CFCE4FFEF25E02417F8E6FC51
:10164B0008E64C600DEF25E02417F808E616187035
:07165B0001160FEFB404E1DA
:0B166200D007D004D000D0D0D0E03280
:0300230002193887
:06193800309802C2983253
:01193E002286
:100A5600120F55780AEFF27816E26F5FFE18F20869
:100A6600EFF2BE0D05A209B392097815E2FFB40EA6
:100A760005A20EB3920EEF14B40A004003020BCB8C
:100A8600900A9475F003A4C58325F0C58373020A02
:100A9600C4020AD7020AEB020AFE020B11020B2459
:100AA600020B37020B4A020B5D020AB2780CE2FF18
:100AB60004F2EF25E02435F8E4F208020B6E780C18
:100AC600E2FF04F2EF25E02435F8E4F20804020B15
:100AD6006E780CE2FF04F2EF25E02435F8E4F20824
:100AE6007402020B6E780CE2FF04F2EF25E0243567
:100AF600F8E4F20874038070780CE2FF04F2EF2544
:100B0600E02435F8E4F2087404805D780CE2FF0412
:100B1600F2EF25E02435F8E4F2087405804A780CF3
:100B2600E2FF04F2EF25E02435F8E4F208740680CB
:100B360037780CE2FF04F2EF25E02435F8E4F208FA
:100B460074078024780CE2FF04F2EF25E02435F8E0
:100B5600E4F20874088011780CE2FF04F2EF25E055
:100B66002435F8E4F2087409F2784074FFF2087448
:100B760000F2087441F27835E2FF08E27843CFF2DA
:100B860008EFF27837E2FF08E27845CFF208EFF295
:100B96007839E2FF08E27847CFF208EFF2783BE2D5
:100BA600FF08E27849CFF208EFF27BFE7A00791966
:100BB60012052F7BFE7A00791978427408F27D04BB
:100BC600E4FF12144D780CE2D394034074200B3FDB
:100BD60020091A784074FEF2087400F208740DF2C7
:100BE6007BFE7A0079351214BB920D8050784074E2
:100BF600FEF2087400F208742DF27BFE7A00793555
:100C06001214BB920A200A35C2097580FE802E781E
:100C160040200E1374FEF2087400F2087435F27B5D
:100C2600FE7A00790D801174FEF2087400F20874E1
:100C360035F27BFE7A00792D121561D20CE4780C20
:020C4600F22298
:100DDE00784074FFF2087400F208747EF2780DE227
:100DEE00FF08E27843CFF208EFF2780FE2FF08E255
:100DFE007845CFF208EFF27811E2FF08E27847CF9C
:100E0E00F208EFF27813E2FF08E27849CFF208EF2A
:100E1E00F2782DE2FF08E2784BCFF208EFF2782F4E
:100E2E00E2FF08E2784DCFF208EFF27831E2FF08E8
:100E3E00E2784FCFF208EFF27833E2FF08E2785112
:100E4E00CFF208EFF27BFE7A00791912052F7BFEA6
:100E5E007A00791978427408F27D07E4FF12144D76
:100E6E00300D2D784074FFF2087400F2087490F281
:100E7E007BFE7A00791912052F7BFE7A007919789C
:100E8E00427408F27D06E4FF12144D7580EF800364
:100E9E007580FF200B67200927784074FFF20874D5
:100EAE0000F208749BF27BFE7A00791912052F7BF3
:100EBE00FE7A00791978427408F2E4FDFF02144DAF
:100ECE00784074FFF2087400F20874A8F27BFE7A80
:100EDE0000791912052F7BFE7A0079197842740871
:100EEE00F2E4FDFF12144D300A5C12175712130470
:100EFE00C20DC209C20AC20ED20BC20C22784074B5
:100F0E00FF200E0AF2087400F20874B58008F20889
:100F1E007400F20874C4F27BFE7A00791912052F60
:100F2E007BFE7A00791978427408F2E4FDFF121400
:100F3E004D300C1212175712107FC20DC209C20A81
:070F4E00C20EC20BC20C220F
:10180B00E4FFEF75F005A4240BF8E6FC08E6FDEF0A
:0F181B0025E02417F8A60408A6050FEFB403E391
:01182A00229B
:10151100E4783DF2783DE2FFC394035042EF25E0C9
:101521002417F8E6FE08E64E702E783DE2FF75F0CE
:1015310005A4240BF8E6FC08E6FDEF25E02417F8E6
:10154100A60408A605783DE275F005A42408F8086C
:0F155100E6FA08E6F9120D99783DE204F280B54A
:011560002268
:030000000213C127
:0C13C100787FE4F6D8FD75812602140840
:100C4800BB010689828A83E0225002E722BBFE02AA
:090C5800E32289828A83E49322DD
:100C6100BB010CE58229F582E5833AF583E0225048
:100C710006E92582F8E622BBFE06E92582F8E22292
:0D0C8100E58229F582E5833AF583E49322AC
:100C8E00BB010689828A83F0225002F722BBFE0145
:020C9E00F3223F
:100CA000EF8DF0A4A8F0CF8CF0A428CE8DF0A42E68
:020CB000FE2222
:100CB200BC000BBE0029EF8DF084FFADF022E4CC26
:100CC200F875F008EF2FFFEE33FEEC33FCEE9DECEF
:100CD200984005FCEE9DFE0FD5F0E9E4CEFD22ED35
:100CE200F8F5F0EE8420D21CFEADF075F008EF2F7F
:100CF200FFED33FD4007985006D5F0F222C398FD70
:050D02000FD5F0EA220C
:100D0700BB0110E58229F582E5833AF583E0F5F02A
:100D1700A3E0225009E92582F886F008E622BBFE07
:100D27000AE92582F8E2F5F008E222E5832AF5834D
:080D3700E993F5F0A3E9932212
:100D3F00F8BB0111E58229F582E5833AF583E8F0E6
:100D4F00E5F0A3F0225009E92582C8F608A6F022A3
:0D0D5F00BBFE09E92582C8F2E5F008F2228A
:100D6C00D083D082F8E4937012740193700DA3A316
:100D7C0093F8740193F5828883E473740293B5F04D
:0D0D8C00067403936860E9A3A3A3A380D8B5
:060D99008A838982E473E5
:1004D300E5222440F8E2052222783D3007027840E5
:1004E300E475F001120D9F020C482000EB7F2ED221
:1004F300008018EF540F2490D43440D4FF30040B01
:10050300EF24BFB41A0050032461FFE523600215F2
:10051300230526E5267002052530070D783DE47591
:10052300F001120D9FEF020C8E02177E7403D207A7
:100533008003E4C207F522783D120DAFE4F523F5FD
:1005430025F526E52360077F2012050E80F5752427
:10055300FFC201C200C202C203C205C206C2081220
:1005630004DCFF700D3007057F0012051FAF26AEB8
:100573002522B4255FC2D5C2041204DCFF24D0B403
:100583000A00501A75F00A782330D50508B6FF0122
:1005930006C6A426F620D5047002D20380D924CF40
:1005A300B41A00EF5004C2E5D20402071ED2018040
:1005B300C6D20080C0D20280BCD2D580BAD2058018
:1005C300B47F2012050E2002077401B5230040F109
:1005D3001204D3FF12050E020546D208D2068095F7
:1005E3001204D3FB1204D3FA1204D3F94A4B700654
:1005F30079EF7A077BFF20022EE523602A7E008EA7
:1006030082758300120C6160060EEE652470F0C2E1
:10061300D5EBC0E0EAC0E0E9C0E0EE120765D0E048
:10062300F9D0E0FAD0E0FB120C48FF60AAEBC0E07F
:10063300EAC0E0E9C0E012050ED0E02401F9D0E001
:100643003400FAD0E0FBE5240460DCD524D98087AC
:100653007BFF7A077961D202809C79108002790846
:10066300C206C2088008D2D5790A8004790AC2D5A5
:10067300E524047002F524E4FAFDFEFF1204D3FC22
:100683007B082001131204D3FD7B1030000A1204EF
:10069300D3FE1204D3FF7B20EC3382D592D55013C3
:1006A300C3E43000069FFFE49EFEE42001039DFDAA
:1006B300E49CFCE4CBF8C201EC700CCFCECDCCE8CB
:1006C30024F8F870F38017C3EF33FFEE33FEED33F6
:1006D300FDEC33FCEB33FB994002FB0FD8E9EB3025
:1006E3000105F8D0E0C448B201C0E00AEC4D4E4F1A
:1006F30078207B0070C2EAB5240040BCC0E012073A
:1007030067D0F0D0E0200104C4C0E0C4B201C0F05F
:100713001204F7D0F0D5F0EB020546120DB805E34D
:1007230053065D5805B44C05B04206614F06694453
:1007330006694905C943066F5506534606534506E0
:010743005362
:1007440047080F5005B82D05BC2E05DF2B05C02327
:1007540005DD2007F82A057848000005D73F3F3F0C
:1007640000790AA2D5200314300509B91002040443
:10077400B9080104A2D5200602500104200268929F
:1007840002B523005034C0E07F203003197F30A22B
:100794000272067205500F1207BEC202C206C205DB
:1007A400C2087F30800F300503E9C0E012050E3027
:1007B4000503D0E0F9D0E0B523CC3005177F30B97C
:1007C400100C12050E7F583004077F788003B90897
:1007D4000312050E3002057F2D02050E7F2020082E
:1007E400F87F2B2006F322920280CF286E756C6C62
:1007F4002900D2011204D33001F8C201782330D584
:100804000108F60205782D504349581204D32403F5
:10081400B405004001E490080A931204FF743A12EC
:0A08240004FFD20375230402065DF1
:1013CD000217EBE493A3F8E493A34003F68001F234
:1013DD0008DFF48029E493A3F85407240CC8C33321
:1013ED00C4540F4420C8834004F456800146F6DFF0
:1013FD00E4800B01020408102040809015EBE47E80
:10140D00019360BCA3FF543F30E509541FFEE493E4
:10141D00A360010ECF54C025E060A840B8E493A3AB
:10142D00FAE493A3F8E493A3C8C582C8CAC583CAD6
:10143D00F0A3C8C582C8CAC583CADFE9DEE780BE8E
:01162D0000BC
:100D9F00FAE2FB0808E2F925F0F218E2CA3AF22269
:090DAF00EBF208EAF208E9F22275
:100DB800D083D082F8E4937012740193700DA3A3CA
:100DC80093F8740193F5828883E4737402936860DE
:060DD800EFA3A3A380DFDE
:10177E00EFB40A07740D121789740A309811A899DC
:10178E00B8130CC2983098FDA899C298B811F630CB
:07179E0099FDC299F59922A3
:00000001FF
