:100F6900C293D292D291D290E580540F7E00D2934F
:100F7900C292D291D290C4F8540FC868FFEEC454FB
:100F8900F048FEE580540FFDEF4DD293D292C29105
:100F9900D290C4F8540FC868FFEEC454F048FEE577
:100FA90080540FFDEF4DD293D292D291C290C4F8E2
:100FB900540FC868FFEEC454F048FEE580540FFD95
:100FC900EF4DF4FFEEF4FEEF8EF0120EF7108300F2
:100FD90001107C000210750004106E0008106700F3
:100FE90010106000201059004010520080104B0171
:100FF9000010440200103D040010360800102F10A4
:10100900001028200010214000101A800000001054
:101019008A782B740DF2806D782B7409F2806678CA
:101029002B7405F2805F782B7401F28058782B7449
:101039000EF28051782B740AF2804A782B7406F2EA
:101049008043782B7402F2803C782B740FF2803540
:10105900782B740BF2802E782B7407F28027782B6B
:101069007403F28020782B7410F28019782B740C99
:10107900F28012782B7408F2800B782B7404F280BA
:0910890004E4782BF2782BE2FF5D
:01109200223B
:100A72000000000000000000002F0000000007003E
:100A8200070000147F147F1400242A7F2A120062B8
:100A92006408132300364955225000000503000064
:100AA20000001C224100000041221C000014083EEC
:100AB20008140008083E0808000000A060000008B2
:100AC2000808080800006060000000201008040206
:100AD200003E5149453E0000427F400000426151C4
:100AE2004946002141454B31001814127F1000275E
:100AF20045454539003C4A49493000017109050321
:100B020000364949493600064949291E0000363651
:100B120000000000563600000008142241000014B4
:100B22001414141400004122140800020151090691
:100B320000324959513E007C1211127C007F494912
:100B42004936003E41414122007F4141221C007F43
:100B520049494941007F09090901003E4149497A51
:100B6200007F0808087F0000417F410000204041CB
:100B72003F01007F08142241007F40404040007F37
:100B8200020C027F007F0408107F003E4141413E7B
:100B9200007F09090906003E4151215E007F0919C3
:100BA20029460046494949310001017F0101003FC0
:100BB2004040403F001F2040201F003F4038403F40
:100BC20000631408146300070870080700615149A4
:100BD200454300007F41410000552A552A55000037
:100BE20041417F00000402010204004040404040B5
:100BF200000001020400002054545478007F48444D
:100C0200443800384444442000384444487F003883
:100C12005454541800087E0901020018A4A4A47CAC
:100C2200007F080404780000447D40000040808476
:100C32007D00007F102844000000417F4000007CBE
:100C420004180478007C08040478003844444438CA
:100C520000FC242424180018242418FC007C080416
:100C6200040800485454542000043F444020003CEF
:100C72004040207C001C2040201C003C4030403C76
:100C8200004428102844001CA0A0A07C0044645406
:080C92004C4414141414141452
:0C192400751A02751BEFD51BFDD51AFAD1
:011930002294
:1018D900EF1FAC0670011E4C600512192480F1221D
:10186100782BEFF27006FD7FA61216B2782BE2B448
:0A1871000107E4FD7FA71216B22262
:10176700782BEFF2700DFD7FC81216B2E4FD7FA152
:101777001216B2782BE2B4010EE4FD7FC01216B246
:08178700E4FD7FA01216B2225E
:081953007F01AE071FEE70FAE0
:01195B002269
:0F18E900D2A0D2A1121953C2A0121953C2A12228
:0A194900C2A0D2A1121953D2A022AD
:0F18F800D2A0121953D2A1121953C2A10219532F
:0217DD00AD0756
:1017DF00E4FCC2A1ED30E704D2A08002C2A012192E
:1017EF0053D2A1121953C2A1ED25E0FD0CECB408A0
:0117FF00E108
:0118000022C5
:0D16A5001216B2E4FDFF1216B2E4FD7F1034
:1016B200AB05AA071218E97F781217DD1218F8EBAA
:1016C20060047F408002E4FF1217DD1218F8AF02B7
:0916D2001217DD1218F802194983
:10180100A907ED24B0FFE4FD1216B2E954F0C45467
:101811000F4410FFE4FD1216B2E9540FFFE4FD027C
:0218210016B2FD
:10000E00E4FD7F8D1216B2E4FD7F141216B2E4FDEC
:05001E007FAF0216B2E5
:0E191600E4FD7F8D1216ABE4FD7FAE0216B22B
:10178F00E4F9E924B0FFE4FD1216A5E4782BF27D0D
:10179F0001E4FF1216B2782BE204F2E2C394804008
:0617AF00EE09E9B408DCBC
:0117B5002211
:071093007832EFF208EDF2E4
:10109A00E47836F218E2FFC313FD7837F2E408F277
:1010AA0008F2EFB4080908E4F2087406F2802F780F
:1010BA0035E2FF131313541FF582758300EF5407AB
:1010CA007E0060047F0180027F00EF2582FFEE35FB
:1010DA0083FE7C00120E90783AEEF208EFF2EB24CF
:1010EA00E07836F27832E2FF08E2FD121801E4787D
:1010FA0038F208F2783AE2FC08E2FD7838E2FE08B3
:10110A00E2FFC39DEE9C505D7837E2FD7C00120E33
:10111A00A2ED4C70137835E26408600C7832E2FF75
:10112A0008E2FD04F21218017835E2B4083778387B
:10113A00E2FE08E2FF7836E275F006A42472F58230
:10114A00E5F0340AF583E5822FF582E5833EF583DF
:10115A00E493FF7D011216B27839E22401F218E213
:05116A003400F2808F4B
:01116F00225D
:10140B00782BEFF208EDF208EBF208EAF208E9F2BA
:10141B00E47831F2782DE2FB08E2FA08E2F9783150
:10142B00E2F582758300120E2F6042782BE2FF08E3
:10143B00E2FD08E2FB08E2FA08E2F97831E2FE0489
:10144B00F28E82758300120E2FFB7830E27835F224
:10145B001210937830E2FFB40808782BE22406F2DE
:0D146B0080B2EFC313FF782BE22FF280A7B1
:011478002251
:10117000C2927FC87E001218D9D292E4FD7FAE12CF
:1011800016A5E4FD7F401216B2E4FD7F811216B26F
:10119000E4FD7FCF1216B2E4FD7FA11216B2E4FD8A
:1011A0007FC81216B2E4FD7FA61216B2E4FD7FA836
:1011B0001216B2E4FD7F3F1216B2E4FD7FD3121681
:1011C000B2E4FDFF1216B2E4FD7FD51216B2E4FDC3
:1011D0007F801216B2E4FD7FD91216B2E4FD7FF1D2
:1011E0001216B2E4FD7FDA1216B2E4FD7F12121677
:1011F000B2E4FD7FDB1216B2E4FD7F401216B2E4CA
:10120000FD7F201216B2E4FD7F021216B2E4FD7FCC
:101210008D1216B2E4FD7F141216B2E4FD7FA41203
:1012200016B2E4FD7FA61216B212178FE4FD7FAF4F
:031230000216B2F1
:04187B00D2A77F056C
:10187F00000000000000000000000000000000AEAB
:06188F00071FEE70EB22C2
:0F190700D2A612187BC2A67F0512187FC2A72294
:0C193100C2A612187BD2A67F0502187F08
:02170E00AD0725
:10171000E4FCC2A77F0512187FED30E704D2A68053
:1017200002C2A67F0512187FD2A7ED25E0FD7F0536
:0A17300012187F0CECB408DAC2A70F
:01173A00228C
:10184300E4FC12187BED25E0FD30A6034401FDC244
:0D185300A77F0512187F0CECB408E7AF0565
:011860002265
:10173B00EBF208EAF208E9F2AB051219077FA012E7
:0A174B00170E121755AF0312170E08
:1017550012187BA2A6E433FDC2A77F0512187FAF3E
:01176500057E
:011766002260
:1018AE00C2A7EF24FF92A67F0512187F12187BC2E3
:0818BE00A7D2A67F0502187FE6
:1016DB00782B12173B782FE2FF14F2EF6022782B56
:1016EB00E2FB0808E2F92401F218E2FA3400F212E4
:1016FB000E16FF12170E1217557FC812187F80D5C2
:03170B000219318F
:10156E00782B12173B1219077FA112170E1217555F
:10157E00782FE2FF14F2EF6028121843782BE2FB6B
:10158E000808E2F92401F218E2FA3400F2EF120E22
:10159E005C782FE26004E4FF80027F011218AE80B7
:0415AE00CF0219311E
:1018950053877F75985053890F438920758BFD7544
:0918A5008DFDC2ABD28ED2AC2243
:080003008F993099FDC299228A
:1018C6005389F0438901758A33758CFEC28DD28C9B
:0318D600D2A92272
:10002600757365722D494400456E74657220506182
:100036007373776F72643A00202020202025632096
:10004600202563202025632020256300646F6F72BE
:1000560020636C6F7365006368616E67653A20752F
:10006600736572004368616E6765205061737377CC
:100076006F72643A00646F6F72206F70656E200055
:10008600757365722D49442020006D617374657225
:100096002D4944006368616E67653A207573657221
:1000A6002020006368616E67653A206D6173746530
:1000B6007200636F756E743D25642C256325632578
:1000C6006325632D256325632563256300000305EA
:1000D6000911FF118905C300E000F000F8000000D7
:1000E600000000004428FF11AA44000000000000A0
:1000F60000000000000000000000000000000000FA
:1001060000000000000000000000000000000000E9
:1001160000000000000000000000000000000000D9
:1001260000000000000000830138448292927401AE
:1001360083000000000000007C44FF017D7D7D01FE
:100146007D7D7D7D017D7D7D7D7D01FF0000000043
:100156000000010001000100010001000100000093
:100166000000000000000101000000000000000087
:100176000000000000000000000000000000000079
:100186000000000000000000000000000000000069
:100196000000000000000000000000000000000059
:1001A6000000000000000001010000000000000146
:1001B6000100000000000000000001010101010132
:1001C600010101010101010101010101000000001D
:1001D6000000000000000000000000000000000019
:1001E6000000000000000000003F3F0303F313116E
:1001F600111111111101F1116181010101816111C9
:10020600F1010101014141F10101010101C1211188
:1002160011111121C1010101014141F10101010148
:100226000101010101011111111111D33303033F22
:100236003F00000000000000000000000000000079
:1002460000000000000000000000000000000000A8
:100256000000000000000000000000000000000098
:10026600000000000000000000E0E000007F010147
:100276000101010100007F000001061806010000CF
:100286007F0000000040407F40400000001F2040EB
:10029600404040201F0000000040407F40400000DA
:1002A6000000600000000040300C0300000000E089
:1002B600E000000000000000000000000000000058
:1002C6000000000000000000000000000000000028
:1002D6000000000000000000000000000000000018
:1002E60000000000000000000007070606060604DE
:1002F6000404844444448404048444444484040438
:100306000484C404040404844444448404040404A7
:100316000484444444840404040404844444448417
:1003260004048444444484040404040606060607BC
:1003360007000000000000000000000000000000B0
:1003460000000000000000000000000000000000A7
:100356000000000000000000000000000000000097
:100366000000000000000000000000000000000087
:100376000000101814121100000F1010100F0000CA
:1003860000101F10000000081012120D00001800C7
:10039600000D1212120D0000180000101814121190
:1003A60000001018141211000000000000000000E8
:1003B6000000000000000000000000000000000037
:1003C6000000000000000000000000000000000027
:1003D6000000000000000000000000000000000017
:1003E6000000000000000000000000000000000007
:1003F60000000000000000000000000000000000F7
:100406000000000000000000008080808080808066
:100416008000000000000000000000000000000056
:1004260000000000000000000000000000000000C6
:1004360000000000000000000000000000000000B6
:1004460000000000000000000000000000007F0324
:100456000C300C037F00003854545800007C040410
:100466007800003C40407C000000000000000000D6
:100476000000000000000000000000000000000076
:10048600000000000000000000FFAAAAAA28080039
:10049600FF00000000000000000000000000000057
:1004A6000000000000000000000000000000000046
:1004B6000000000000007F030C300C037F000026C4
:0D04C6004949493200007F020408107F0000
:101631000A08FF082E0014FF0C9A0FA0820A00006E
:1016410084275F5F5F5F8404313233348423343312
:101651003231810300C10DC109C10AC10EC10BC1E3
:0B1661000C81200082210000810001AC
:10152700121823121170E4FF121861E4FF121767F3
:101537001212337BFE7A007904782F7404F2E4FDEB
:1015470012156E7F147E001218D97BFE7A0079235C
:10155700782F7404F27D0812156E1218C6121895AA
:07156700D2AF1214D780FB84
:10123300782E74FFF2087400F2087426F27BFE7AAB
:1012430000790C12052F7BFE7A00790C7830740834
:10125300F2E4FDFF12140B782E74FFF2087400F20F
:1012630008742EF27BFE7A00790C12052F7BFE7A2E
:1012730000790C78307408F27D02E4FF12140B122B
:10128300193D782E74FFF2087400F208743EF27868
:1012930027E27831F27828E27832F27829E278335B
:1012A300F2782AE27834F27BFE7A00790C12052F69
:1012B3007BFE7A00790C78307408F27D04E4FF1227
:1012C300140B782E74FFF2087400F2087452F27B48
:1012D300FE7A00790C12052F7BFE7A00790C7830A8
:0A12E3007408F27D06E4FF02140B0C
:1012ED00782E74FFF2087400F208745DF27BFE7ABA
:1012FD0000790C12052F7BFE7A00790C783074087A
:10130D00F2E4FDFF12140B782E74FFF2087400F254
:10131D0008746AF27BFE7A00790C12052F7BFE7A37
:10132D0000790C78307408F27D02E4FF12140B1270
:10133D00193D782E74FFF2087400F208743EF278AD
:10134D0027E27831F27828E27832F27829E27833A0
:10135D00F2782AE27834F27BFE7A00790C12052FAE
:10136D007BFE7A00790C78307408F27D04E4FF027C
:02137D00140B4F
:101479007820E204F2300D2B7822E22401F218E2FE
:101489003400F278007403F2C37822E294D018E2AF
:1014990064809487400D78007401F2C20DE47821CC
:1014A900F208F27800E2FF7820E2D39F5002D28757
:1014B9007800E2FF7820E2D39F4008E2D3942850D5
:0E14C90002C2877820E2D394284002E4F22287
:0C193D007827745FF208F208F208F2222A
:0A15F400782BEBF208EAF208E9F2A6
:1015FE00E4FF782EE2FB08E2FA08E2F98F827583A7
:10160E0000120E2FFE782BE2FB08E2FA08E2F98FA9
:10161E0082758300120E2F6E6002C3220FEFB40488
:02162E00D1D316
:011630002297
:0A166D00782BEBF208EAF208E9F22C
:10167700E4FF782EE2FB08E2FA08E2F98F8275832D
:1016870000120E2FFE782BE2FB08E2FA08E2F98F30
:0D16970082758300EE120E6E0FEFB404D5C5
:0116A4002223
:03000B000215B229
:0D15B200C0E0C0D075D000C000C004C0076C
:1015BF00758A33758CFEE4FFEF25E02412F8E6FC04
:1015CF0008E64C600DEF25E02412F808E6161870B7
:0A15DF0001160FEFB404E1121479B5
:0B15E900D007D004D000D0D0D0E032FA
:0300230002195C63
:06195C00309802C298322F
:011962002262
:10082E00120F697801EFF27809E26F5FFE18F20895
:10083E00EFF2BE0D05A209B392097808E2FFB40EDD
:10084E0005A20EB3920EEF14B40A0040030209552E
:10085E0090086C75F003A4C58325F0C58373020858
:10086E00980208A60208B40208C20208D00208DEE6
:10087E000208EC0208FA02090802088A7803E2FF6D
:10088E0004F274272FF87430807C7803E2FF04F2B0
:10089E0074272FF87431806E7803E2FF04F2742708
:1008AE002FF8743280607803E2FF04F274272FF879
:1008BE00743380527803E2FF04F274272FF87434F5
:1008CE0080447803E2FF04F274272FF874358036E3
:1008DE007803E2FF04F274272FF874368028780329
:1008EE00E2FF04F274272FF87437801A7803E2FFC0
:1008FE0004F274272FF87438800C7803E2FF04F2A8
:10090E0074272FF87439F2782E74FFF2087400F2FF
:10091E0008743EF27827E27831F27828E27832F2E3
:10092E007829E27833F2782AE27834F27BFE7A0084
:10093E00790C12052F7BFE7A00790C78307408F250
:10094E007D04E4FF12140B7803E2D39403500302E8
:10095E000A71200B79782E20091874FEF2087400A3
:10096E00F2087404F27BFE7A0079271215F4920DC8
:10097E00801674FEF2087400F2087423F27BFE7A7D
:10098E000079271215F4920A12193D782E74FFF28F
:10099E00087400F208743EF27827E27831F2782873
:1009AE00E27832F27829E27833F2782AE27834F279
:1009BE007BFE7A00790C12052F7BFE7A00790C787B
:1009CE00307408F27D04E4FF12140B020A6D782EC7
:1009DE00200E2374FEF2087400F2087427F27BFED8
:1009EE007A00790412166D7BFE7A007904782F74E2
:1009FE0004F2E4FD802174FEF2087400F2087427FC
:100A0E00F27BFE7A00792312166D7BFE7A00792333
:100A1E00782F7404F27D081216DB12193D782E74AD
:100A2E00FFF2087400F208743EF27827E27831F291
:100A3E007828E27832F27829E27833F2782AE2786E
:100A4E0034F27BFE7A00790C12052F7BFE7A007948
:100A5E000C78307408F27D04E4FF12140BD20CE40F
:040A6E007803F222F5
:100C9A00300B03020D60782E74FF300D28F20874B1
:100CAA0000F208747BF27BFE7A00790C12052F7B26
:100CBA00FE7A00790C78307408F27D06E4FF12148B
:100CCA000BC2868026F2087400F2087452F27BFE88
:100CDA007A00790C12052F7BFE7A00790C78307431
:100CEA0008F27D06E4FF12140BD28620092A782E18
:100CFA0074FFF2087400F2087486F27BFE7A0079B7
:100D0A000C12052F7BFE7A00790C78307408F2E415
:100D1A00FDFF12140B020DA9782E74FFF20874005D
:100D2A00F2087490F27BFE7A00790C12052F7BFE92
:100D3A007A00790C78307408F2E4FDFF12140B3053
:100D4A000A5D12178F1212EDC20DC209C20AC20E33
:100D5A00D20BC20C8049782E74FF200E0AF2087456
:100D6A0000F208749A8008F2087400F20874A9F272
:100D7A007BFE7A00790C12052F7BFE7A00790C78BB
:100D8A00307408F2E4FDFF12140B300C1212178FA4
:100D9A00121233C20DC209C20AC20EC20BC20C78A9
:100DAA002E74FFF2087400F20874B8F2780A08E2A6
:100DBA00FF2401F218E2FE3400F27831EEF208EF75
:100DCA00F27804E27833F27805E27834F27806E2CF
:100DDA007835F27807E27836F27823E27837F278D3
:100DEA0024E27838F27825E27839F27826E2783AFD
:100DFA00F27BFE7A00790C12052F7BFE7A00790CC1
:0C0E0A0078307408F27D07E4FF02140B3E
:10182300E4FFEF75F005A4240BF8E6FC08E6FDEFF2
:0F18330025E02412F8A60408A6050FEFB402E37F
:011842002283
:1014D700E4782BF2782BE2FFC394025042EF25E029
:1014E7002412F8E6FE08E64E702E782BE2FF75F020
:1014F70005A4240BF8E6FC08E6FDEF25E02412F826
:10150700A60408A605782BE275F005A42408F808B8
:0F151700E6FA08E6F9120F24782BE204F280B509
:0115260022A2
:0300000002137F69
:0C137F00787FE4F6D8FD7581210213C6CA
:100E1600BB010689828A83E0225002E722BBFE02DA
:090E2600E32289828A83E493220D
:100E2F00BB010CE58229F582E5833AF583E0225078
:100E3F0006E92582F8E622BBFE06E92582F8E222C2
:0D0E4F00E58229F582E5833AF583E49322DC
:100E5C00BB010689828A83F0225002F722BBFE0175
:020E6C00F3226F
:100E6E00F8BB010DE58229F582E5833AF583E8F0BA
:100E7E00225006E92582C8F622BBFE05E92582C866
:020E8E00F2224E
:100E9000EF8DF0A4A8F0CF8CF0A428CE8DF0A42E76
:020EA000FE2230
:100EA200BC000BBE0029EF8DF084FFADF022E4CC34
:100EB200F875F008EF2FFFEE33FEEC33FCEE9DECFD
:100EC200984005FCEE9DFE0FD5F0E9E4CEFD22ED43
:100ED200F8F5F0EE8420D21CFEADF075F008EF2F8D
:100EE200FFED33FD4007985006D5F0F222C398FD7E
:050EF2000FD5F0EA221B
:100EF700D083D082F8E4937012740193700DA3A38A
:100F070093F8740193F5828883E473740293B5F0C0
:0D0F1700067403936860E9A3A3A3A380D828
:060F24008A838982E47358
:1004D300E51A242EF8E2051A22782B300702782E2B
:1004E300E475F001120F2A020E162000EB7F2ED2C4
:1004F300008018EF540F2490D43440D4FF30040B01
:10050300EF24BFB41A0050032461FFE51B600215FA
:100513001B051EE51E7002051D30070D782BE475C3
:10052300F001120F2AEF020E5C0217B67403D20712
:100533008003E4C207F51A782B120F3AE4F51BF592
:100543001DF51EE51B60077F2012050E80F5751C47
:10055300FFC201C200C202C203C205C206C2081220
:1005630004DCFF700D3007057F0012051FAF1EAEC0
:100573001D22B4255FC2D5C2041204DCFF24D0B40B
:100583000A00501A75F00A781B30D50508B6FF012A
:1005930006C6A426F620D5047002D20380D924CF40
:1005A300B41A00EF5004C2E5D20402071ED2018040
:1005B300C6D20080C0D20280BCD2D580BAD2058018
:1005C300B47F2012050E2002077401B51B0040F111
:1005D3001204D3FF12050E020546D208D2068095F7
:1005E3001204D3FB1204D3FA1204D3F94A4B700654
:1005F30079EF7A077BFF20022EE51B602A7E008EAF
:1006030082758300120E2F60060EEE651C70F0C219
:10061300D5EBC0E0EAC0E0E9C0E0EE120765D0E048
:10062300F9D0E0FAD0E0FB120E16FF60AAEBC0E0AF
:10063300EAC0E0E9C0E012050ED0E02401F9D0E001
:100643003400FAD0E0FBE51C0460DCD51CD98087BC
:100653007BFF7A077961D202809C79108002790846
:10066300C206C2088008D2D5790A8004790AC2D5A5
:10067300E51C047002F51CE4FAFDFEFF1204D3FC32
:100683007B082001131204D3FD7B1030000A1204EF
:10069300D3FE1204D3FF7B20EC3382D592D55013C3
:1006A300C3E43000069FFFE49EFEE42001039DFDAA
:1006B300E49CFCE4CBF8C201EC700CCFCECDCCE8CB
:1006C30024F8F870F38017C3EF33FFEE33FEED33F6
:1006D300FDEC33FCEB33FB994002FB0FD8E9EB3025
:1006E3000105F8D0E0C448B201C0E00AEC4D4E4F1A
:1006F30078207B0070C2EAB51C0040BCC0E0120742
:1007030067D0F0D0E0200104C4C0E0C4B201C0F05F
:100713001204F7D0F0D5F0EB020546120F4305E3C0
:1007230053065D5805B44C05B04206614F06694453
:1007330006694905C943066F5506534606534506E0
:010743005362
:1007440047080F5005B82D05BC2E05DF2B05C02327
:1007540005DD2007F82A057848000005D73F3F3F0C
:1007640000790AA2D5200314300509B91002040443
:10077400B9080104A2D5200602500104200268929F
:1007840002B51B005034C0E07F203003197F30A233
:100794000272067205500F1207BEC202C206C205DB
:1007A400C2087F30800F300503E9C0E012050E3027
:1007B4000503D0E0F9D0E0B51BCC3005177F30B984
:1007C400100C12050E7F583004077F788003B90897
:1007D4000312050E3002057F2D02050E7F2020082E
:1007E400F87F2B2006F322920280CF286E756C6C62
:1007F4002900D2011204D33001F8C201781B30D58C
:100804000108F60205782D504349581204D32403F5
:10081400B405004001E490080A931204FF743A12EC
:0A08240004FFD203751B0402065DF9
:10138B00021527E493A3F8E493A34003F68001F23C
:10139B0008DFF48029E493A3F85407240CC8C33363
:1013AB00C4540F4420C8834004F456800146F6DF32
:1013BB00E4800B0102040810204080901631E47E7B
:1013CB00019360BCA3FF543F30E509541FFEE49327
:1013DB00A360010ECF54C025E060A840B8E493A3EE
:1013EB00FAE493A3F8E493A3C8C582C8CAC583CA19
:1013FB00F0A3C8C582C8CAC583CADFE9DEE780BED1
:01166C00007D
:100F2A00FAE2FB0808E2F925F0F218E2CA3AF222DC
:090F3A00EBF208EAF208E9F222E8
:100F4300D083D082F8E4937012740193700DA3A33D
:100F530093F8740193F5828883E473740293686051
:060F6300EFA3A3A380DF51
:1017B600EFB40A07740D1217C1740A309811A8996C
:1017C600B8130CC2983098FDA899C298B811F63093
:0717D60099FDC299F599226B
:00000001FF
