:100F1300C293D292D291D290E580540F7E00D293A5
:100F2300C292D291D290C4F8540FC868FFEEC45451
:100F3300F048FEE580540FFDEF4DD293D292C2915B
:100F4300D290C4F8540FC868FFEEC454F048FEE5CD
:100F530080540FFDEF4DD293D292D291C290C4F838
:100F6300540FC868FFEEC454F048FEE580540FFDEB
:100F7300EF4DF4FFEEF4FEEF8EF0120EA1102D00F4
:100F83000110260002101F000410180008101100A1
:100F930010100A0020100300400FFC00800FF50121
:100FA300000FEE02000FE704000FE008000FD91056
:100FB300000FD220000FCB40000FC48000000010B0
:100FC300347827740DF2806D78277409F28066787F
:100FD300277405F2805F78277401F28058782774AC
:100FE3000EF280517827740AF2804A78277406F249
:100FF300804378277402F2803C7827740FF280359F
:101003007827740BF2802E78277407F280277827CD
:101013007403F2802078277410F280197827740CF7
:10102300F2801278277408F2800B78277404F28018
:0910330004E47827F27827E2FFBB
:01103C002291
:10082E000000000000000000002F00000000070084
:10083E00070000147F147F1400242A7F2A120062FE
:10084E0064081323003649552250000005030000AA
:10085E0000001C224100000041221C000014083E32
:10086E0008140008083E0808000000A060000008F8
:10087E00080808080000606000000020100804024C
:10088E00003E5149453E0000427F4000004261510A
:10089E004946002141454B31001814127F100027A4
:1008AE0045454539003C4A49493000017109050367
:1008BE0000364949493600064949291E0000363698
:1008CE0000000000563600000008142241000014FB
:1008DE0014141414000041221408000201510906D8
:1008EE0000324959513E007C1211127C007F494959
:1008FE004936003E41414122007F4141221C007F8A
:10090E0049494941007F09090901003E4149497A97
:10091E00007F0808087F0000417F41000020404111
:10092E003F01007F08142241007F40404040007F7D
:10093E00020C027F007F0408107F003E4141413EC1
:10094E00007F09090906003E4151215E007F091909
:10095E0029460046494949310001017F0101003F06
:10096E004040403F001F2040201F003F4038403F86
:10097E0000631408146300070870080700615149EA
:10098E00454300007F41410000552A552A5500007D
:10099E0041417F00000402010204004040404040FB
:1009AE00000001020400002054545478007F484493
:1009BE00443800384444442000384444487F0038CA
:1009CE005454541800087E0901020018A4A4A47CF3
:1009DE00007F080404780000447D400000408084BD
:1009EE007D00007F102844000000417F4000007C05
:1009FE0004180478007C0804047800384444443811
:100A0E0000FC242424180018242418FC007C08045C
:100A1E00040800485454542000043F444020003C35
:100A2E004040207C001C2040201C003C4030403CBC
:100A3E00004428102844001CA0A0A07C004464544C
:080A4E004C4414141414141498
:0C186300751A02751BEFD51BFDD51AFA93
:01186F002256
:10181800EF1FAC0670011E4C600512186380F122A0
:1017A0007827EFF27006FD7FA61215BF7827E2B406
:0A17B0000107E4FD7FA71215BF2218
:1016A6007827EFF2700DFD7FC81215BFE4FD7FA10C
:1016B6001215BF7827E2B4010EE4FD7FC01215BFF4
:0816C600E4FD7FA01215BF2214
:081892007F01AE071FEE70FAA2
:01189A00222B
:0F182800D2A0D2A1121892C2A0121892C2A1226D
:0A188800C2A0D2A1121892D2A02231
:0F183700D2A0121892D2A1121892C2A102189236
:02171C00AD0717
:10171E00E4FCC2A1ED30E704D2A08002C2A01218F0
:10172E0092D2A1121892C2A1ED25E0FD0CECB408E4
:01173E00E1C9
:01173F002287
:0D15B2001215BFE4FDFF1215BFE4FD7F1010
:1015BF00AB05AA071218287F7812171C121837EBE1
:1015CF0060047F408002E4FF12171C121837AF022D
:0915DF0012171C121837021888BB
:10174000A907ED24B0FFE4FD1215BFE954F0C4541D
:101750000F4410FFE4FD1215BFE9540FFFE4FD0232
:0217600015BFB3
:10000E00E4FD7F8D1215BFE4FD7F141215BFE4FDD4
:05001E007FAF0215BFD9
:0E185500E4FD7F8D1215B8E4FD7FAE0215BFD5
:1016CE00E4F9E924B0FFE4FD1215B2E47827F27DC7
:1016DE0001E4FF1215BF7827E204F2E2C3948040C2
:0616EE00EE09E9B408DC7E
:0116F40022D3
:07103D00782EEFF208EDF23E
:10104400E47832F218E2FFC313FD7833F2E408F2D5
:1010540008F2EFB4080908E4F2087406F2802F7865
:1010640031E2FF131313541FF582758300EF540705
:101074007E0060047F0180027F00EF2582FFEE3551
:1010840083FE7C00120E3A7836EEF208EFF2EB247F
:10109400E07832F2782EE2FF08E2FD121740E4789D
:1010A40034F208F27836E2FC08E2FD7834E2FE0815
:1010B400E2FFC39DEE9C505D7833E2FD7C00120E8E
:1010C4004CED4C70137831E26408600C782EE2FF2A
:1010D40008E2FD04F21217407831E2B4083778349C
:1010E400E2FE08E2FF7832E275F006A4242EF582CF
:1010F400E5F03408F583E5822FF582E5833EF58338
:10110400E493FF7D011215BF7835E22401F218E261
:051114003400F2808FA1
:0111190022B3
:1013B5007827EFF208EDF208EBF208EAF208E9F215
:1013C500E4782DF27829E2FB08E2FA08E2F9782DB3
:1013D500E2F582758300120DD960427827E2FF0895
:1013E500E2FD08E2FB08E2FA08E2F9782DE2FE04E4
:1013F500F28E82758300120DD9FB782CE27831F2DA
:1014050012103D782CE2FFB408087827E22406F292
:0D14150080B2EFC313FF7827E22FF280A70B
:0114220022A7
:10111A00C2927FC87E00121818D292E4FD7FAE12E6
:10112A0015B2E4FD7F401215BFE4FD7F811215BFA1
:10113A00E4FD7FCF1215BFE4FD7FA11215BFE4FDC8
:10114A007FC81215BFE4FD7FA61215BFE4FD7FA874
:10115A001215BFE4FD7F3F1215BFE4FD7FD31215C0
:10116A00BFE4FDFF1215BFE4FD7FD51215BFE4FDF4
:10117A007F801215BFE4FD7FD91215BFE4FD7FF110
:10118A001215BFE4FD7FDA1215BFE4FD7F121215B6
:10119A00BFE4FD7FDB1215BFE4FD7F401215BFE4FB
:1011AA00FD7F201215BFE4FD7F021215BFE4FD7F0B
:1011BA008D1215BFE4FD7F141215BFE4FD7FA41242
:1011CA0015BFE4FD7FA61215BF1216CEE4FD7FAF50
:0311DA000215BF3C
:0417BA00D2A77F052E
:1017BE00000000000000000000000000000000AE6D
:0617CE00071FEE70EB2284
:0F184600D2A61217BAC2A67F051217BEC2A722DA
:0C187000C2A61217BAD2A67F050217BE4E
:02164D00AD07E7
:10164F00E4FCC2A77F051217BEED30E704D2A680D7
:10165F0002C2A67F051217BED2A7ED25E0FD7F05BA
:0A166F001217BE0CECB408DAC2A793
:01167900224E
:10178200E4FC1217BAED25E0FD30A6034401FDC2C8
:0D179200A77F051217BE0CECB408E7AF05E9
:01179F002227
:10167A00EBF208EAF208E9F2AB051218467FA0126B
:0A168A00164D121694AF0312164D10
:101694001217BAA2A6E433FDC2A77F051217BEAF84
:0116A4000540
:0116A5002222
:1017ED00C2A7EF24FF92A67F051217BE1217BAC229
:0817FD00A7D2A67F050217BE6A
:1015E800782712167A782BE2FF14F2EF6022782718
:1015F800E2FB0808E2F92401F218E2FA3400F212D8
:101608000DC0FF12164D1216947FC81217BE80D552
:0316180002187045
:1014BA00782712167A1218467FA112164D12169420
:1014CA00782BE2FF14F2EF60281217827827E2FBEA
:1014DA000808E2F92401F218E2FA3400F2EF120ED7
:1014EA0006782BE26004E4FF80027F011217ED8088
:0414FA00CF02187095
:1017D40053877F75985053890F438920758BFD7506
:0917E4008DFDC2ABD28ED2AC2205
:080003008F993099FDC299228A
:101805005389F0438901758A66758CFCC28DD28C2B
:03181500D2A92233
:100026004D6F64653A207573657200656E7465720E
:1000360020796F75722050494E3A002020202020EA
:100046002563202025632020256320202563006466
:100056006F6F7220636C6F7365006368616E6765AE
:100066003A2075736572006368616E676520796F03
:1000760075722050494E3A00256325632563256332
:100086002D256325632563256300646F6F72206FDA
:1000960070656E20004D6F64653A20757365722039
:1000A60020004D6F64653A206D617374657200635C
:1000B60068616E67653A2075736572202000636813
:1000C600616E67653A206D617374657200000305A1
:1000D6000911FF118905C300E000F000F8000000D7
:1000E600000000004428FF11AA44000000000000A0
:1000F60000000000000000000000000000000000FA
:1001060000000000000000000000000000000000E9
:1001160000000000000000000000000000000000D9
:1001260000000000000000830138448292927401AE
:1001360083000000000000007C44FF017D7D7D01FE
:100146007D7D7D7D017D7D7D7D7D01FF0000000043
:100156000000010001000100010001000100000093
:100166000000000000000101000000000000000087
:100176000000000000000000000000000000000079
:100186000000000000000000000000000000000069
:100196000000000000000000000000000000000059
:1001A6000000000000000001010000000000000146
:1001B6000100000000000000000001010101010132
:1001C600010101010101010101010101000000001D
:1001D6000000000000000000000000000000000019
:1001E6000000000000000000003F3F0303F313116E
:1001F600111111111101F1116181010101816111C9
:10020600F1010101014141F10101010101C1211188
:1002160011111121C1010101014141F10101010148
:100226000101010101011111111111D33303033F22
:100236003F00000000000000000000000000000079
:1002460000000000000000000000000000000000A8
:100256000000000000000000000000000000000098
:10026600000000000000000000E0E000007F010147
:100276000101010100007F000001061806010000CF
:100286007F0000000040407F40400000001F2040EB
:10029600404040201F0000000040407F40400000DA
:1002A6000000600000000040300C0300000000E089
:1002B600E000000000000000000000000000000058
:1002C6000000000000000000000000000000000028
:1002D6000000000000000000000000000000000018
:1002E60000000000000000000007070606060604DE
:1002F6000404844444448404048444444484040438
:100306000484C404040404844444448404040404A7
:100316000484444444840404040404844444448417
:1003260004048444444484040404040606060607BC
:1003360007000000000000000000000000000000B0
:1003460000000000000000000000000000000000A7
:100356000000000000000000000000000000000097
:100366000000000000000000000000000000000087
:100376000000101814121100000F1010100F0000CA
:1003860000101F10000000081012120D00001800C7
:10039600000D1212120D0000180000101814121190
:1003A60000001018141211000000000000000000E8
:1003B6000000000000000000000000000000000037
:1003C6000000000000000000000000000000000027
:1003D6000000000000000000000000000000000017
:1003E6000000000000000000000000000000000007
:1003F60000000000000000000000000000000000F7
:100406000000000000000000008080808080808066
:100416008000000000000000000000000000000056
:1004260000000000000000000000000000000000C6
:1004360000000000000000000000000000000000B6
:1004460000000000000000000000000000007F0324
:100456000C300C037F00003854545800007C040410
:100466007800003C40407C000000000000000000D6
:100476000000000000000000000000000000000076
:10048600000000000000000000FFAAAAAA28080039
:10049600FF00000000000000000000000000000057
:1004A6000000000000000000000000000000000046
:1004B6000000000000007F030C300C037F000026C4
:0D04C6004949493200007F020408107F0000
:10161B000A08FF0A56000AFF0C5403E8820900006F
:10162B0084235F5F5F5F840331323334841F343331
:10163B003231810200C10DC109C10AC10EC10BC1FA
:01164B000C92
:1014730012176212111AE4FF1217A0E4FF1216A644
:101483001211DD7BFE7A007903782B7404F2E4FDFC
:101493001214BA7F147E001218187BFE7A00791F8B
:1014A300782B7404F27D081214BA1218051217D49B
:0714B300D2AF12142380FBED
:1011DD00782A74FFF2087400F2087426F27BFE7A06
:1011ED0000790B12052F7BFE7A00790B782C740891
:1011FD00F2E4FDFF1213B5782A74FFF2087400F2C1
:10120D00087431F27BFE7A00790B12052F7BFE7A82
:10121D0000790B782C7408F27D02E4FF1213B512DD
:10122D00187C782A74FFF2087400F2087441F27881
:10123D0023E2782DF27824E2782EF27825E2782FC9
:10124D00F27826E27830F27BFE7A00790B12052FC8
:10125D007BFE7A00790B782C7408F27D04E4FF1282
:10126D0013B5782A74FFF2087400F2087455F27BF6
:10127D00FE7A00790B12052F7BFE7A00790B782C04
:0A128D007408F27D06E4FF0213B5B9
:10129700782A74FFF2087400F2087460F27BFE7A11
:1012A70000790B12052F7BFE7A00790B782C7408D6
:1012B700F2E4FDFF1213B5782A74FFF2087400F206
:1012C70008746DF27BFE7A00790B12052F7BFE7A8C
:1012D70000790B782C7408F27D02E4FF1213B51223
:1012E700187C782A74FFF2087400F2087441F278C7
:1012F70023E2782DF27824E2782EF27825E2782F0F
:10130700F27826E27830F27BFE7A00790B12052F0D
:101317007BFE7A00790B782C7408F27D04E4FF02D7
:0213270013B5FC
:0C187C007823745FF208F208F208F222F0
:0A153D007827EBF208EAF208E9F261
:10154700E4FF782AE2FB08E2FA08E2F98F82758362
:1015570000120DD9FE7827E2FB08E2FA08E2F98FBC
:1015670082758300120DD96E6002C3220FEFB40497
:02157700D1D3CE
:01157900224F
:0A157A007827EBF208EAF208E9F224
:10158400E4FF782AE2FB08E2FA08E2F98F82758325
:1015940000120DD9FE7827E2FB08E2FA08E2F98F7F
:0D15A40082758300EE120E180FEFB404D50F
:0115B1002217
:03000B000214FEDE
:0D14FE00C0E0C0D075D000C000C004C00721
:10150B00758A66758CFCE4FFEF25E02412F8E6FC87
:10151B0008E64C600DEF25E02412F808E61618706B
:07152B0001160FEFB404E10B
:0B153200D007D004D000D0D0D0E032B1
:0300230002189B25
:06189B00309802C29832F1
:0118A1002224
:100A5600120F137800EFF27808E26F5FFE18F208C3
:100A6600EFF2BE0D05A209B392097807E2FFB40EB4
:100A760005A20EB3920EEF14B40A004003020B7DDA
:100A8600900A9475F003A4C58325F0C58373020A02
:100A9600C0020ACE020ADC020AEA020AF8020B06C1
:100AA600020B14020B22020B30020AB27802E2FF9A
:100AB60004F274232FF87430807C7802E2FF04F28B
:100AC60074232FF87431806E7802E2FF04F27423E7
:100AD6002FF8743280607802E2FF04F274232FF854
:100AE600743380527802E2FF04F274232FF87434D0
:100AF60080447802E2FF04F274232FF874358036BE
:100B06007802E2FF04F274232FF874368028780204
:100B1600E2FF04F274232FF87437801A7802E2FF9A
:100B260004F274232FF87438800C7802E2FF04F282
:100B360074232FF87439F2782A74FFF2087400F2DD
:100B4600087441F27823E2782DF27824E2782EF2C6
:100B56007825E2782FF27826E27830F27BFE7A006A
:100B6600790B12052F7BFE7A00790B782C7408F22C
:100B76007D04E4FF1213B57802E2D3940350030216
:100B86000C53200B35782A20091874FEF2087400DD
:100B9600F2087403F27BFE7A00792312153D920D5A
:100BA600806474FEF2087400F208741FF27BFE7A09
:100BB60000792312153D920A804C782A200E237460
:100BC600FEF2087400F2087423F27BFE7A007903C1
:100BD60012157A7BFE7A007903782B7404F2E4FD11
:100BE600802174FEF2087400F2087423F27BFE7A08
:100BF60000791F12157A7BFE7A00791F782B740410
:100C0600F27D081215E812187C782A74FFF208742F
:100C160000F2087441F27823E2782DF27824E27823
:100C26002EF27825E2782FF27826E27830F27BFEF3
:100C36007A00790B12052F7BFE7A00790B782C74DB
:0E0C460008F27D04E4FF1213B5E47802F222F6
:100C5400782A74FFF2087400F208747EF27803E2D2
:100C6400782DF27804E2782EF27805E2782FF27883
:100C740006E27830F2781FE27831F27820E27832B6
:100C8400F27821E27833F27822E27834F27BFE7A49
:100C940000790B12052F7BFE7A00790B782C7408EF
:100CA400F27D07E4FF1213B5782A74FF300D32F297
:100CB400087400F2087490F27BFE7A00790B120536
:100CC4002F7BFE7A00790B782C7408F27D06E4FF02
:100CD4001213B57FE87E03121818C20D7580EF80D9
:100CE40027F2087400F2087455F27BFE7A00790B3F
:100CF40012052F7BFE7A00790B782C7408F27D069E
:100D0400E4FF1213B57580FF200B67200927782AAA
:100D140074FFF2087400F208749BF27BFE7A007987
:100D24000B12052F7BFE7A00790B782C7408F2E401
:100D3400FDFF0213B5782A74FFF2087400F20874F8
:100D4400A8F27BFE7A00790B12052F7BFE7A0079DC
:100D54000B782C7408F2E4FDFF1213B5300A5C1210
:100D640016CE121297C20DC209C20AC20ED20BC20B
:100D74000C22782A74FF200E0AF2087400F2087418
:100D8400B58008F2087400F20874C4F27BFE7A009D
:100D9400790B12052F7BFE7A00790B782C7408F2FC
:100DA400E4FDFF1213B5300C121216CE1211DDC27F
:0C0DB4000DC209C20AC20EC20BC20C2202
:10176200E4FFEF75F005A4240BF8E6FC08E6FDEFB4
:0F17720025E02412F8A60408A6050FEFB402E341
:011781002245
:10142300E47827F27827E2FFC394025042EF25E0E5
:101433002412F8E6FE08E64E702E7827E2FF75F0D8
:1014430005A4240BF8E6FC08E6FDEF25E02412F8DA
:10145300A60408A6057827E275F005A42408F80871
:0F146300E6FA08E6F9120ECE7827E204F280B519
:011472002257
:03000000021329BF
:0C132900787FE4F6D8FD75812102137076
:100DC000BB010689828A83E0225002E722BBFE0231
:090DD000E32289828A83E4932264
:100DD900BB010CE58229F582E5833AF583E02250CF
:100DE90006E92582F8E622BBFE06E92582F8E22219
:0D0DF900E58229F582E5833AF583E4932233
:100E0600BB010689828A83F0225002F722BBFE01CB
:020E1600F322C5
:100E1800F8BB010DE58229F582E5833AF583E8F010
:100E2800225006E92582C8F622BBFE05E92582C8BC
:020E3800F222A4
:100E3A00EF8DF0A4A8F0CF8CF0A428CE8DF0A42ECC
:020E4A00FE2286
:100E4C00BC000BBE0029EF8DF084FFADF022E4CC8A
:100E5C00F875F008EF2FFFEE33FEEC33FCEE9DEC53
:100E6C00984005FCEE9DFE0FD5F0E9E4CEFD22ED99
:100E7C00F8F5F0EE8420D21CFEADF075F008EF2FE3
:100E8C00FFED33FD4007985006D5F0F222C398FDD4
:050E9C000FD5F0EA2271
:100EA100D083D082F8E4937012740193700DA3A3E0
:100EB10093F8740193F5828883E473740293B5F017
:0D0EC100067403936860E9A3A3A3A380D87F
:060ECE008A838982E473AF
:1004D300E51A242AF8E2051A227827300702782A37
:1004E300E475F001120ED4020DC02000EB7F2ED272
:1004F300008018EF540F2490D43440D4FF30040B01
:10050300EF24BFB41A0050032461FFE51B600215FA
:100513001B051EE51E7002051D30070D7827E475C7
:10052300F001120ED4EF020E060216F57403D20781
:100533008003E4C207F51A7827120EE4E4F51BF5ED
:100543001DF51EE51B60077F2012050E80F5751C47
:10055300FFC201C200C202C203C205C206C2081220
:1005630004DCFF700D3007057F0012051FAF1EAEC0
:100573001D22B4255FC2D5C2041204DCFF24D0B40B
:100583000A00501A75F00A781B30D50508B6FF012A
:1005930006C6A426F620D5047002D20380D924CF40
:1005A300B41A00EF5004C2E5D20402071ED2018040
:1005B300C6D20080C0D20280BCD2D580BAD2058018
:1005C300B47F2012050E2002077401B51B0040F111
:1005D3001204D3FF12050E020546D208D2068095F7
:1005E3001204D3FB1204D3FA1204D3F94A4B700654
:1005F30079EF7A077BFF20022EE51B602A7E008EAF
:1006030082758300120DD960060EEE651C70F0C270
:10061300D5EBC0E0EAC0E0E9C0E0EE120765D0E048
:10062300F9D0E0FAD0E0FB120DC0FF60AAEBC0E006
:10063300EAC0E0E9C0E012050ED0E02401F9D0E001
:100643003400FAD0E0FBE51C0460DCD51CD98087BC
:100653007BFF7A077961D202809C79108002790846
:10066300C206C2088008D2D5790A8004790AC2D5A5
:10067300E51C047002F51CE4FAFDFEFF1204D3FC32
:100683007B082001131204D3FD7B1030000A1204EF
:10069300D3FE1204D3FF7B20EC3382D592D55013C3
:1006A300C3E43000069FFFE49EFEE42001039DFDAA
:1006B300E49CFCE4CBF8C201EC700CCFCECDCCE8CB
:1006C30024F8F870F38017C3EF33FFEE33FEED33F6
:1006D300FDEC33FCEB33FB994002FB0FD8E9EB3025
:1006E3000105F8D0E0C448B201C0E00AEC4D4E4F1A
:1006F30078207B0070C2EAB51C0040BCC0E0120742
:1007030067D0F0D0E0200104C4C0E0C4B201C0F05F
:100713001204F7D0F0D5F0EB020546120EED05E317
:1007230053065D5805B44C05B04206614F06694453
:1007330006694905C943066F5506534606534506E0
:010743005362
:1007440047080F5005B82D05BC2E05DF2B05C02327
:1007540005DD2007F82A057848000005D73F3F3F0C
:1007640000790AA2D5200314300509B91002040443
:10077400B9080104A2D5200602500104200268929F
:1007840002B51B005034C0E07F203003197F30A233
:100794000272067205500F1207BEC202C206C205DB
:1007A400C2087F30800F300503E9C0E012050E3027
:1007B4000503D0E0F9D0E0B51BCC3005177F30B984
:1007C400100C12050E7F583004077F788003B90897
:1007D4000312050E3002057F2D02050E7F2020082E
:1007E400F87F2B2006F322920280CF286E756C6C62
:1007F4002900D2011204D33001F8C201781B30D58C
:100804000108F60205782D504349581204D32403F5
:10081400B405004001E490080A931204FF743A12EC
:0A08240004FFD203751B0402065DF9
:10133500021473E493A3F8E493A34003F68001F247
:1013450008DFF48029E493A3F85407240CC8C333B9
:10135500C4540F4420C8834004F456800146F6DF88
:10136500E4800B010204081020408090161BE47EE7
:10137500019360BCA3FF543F30E509541FFEE4937D
:10138500A360010ECF54C025E060A840B8E493A344
:10139500FAE493A3F8E493A3C8C582C8CAC583CA6F
:1013A500F0A3C8C582C8CAC583CADFE9DEE780BE27
:01164C00009D
:100ED400FAE2FB0808E2F925F0F218E2CA3AF22233
:090EE400EBF208EAF208E9F2223F
:100EED00D083D082F8E4937012740193700DA3A394
:100EFD0093F8740193F5828883E4737402936860A8
:060F0D00EFA3A3A380DFA7
:1016F500EFB40A07740D121700740A309811A899EF
:10170500B8130CC2983098FDA899C298B811F63054
:0717150099FDC299F599222C
:00000001FF
