:100F5900C293D292D291D290E580540F7E00D2935F
:100F6900C292D291D290C4F8540FC868FFEEC4540B
:100F7900F048FEE580540FFDEF4DD293D292C29115
:100F8900D290C4F8540FC868FFEEC454F048FEE587
:100F990080540FFDEF4DD293D292D291C290C4F8F2
:100FA900540FC868FFEEC454F048FEE580540FFDA5
:100FB900EF4DF4FFEEF4FEEF8EF0120EE710730022
:100FC90001106C000210650004105E000810570043
:100FD90010105000201049004010420080103B01C1
:100FE9000010340200102D040010260800101F10F4
:100FF900001018200010114000100A800000001095
:101009007A7827740DF2806D78277409F2806678F2
:10101900277405F2805F78277401F2805878277465
:101029000EF280517827740AF2804A78277406F202
:10103900804378277402F2803C7827740FF2803558
:101049007827740BF2802E78277407F28027782787
:101059007403F2802078277410F280197827740CB1
:10106900F2801278277408F2800B78277404F280D2
:0910790004E47827F27827E2FF75
:01108200224B
:100A72000000000000000000002F0000000007003E
:100A8200070000147F147F1400242A7F2A120062B8
:100A92006408132300364955225000000503000064
:100AA20000001C224100000041221C000014083EEC
:100AB20008140008083E0808000000A060000008B2
:100AC2000808080800006060000000201008040206
:100AD200003E5149453E0000427F400000426151C4
:100AE2004946002141454B31001814127F1000275E
:100AF20045454539003C4A49493000017109050321
:100B020000364949493600064949291E0000363651
:100B120000000000563600000008142241000014B4
:100B22001414141400004122140800020151090691
:100B320000324959513E007C1211127C007F494912
:100B42004936003E41414122007F4141221C007F43
:100B520049494941007F09090901003E4149497A51
:100B6200007F0808087F0000417F410000204041CB
:100B72003F01007F08142241007F40404040007F37
:100B8200020C027F007F0408107F003E4141413E7B
:100B9200007F09090906003E4151215E007F0919C3
:100BA20029460046494949310001017F0101003FC0
:100BB2004040403F001F2040201F003F4038403F40
:100BC20000631408146300070870080700615149A4
:100BD200454300007F41410000552A552A55000037
:100BE20041417F00000402010204004040404040B5
:100BF200000001020400002054545478007F48444D
:100C0200443800384444442000384444487F003883
:100C12005454541800087E0901020018A4A4A47CAC
:100C2200007F080404780000447D40000040808476
:100C32007D00007F102844000000417F4000007CBE
:100C420004180478007C08040478003844444438CA
:100C520000FC242424180018242418FC007C080416
:100C6200040800485454542000043F444020003CEF
:100C72004040207C001C2040201C003C4030403C76
:100C8200004428102844001CA0A0A07C0044645406
:080C92004C4414141414141452
:0C18A900751A02751BEFD51BFDD51AFA4D
:0118B5002210
:10185E00EF1FAC0670011E4C60051218A980F12214
:1017E6007827EFF27006FD7FA61216057827E2B479
:0A17F6000107E4FD7FA7121605228B
:1016EC007827EFF2700DFD7FC8121605E4FD7FA17F
:1016FC001216057827E2B4010EE4FD7FC012160520
:08170C00E4FD7FA01216052286
:0818D8007F01AE071FEE70FA5C
:0118E00022E5
:0F186E00D2A0D2A11218D8C2A01218D8C2A1229B
:0A18CE00C2A0D2A11218D8D2A022A5
:0F187D00D2A01218D8D2A11218D8C2A10218D81E
:02176200AD07D1
:10176400E4FCC2A1ED30E704D2A08002C2A01218AA
:10177400D8D2A11218D8C2A1ED25E0FD0CECB40812
:01178400E183
:011785002241
:0D15F800121605E4FDFF121605E4FD7F103C
:10160500AB05AA0712186E7F7812176212187DEBC8
:1016150060047F408002E4FF12176212187DAF025A
:0916250012176212187D0218CEA2
:10178600A907ED24B0FFE4FD121605E954F0C45490
:101796000F4410FFE4FD121605E9540FFFE4FD02A5
:0217A600160526
:10000E00E4FD7F8D121605E4FD7F14121605E4FD46
:05001E007FAF02160592
:0E189B00E4FD7F8D1215FEE4FD7FAE02160502
:10171400E4F9E924B0FFE4FD1215F8E47827F27D3A
:1017240001E4FF1216057827E204F2E2C394804034
:06173400EE09E9B408DC37
:01173A00228C
:07108300782EEFF208EDF2F8
:10108A00E47832F218E2FFC313FD7833F2E408F28F
:10109A0008F2EFB4080908E4F2087406F2802F781F
:1010AA0031E2FF131313541FF582758300EF5407BF
:1010BA007E0060047F0180027F00EF2582FFEE350B
:1010CA0083FE7C00120E807836EEF208EFF2EB24F3
:1010DA00E07832F2782EE2FF08E2FD121786E47811
:1010EA0034F208F27836E2FC08E2FD7834E2FE08CF
:1010FA00E2FFC39DEE9C505D7833E2FD7C00120E48
:10110A0092ED4C70137831E26408600C782EE2FF9D
:10111A0008E2FD04F21217867831E2B4083778340F
:10112A00E2FE08E2FF7832E275F006A42472F58244
:10113A00E5F0340AF583E5822FF582E5833EF583EF
:10114A00E493FF7D011216057835E22401F218E2D4
:05115A003400F2808F5B
:01115F00226D
:1013FB007827EFF208EDF208EBF208EAF208E9F2CF
:10140B00E4782DF27829E2FB08E2FA08E2F9782D6C
:10141B00E2F582758300120E1F60427827E2FF0807
:10142B00E2FD08E2FB08E2FA08E2F9782DE2FE049D
:10143B00F28E82758300120E1FFB782CE27831F24C
:10144B00121083782CE2FFB408087827E22406F206
:0D145B0080B2EFC313FF7827E22FF280A7C5
:011468002261
:10116000C2927FC87E0012185ED292E4FD7FAE125A
:1011700015F8E4FD7F40121605E4FD7F8112160587
:10118000E4FD7FCF121605E4FD7FA1121605E4FDF4
:101190007FC8121605E4FD7FA6121605E4FD7FA8A0
:1011A000121605E4FD7F3F121605E4FD7FD31216EB
:1011B00005E4FDFF121605E4FD7FD5121605E4FDDA
:1011C0007F80121605E4FD7FD9121605E4FD7FF13C
:1011D000121605E4FD7FDA121605E4FD7F121216E1
:1011E00005E4FD7FDB121605E4FD7F40121605E4E1
:1011F000FD7F20121605E4FD7F02121605E4FD7F37
:101200008D121605E4FD7F14121605E4FD7FA4126D
:101210001605E4FD7FA6121605121714E4FD7FAF34
:03122000021605AE
:04180000D2A77F05E7
:10180400000000000000000000000000000000AE26
:06181400071FEE70EB223D
:0F188C00D2A6121800C2A67F05121804C2A72206
:0C18B600C2A6121800D2A67F050218047A
:02169300AD07A1
:10169500E4FCC2A77F05121804ED30E704D2A6804A
:1016A50002C2A67F05121804D2A7ED25E0FD7F052D
:0A16B5001218040CECB408DAC2A706
:0116BF002208
:1017C800E4FC121800ED25E0FD30A6034401FDC23B
:0D17D800A77F051218040CECB408E7AF055C
:0117E50022E1
:1016C000EBF208EAF208E9F2AB0512188C7FA012DF
:0A16D00016931216DAAF03121693F8
:1016DA00121800A2A6E433FDC2A77F05121804AFB0
:0116EA0005FA
:0116EB0022DC
:10183300C2A7EF24FF92A67F05121804121800C254
:08184300A7D2A67F05021804DC
:10162E0078271216C0782BE2FF14F2EF602278278B
:10163E00E2FB0808E2F92401F218E2FA3400F21291
:10164E000E06FF1216931216DA7FC812180480D5F2
:03165E000218B6B9
:1015000078271216C012188C7FA11216931216DAC1
:10151000782BE2FF14F2EF60281217C87827E2FB5D
:101520000808E2F92401F218E2FA3400F2EF120E90
:101530004C782BE26004E4FF80027F0112183380B4
:04154000CF0218B608
:10181A0053877F75985053890F438920758BFD75BF
:09182A008DFDC2ABD28ED2AC22BE
:080003008F993099FDC299228A
:10184B005389F0438901758A66758CFCC28DD28CE5
:03185B00D2A922ED
:100026004D6F64653A207573657200656E7465720E
:1000360020796F75722050494E3A002020202020EA
:100046002563202025632020256320202563006466
:100056006F6F7220636C6F7365006368616E6765AE
:100066003A2075736572006368616E676520796F03
:1000760075722050494E3A00256325632563256332
:100086002D256325632563256300646F6F72206FDA
:1000960070656E20004D6F64653A20757365722039
:1000A60020004D6F64653A206D617374657200635C
:1000B60068616E67653A2075736572202000636813
:1000C600616E67653A206D617374657200000305A1
:1000D6000911FF118905C300E000F000F8000000D7
:1000E600000000004428FF11AA44000000000000A0
:1000F60000000000000000000000000000000000FA
:1001060000000000000000000000000000000000E9
:1001160000000000000000000000000000000000D9
:1001260000000000000000830138448292927401AE
:1001360083000000000000007C44FF017D7D7D01FE
:100146007D7D7D7D017D7D7D7D7D01FF0000000043
:100156000000010001000100010001000100000093
:100166000000000000000101000000000000000087
:100176000000000000000000000000000000000079
:100186000000000000000000000000000000000069
:100196000000000000000000000000000000000059
:1001A6000000000000000001010000000000000146
:1001B6000100000000000000000001010101010132
:1001C600010101010101010101010101000000001D
:1001D6000000000000000000000000000000000019
:1001E6000000000000000000003F3F0303F313116E
:1001F600111111111101F1116181010101816111C9
:10020600F1010101014141F10101010101C1211188
:1002160011111121C1010101014141F10101010148
:100226000101010101011111111111D33303033F22
:100236003F00000000000000000000000000000079
:1002460000000000000000000000000000000000A8
:100256000000000000000000000000000000000098
:10026600000000000000000000E0E000007F010147
:100276000101010100007F000001061806010000CF
:100286007F0000000040407F40400000001F2040EB
:10029600404040201F0000000040407F40400000DA
:1002A6000000600000000040300C0300000000E089
:1002B600E000000000000000000000000000000058
:1002C6000000000000000000000000000000000028
:1002D6000000000000000000000000000000000018
:1002E60000000000000000000007070606060604DE
:1002F6000404844444448404048444444484040438
:100306000484C404040404844444448404040404A7
:100316000484444444840404040404844444448417
:1003260004048444444484040404040606060607BC
:1003360007000000000000000000000000000000B0
:1003460000000000000000000000000000000000A7
:100356000000000000000000000000000000000097
:100366000000000000000000000000000000000087
:100376000000101814121100000F1010100F0000CA
:1003860000101F10000000081012120D00001800C7
:10039600000D1212120D0000180000101814121190
:1003A60000001018141211000000000000000000E8
:1003B6000000000000000000000000000000000037
:1003C6000000000000000000000000000000000027
:1003D6000000000000000000000000000000000017
:1003E6000000000000000000000000000000000007
:1003F60000000000000000000000000000000000F7
:100406000000000000000000008080808080808066
:100416008000000000000000000000000000000056
:1004260000000000000000000000000000000000C6
:1004360000000000000000000000000000000000B6
:1004460000000000000000000000000000007F0324
:100456000C300C037F00003854545800007C040410
:100466007800003C40407C000000000000000000D6
:100476000000000000000000000000000000000076
:10048600000000000000000000FFAAAAAA28080039
:10049600FF00000000000000000000000000000057
:1004A6000000000000000000000000000000000046
:1004B6000000000000007F030C300C037F000026C4
:0D04C6004949493200007F020408107F0000
:101661000A08FF082E000AFF0C9A03E8820900000D
:1016710084235F5F5F5F840331323334841F3433EB
:101681003231810200C10DC109C10AC10EC10BC1B4
:011691000C4C
:1014B9001217A8121160E4FF1217E6E4FF1216ECE6
:1014C9001212237BFE7A007903782B7404F2E4FD6F
:1014D9001215007F147E0012185E7BFE7A00791FB8
:1014E900782B7404F27D0812150012184B12181A81
:0714F900D2AF12146980FB61
:10122300782A74FFF2087400F2087426F27BFE7ABF
:1012330000790B12052F7BFE7A00790B782C74084A
:10124300F2E4FDFF1213FB782A74FFF2087400F234
:10125300087431F27BFE7A00790B12052F7BFE7A3C
:1012630000790B782C7408F27D02E4FF1213FB1251
:1012730018C2782A74FFF2087400F2087441F278F5
:1012830023E2782DF27824E2782EF27825E2782F83
:10129300F27826E27830F27BFE7A00790B12052F82
:1012A3007BFE7A00790B782C7408F27D04E4FF123C
:1012B30013FB782A74FFF2087400F2087455F27B6A
:1012C300FE7A00790B12052F7BFE7A00790B782CBE
:0A12D3007408F27D06E4FF0213FB2D
:1012DD00782A74FFF2087400F2087460F27BFE7ACB
:1012ED0000790B12052F7BFE7A00790B782C740890
:1012FD00F2E4FDFF1213FB782A74FFF2087400F27A
:10130D0008746DF27BFE7A00790B12052F7BFE7A45
:10131D0000790B782C7408F27D02E4FF1213FB1296
:10132D0018C2782A74FFF2087400F2087441F2783A
:10133D0023E2782DF27824E2782EF27825E2782FC8
:10134D00F27826E27830F27BFE7A00790B12052FC7
:10135D007BFE7A00790B782C7408F27D04E4FF0291
:02136D0013FB70
:0C18C2007823745FF208F208F208F222AA
:0A1583007827EBF208EAF208E9F21B
:10158D00E4FF782AE2FB08E2FA08E2F98F8275831C
:10159D0000120E1FFE7827E2FB08E2FA08E2F98F2F
:1015AD0082758300120E1F6E6002C3220FEFB4040A
:0215BD00D1D388
:0115BF002209
:0A15C0007827EBF208EAF208E9F2DE
:1015CA00E4FF782AE2FB08E2FA08E2F98F827583DF
:1015DA0000120E1FFE7827E2FB08E2FA08E2F98FF2
:0D15EA0082758300EE120E5E0FEFB404D583
:0115F70022D1
:03000B0002154497
:0D154400C0E0C0D075D000C000C004C007DA
:10155100758A66758CFCE4FFEF25E02412F8E6FC41
:1015610008E64C600DEF25E02412F808E616187025
:0715710001160FEFB404E1C5
:0B157800D007D004D000D0D0D0E0326B
:030023000218E1DF
:0618E100309802C29832AB
:0118E70022DE
:10082E00120F597800EFF27808E26F5FFE18F208A7
:10083E00EFF2BE0D05A209B392097807E2FFB40EDE
:10084E0005A20EB3920EEF14B40A0040030209552E
:10085E0090086C75F003A4C58325F0C58373020858
:10086E00980208A60208B40208C20208D00208DEE6
:10087E000208EC0208FA02090802088A7802E2FF6E
:10088E0004F274232FF87430807C7802E2FF04F2B5
:10089E0074232FF87431806E7802E2FF04F2742311
:1008AE002FF8743280607802E2FF04F274232FF87E
:1008BE00743380527802E2FF04F274232FF87434FA
:1008CE0080447802E2FF04F274232FF874358036E8
:1008DE007802E2FF04F274232FF87436802878022F
:1008EE00E2FF04F274232FF87437801A7802E2FFC5
:1008FE0004F274232FF87438800C7802E2FF04F2AD
:10090E0074232FF87439F2782A74FFF2087400F207
:10091E00087441F27823E2782DF27824E2782EF2F0
:10092E007825E2782FF27826E27830F27BFE7A0094
:10093E00790B12052F7BFE7A00790B782C7408F256
:10094E007D04E4FF1213FB7802E2D39403500302FA
:10095E000A71200B79782A20091874FEF2087400A7
:10096E00F2087403F27BFE7A007923121583920D3E
:10097E00801674FEF2087400F208741FF27BFE7A81
:10098E00007923121583920A1218C2782A74FFF284
:10099E00087400F2087441F27823E2782DF278247C
:1009AE00E2782EF27825E2782FF27826E27830F28D
:1009BE007BFE7A00790B12052F7BFE7A00790B787D
:1009CE002C7408F27D04E4FF1213FB020A6D782AE0
:1009DE00200E2374FEF2087400F2087423F27BFEDC
:1009EE007A0079031215C07BFE7A007903782B7496
:1009FE0004F2E4FD802174FEF2087400F208742300
:100A0E00F27BFE7A00791F1215C07BFE7A00791FE9
:100A1E00782B7404F27D0812162E1218C2782A74DE
:100A2E00FFF2087400F2087441F27823E2782DF296
:100A3E007824E2782EF27825E2782FF27826E27882
:100A4E0030F27BFE7A00790B12052F7BFE7A00794D
:100A5E000B782C7408F27D04E4FF1213FBD20CE425
:040A6E007802F222F6
:100C9A00782A74FFF2087400F208747EF27803E28C
:100CAA00782DF27804E2782EF27805E2782FF2783D
:100CBA0006E27830F2781FE27831F27820E2783270
:100CCA00F27821E27833F27822E27834F27BFE7A03
:100CDA0000790B12052F7BFE7A00790B782C7408A9
:100CEA00F27D077F461213FB782A74FF300D32F229
:100CFA00087400F2087490F27BFE7A00790B1205F0
:100D0A002F7BFE7A00790B782C7408F27D06E4FFBB
:100D1A001213FB7FE87E0312185EC20D7580EF8006
:100D2A0027F2087400F2087455F27BFE7A00790BF8
:100D3A0012052F7BFE7A00790B782C7408F27D0657
:100D4A00E4FF1213FB7580FF200B67200927782A1E
:100D5A0074FFF2087400F208749BF27BFE7A007941
:100D6A000B12052F7BFE7A00790B782C7408F2E4BB
:100D7A00FDFF0213FB782A74FFF2087400F208746C
:100D8A00A8F27BFE7A00790B12052F7BFE7A007996
:100D9A000B782C7408F2E4FDFF1213FB300A5C1284
:100DAA0017141212DDC20DC209C20AC20ED20BC238
:100DBA000C22782A74FF200E0AF2087400F20874D2
:100DCA00B58008F2087400F20874C4F27BFE7A0057
:100DDA00790B12052F7BFE7A00790B782C7408F2B6
:100DEA00E4FDFF1213FB300C12121714121223C265
:0C0DFA000DC209C20AC20EC20BC20C22BC
:1017A800E4FFEF75F005A4240BF8E6FC08E6FDEF6E
:0F17B80025E02412F8A60408A6050FEFB402E3FB
:0117C70022FF
:10146900E47827F27827E2FFC394025042EF25E09F
:101479002412F8E6FE08E64E702E7827E2FF75F092
:1014890005A4240BF8E6FC08E6FDEF25E02412F894
:10149900A60408A6057827E275F005A42408F8082B
:0F14A900E6FA08E6F9120F147827E204F280B58C
:0114B8002211
:0300000002136F79
:0C136F00787FE4F6D8FD7581210213B6EA
:100E0600BB010689828A83E0225002E722BBFE02EA
:090E1600E32289828A83E493221D
:100E1F00BB010CE58229F582E5833AF583E0225088
:100E2F0006E92582F8E622BBFE06E92582F8E222D2
:0D0E3F00E58229F582E5833AF583E49322EC
:100E4C00BB010689828A83F0225002F722BBFE0185
:020E5C00F3227F
:100E5E00F8BB010DE58229F582E5833AF583E8F0CA
:100E6E00225006E92582C8F622BBFE05E92582C876
:020E7E00F2225E
:100E8000EF8DF0A4A8F0CF8CF0A428CE8DF0A42E86
:020E9000FE2240
:100E9200BC000BBE0029EF8DF084FFADF022E4CC44
:100EA200F875F008EF2FFFEE33FEEC33FCEE9DEC0D
:100EB200984005FCEE9DFE0FD5F0E9E4CEFD22ED53
:100EC200F8F5F0EE8420D21CFEADF075F008EF2F9D
:100ED200FFED33FD4007985006D5F0F222C398FD8E
:050EE2000FD5F0EA222B
:100EE700D083D082F8E4937012740193700DA3A39A
:100EF70093F8740193F5828883E473740293B5F0D1
:0D0F0700067403936860E9A3A3A3A380D838
:060F14008A838982E47368
:1004D300E51A242AF8E2051A227827300702782A37
:1004E300E475F001120F1A020E062000EB7F2ED2E4
:1004F300008018EF540F2490D43440D4FF30040B01
:10050300EF24BFB41A0050032461FFE51B600215FA
:100513001B051EE51E7002051D30070D7827E475C7
:10052300F001120F1AEF020E4C02173B7403D207AD
:100533008003E4C207F51A7827120F2AE4F51BF5A6
:100543001DF51EE51B60077F2012050E80F5751C47
:10055300FFC201C200C202C203C205C206C2081220
:1005630004DCFF700D3007057F0012051FAF1EAEC0
:100573001D22B4255FC2D5C2041204DCFF24D0B40B
:100583000A00501A75F00A781B30D50508B6FF012A
:1005930006C6A426F620D5047002D20380D924CF40
:1005A300B41A00EF5004C2E5D20402071ED2018040
:1005B300C6D20080C0D20280BCD2D580BAD2058018
:1005C300B47F2012050E2002077401B51B0040F111
:1005D3001204D3FF12050E020546D208D2068095F7
:1005E3001204D3FB1204D3FA1204D3F94A4B700654
:1005F30079EF7A077BFF20022EE51B602A7E008EAF
:1006030082758300120E1F60060EEE651C70F0C229
:10061300D5EBC0E0EAC0E0E9C0E0EE120765D0E048
:10062300F9D0E0FAD0E0FB120E06FF60AAEBC0E0BF
:10063300EAC0E0E9C0E012050ED0E02401F9D0E001
:100643003400FAD0E0FBE51C0460DCD51CD98087BC
:100653007BFF7A077961D202809C79108002790846
:10066300C206C2088008D2D5790A8004790AC2D5A5
:10067300E51C047002F51CE4FAFDFEFF1204D3FC32
:100683007B082001131204D3FD7B1030000A1204EF
:10069300D3FE1204D3FF7B20EC3382D592D55013C3
:1006A300C3E43000069FFFE49EFEE42001039DFDAA
:1006B300E49CFCE4CBF8C201EC700CCFCECDCCE8CB
:1006C30024F8F870F38017C3EF33FFEE33FEED33F6
:1006D300FDEC33FCEB33FB994002FB0FD8E9EB3025
:1006E3000105F8D0E0C448B201C0E00AEC4D4E4F1A
:1006F30078207B0070C2EAB51C0040BCC0E0120742
:1007030067D0F0D0E0200104C4C0E0C4B201C0F05F
:100713001204F7D0F0D5F0EB020546120F3305E3D0
:1007230053065D5805B44C05B04206614F06694453
:1007330006694905C943066F5506534606534506E0
:010743005362
:1007440047080F5005B82D05BC2E05DF2B05C02327
:1007540005DD2007F82A057848000005D73F3F3F0C
:1007640000790AA2D5200314300509B91002040443
:10077400B9080104A2D5200602500104200268929F
:1007840002B51B005034C0E07F203003197F30A233
:100794000272067205500F1207BEC202C206C205DB
:1007A400C2087F30800F300503E9C0E012050E3027
:1007B4000503D0E0F9D0E0B51BCC3005177F30B984
:1007C400100C12050E7F583004077F788003B90897
:1007D4000312050E3002057F2D02050E7F2020082E
:1007E400F87F2B2006F322920280CF286E756C6C62
:1007F4002900D2011204D33001F8C201781B30D58C
:100804000108F60205782D504349581204D32403F5
:10081400B405004001E490080A931204FF743A12EC
:0A08240004FFD203751B0402065DF9
:10137B000214B9E493A3F8E493A34003F68001F2BB
:10138B0008DFF48029E493A3F85407240CC8C33373
:10139B00C4540F4420C8834004F456800146F6DF42
:1013AB00E4800B0102040810204080901661E47E5B
:1013BB00019360BCA3FF543F30E509541FFEE49337
:1013CB00A360010ECF54C025E060A840B8E493A3FE
:1013DB00FAE493A3F8E493A3C8C582C8CAC583CA29
:1013EB00F0A3C8C582C8CAC583CADFE9DEE780BEE1
:011692000057
:100F1A00FAE2FB0808E2F925F0F218E2CA3AF222EC
:090F2A00EBF208EAF208E9F222F8
:100F3300D083D082F8E4937012740193700DA3A34D
:100F430093F8740193F5828883E473740293686061
:060F5300EFA3A3A380DF61
:10173B00EFB40A07740D121746740A309811A89962
:10174B00B8130CC2983098FDA899C298B811F6300E
:07175B0099FDC299F59922E6
:00000001FF
