:100F4800C293D292D291D290E580540F7E00D29370
:100F5800C292D291D290C4F8540FC868FFEEC4541C
:100F6800F048FEE580540FFDEF4DD293D292C29126
:100F7800D290C4F8540FC868FFEEC454F048FEE598
:100F880080540FFDEF4DD293D292D291C290C4F803
:100F9800540FC868FFEEC454F048FEE580540FFDB6
:100FA800EF4DF4FFEEF4FEEF8EF0120ED610620055
:100FB80001105B000210540004104D000810460098
:100FC80010103F00201038004010310080102A0116
:100FD8000010230200101C040010150800100E1049
:100FE8000010072000100040000FF98000000010DA
:100FF80069782B740DF2806D782B7409F28066780D
:101008002B7405F2805F782B7401F28058782B746A
:101018000EF28051782B740AF2804A782B7406F20B
:101028008043782B7402F2803C782B740FF2803561
:10103800782B740BF2802E782B7407F28027782B8C
:101048007403F28020782B7410F28019782B740CBA
:10105800F28012782B7408F2800B782B7404F280DB
:0910680004E4782BF2782BE2FF7E
:01107100225C
:100A69000000000000000000002F00000000070047
:100A7900070000147F147F1400242A7F2A120062C1
:100A8900640813230036495522500000050300006D
:100A990000001C224100000041221C000014083EF5
:100AA90008140008083E0808000000A060000008BB
:100AB900080808080000606000000020100804020F
:100AC900003E5149453E0000427F400000426151CD
:100AD9004946002141454B31001814127F10002767
:100AE90045454539003C4A4949300001710905032A
:100AF90000364949493600064949291E000036365B
:100B090000000000563600000008142241000014BD
:100B1900141414140000412214080002015109069A
:100B290000324959513E007C1211127C007F49491B
:100B39004936003E41414122007F4141221C007F4C
:100B490049494941007F09090901003E4149497A5A
:100B5900007F0808087F0000417F410000204041D4
:100B69003F01007F08142241007F40404040007F40
:100B7900020C027F007F0408107F003E4141413E84
:100B8900007F09090906003E4151215E007F0919CC
:100B990029460046494949310001017F0101003FC9
:100BA9004040403F001F2040201F003F4038403F49
:100BB90000631408146300070870080700615149AD
:100BC900454300007F41410000552A552A55000040
:100BD90041417F00000402010204004040404040BE
:100BE900000001020400002054545478007F484456
:100BF900443800384444442000384444487F00388D
:100C09005454541800087E0901020018A4A4A47CB5
:100C1900007F080404780000447D4000004080847F
:100C29007D00007F102844000000417F4000007CC7
:100C390004180478007C08040478003844444438D3
:100C490000FC242424180018242418FC007C08041F
:100C5900040800485454542000043F444020003CF8
:100C69004040207C001C2040201C003C4030403C7F
:100C7900004428102844001CA0A0A07C004464540F
:080C89004C441414141414145B
:0C1904007522027523EFD523FDD522FAD1
:0119100022B4
:1018B900EF1FAC0670011E4C600512190480F1225D
:10184100782BEFF27006FD7FA6121692782BE2B488
:0A1851000107E4FD7FA712169222A2
:10174700782BEFF2700DFD7FC8121692E4FD7FA192
:10175700121692782BE2B4010EE4FD7FC0121692A6
:08176700E4FD7FA0121692229E
:081933007F01AE071FEE70FA00
:01193B002289
:0F18C900D2A0D2A1121933C2A0121933C2A12288
:0A192900C2A0D2A1121933D2A022ED
:0F18D800D2A0121933D2A1121933C2A1021933AF
:0217BD00AD0776
:1017BF00E4FCC2A1ED30E704D2A08002C2A012194E
:1017CF0033D2A1121933C2A1ED25E0FD0CECB40800
:0117DF00E128
:0117E00022E6
:0D168500121692E4FDFF121692E4FD7F1094
:10169200AB05AA071218C97F781217BD1218D8EB2A
:1016A20060047F408002E4FF1217BD1218D8AF0217
:0916B2001217BD1218D802192903
:1017E100A907ED24B0FFE4FD121692E954F0C454A8
:1017F1000F4410FFE4FD121692E9540FFFE4FD02BD
:0218010016923D
:10000E00E4FD7F8D121692E4FD7F14121692E4FD2C
:05001E007FAF02169205
:0E18F600E4FD7F8D12168BE4FD7FAE0216928C
:10176F00E4F9E924B0FFE4FD121685E4782BF27D4D
:10177F0001E4FF121692782BE204F2E2C394804048
:06178F00EE09E9B408DCDC
:011795002231
:071072007832EFF208EDF205
:10107900E47836F218E2FFC313FD7837F2E408F298
:1010890008F2EFB4080908E4F2087406F2802F7830
:1010990035E2FF131313541FF582758300EF5407CC
:1010A9007E0060047F0180027F00EF2582FFEE351C
:1010B90083FE7C00120E6F783AEEF208EFF2EB2411
:1010C900E07836F27832E2FF08E2FD1217E1E478BF
:1010D90038F208F2783AE2FC08E2FD7838E2FE08D4
:1010E900E2FFC39DEE9C505D7837E2FD7C00120E55
:1010F90081ED4C70137835E26408600C7832E2FFB8
:1011090008E2FD04F21217E17835E2B408377838BD
:10111900E2FE08E2FF7836E275F006A42469F5825A
:10112900E5F0340AF583E5822FF582E5833EF58300
:10113900E493FF7D011216927839E22401F218E254
:051149003400F2808F6C
:01114E00227E
:1013EA00782BEFF208EDF208EBF208EAF208E9F2DC
:1013FA00E47831F2782DE2FB08E2FA08E2F9783172
:10140A00E2F582758300120E0E6042782BE2FF0825
:10141A00E2FD08E2FB08E2FA08E2F97831E2FE04AA
:10142A00F28E82758300120E0EFB7830E27835F266
:10143A001210727830E2FFB40808782BE22406F220
:0D144A0080B2EFC313FF782BE22FF280A7D2
:011457002272
:10114F00C2927FC87E001218B9D292E4FD7FAE1210
:10115F001685E4FD7F40121692E4FD7F81121692F0
:10116F00E4FD7FCF121692E4FD7FA1121692E4FDEB
:10117F007FC8121692E4FD7FA6121692E4FD7FA897
:10118F00121692E4FD7F3F121692E4FD7FD31216E2
:10119F0092E4FDFF121692E4FD7FD5121692E4FD44
:1011AF007F80121692E4FD7FD9121692E4FD7FF133
:1011BF00121692E4FD7FDA121692E4FD7F121216D8
:1011CF0092E4FD7FDB121692E4FD7F40121692E44B
:1011DF00FD7F20121692E4FD7F02121692E4FD7F2E
:1011EF008D121692E4FD7F14121692E4FD7FA41265
:1011FF001692E4FD7FA612169212176FE4FD7FAFD1
:03120F0002169232
:04185B00D2A77F058C
:10185F00000000000000000000000000000000AECB
:06186F00071FEE70EB22E2
:0F18E700D2A612185BC2A67F0512185FC2A722F5
:0C191100C2A612185BD2A67F0502185F68
:0216EE00AD0746
:1016F000E4FCC2A77F0512185FED30E704D2A68094
:1017000002C2A67F0512185FD2A7ED25E0FD7F0576
:0A17100012185F0CECB408DAC2A74F
:01171A0022AC
:10182300E4FC12185BED25E0FD30A6034401FDC284
:0D183300A77F0512185F0CECB408E7AF05A5
:011840002285
:10171B00EBF208EAF208E9F2AB051218E77FA01228
:0A172B0016EE121735AF031216EE8A
:1017350012185BA2A6E433FDC2A77F0512185FAF9E
:01174500059E
:011746002280
:10188E00C2A7EF24FF92A67F0512185F12185BC243
:08189E00A7D2A67F0502185F26
:1016BB00782B12171B782FE2FF14F2EF6022782B96
:1016CB00E2FB0808E2F92401F218E2FA3400F21204
:1016DB000DF5FF1216EE1217357FC812185F80D565
:0316EB00021911D0
:10158B00782B12171B1218E77FA11216EE121735C4
:10159B00782FE2FF14F2EF6028121823782BE2FB6E
:1015AB000808E2F92401F218E2FA3400F2EF120E05
:1015BB003B782FE26004E4FF80027F0112188E80DB
:0415CB00CF02191121
:1018750053877F75985053890F438920758BFD7564
:091885008DFDC2ABD28ED2AC2263
:080003008F993099FDC299228A
:1018A6005389F0438901758A66758CFCC28DD28C8A
:0318B600D2A92292
:10002600757365722D494400456E74657220506182
:100036007373776F72643A00202020202025632096
:10004600202563202025632020256300646F6F72BE
:1000560020636C6F7365006368616E67653A20752F
:10006600736572004368616E6765205061737377CC
:100076006F72643A0025632563256325632D256326
:1000860025632563256300646F6F72206F70656E4C
:100096002000757365722D49442020006D617374CC
:1000A60065722D4944006368616E67653A20757311
:1000B60065722020006368616E67653A206D617322
:1000C600746572000003050911FF118905C300E07C
:1000D60000F000F8000000000000004428FF11AA0C
:1000E60044000000000000000000000000000000C6
:1000F60000000000000000000000000000000000FA
:1001060000000000000000000000000000000000E9
:100116000000000000000000000000000000830155
:100126003844829292740183000000000000007C33
:1001360044FF017D7D7D017D7D7D7D017D7D7D7D14
:100146007D01FF0000000000000100010001000128
:100156000001000100000000000000000001010095
:100166000000000000000000000000000000000089
:100176000000000000000000000000000000000079
:100186000000000000000000000000000000000069
:100196000000000000000000000000000000010157
:1001A6000000000000000101000000000000000047
:1001B600000101010101010101010101010101012A
:1001C6000101010000000000000000000000000026
:1001D6000000000000000000000000000000000019
:1001E6003F3F0303F31311111111111101F11161B5
:1001F60081010101816111F1010101014141F10119
:1002060001010101C1211111111121C101010101D8
:100216004141F10101010101010101010111111128
:100226001111D33303033F3F00000000000000001C
:1002360000000000000000000000000000000000B8
:1002460000000000000000000000000000000000A8
:100256000000000000000000000000000000000098
:10026600E0E000007F01010101010100007F0000C4
:10027600010618060100007F0000000040407F4094
:10028600400000001F2040404040201F00000000AA
:1002960040407F4040000000006000000000403009
:1002A6000C0300000000E0E0000000000000000079
:1002B6000000000000000000000000000000000038
:1002C6000000000000000000000000000000000028
:1002D6000000000000000000000000000000000018
:1002E60007070606060604040484444444840404FA
:1002F600844444448404040484C4040404048444F8
:1003060044448404040404048444444484040404E7
:100316000404844444448404048444444484040417
:100326000404060606060707000000000000000099
:1003360000000000000000000000000000000000B7
:1003460000000000000000000000000000000000A7
:100356000000000000000000000000000000000097
:100366000000000000000000001018141211000028
:100376000F1010100F000000101F100000000810D2
:1003860012120D00001800000D1212120D000018B6
:100396000000101814121100001018141211000099
:1003A6000000000000000000000000000000000047
:1003B6000000000000000000000000000000000037
:1003C6000000000000000000000000000000000027
:1003D6000000000000000000000000000000000017
:1003E6000000000000000000000000000000000007
:1003F60000000000000000000000000000000000F7
:1004060080808080808080800000000000000000E6
:1004160000000000000000000000000000000000D6
:1004260000000000000000000000000000000000C6
:1004360000000000000000000000000000000000B6
:1004460000000000007F030C300C037F00003854CE
:10045600545800007C04047800003C40407C0000B6
:100466000000000000000000000000000000000086
:100476000000000000000000000000000000000076
:10048600FFAAAAAA280800FF00000000000000003A
:100496000000000000000000000000000000000056
:1004A600000000000000000000000000007F030CB8
:1004B600300C037F0000264949493200007F0204C0
:0404C60008107F009B
:1015CF000F08FF19420001FF0825000AFF0C9103C5
:1015DF00E8820A000084275F5F5F5F840431323343
:1015EF0034842334333231810300C10DC109C10A60
:1015FF00C10EC10BC10C81200082210000810001AE
:1014FE0012180312114FE4FF121841E4FF1217479E
:10150E001212127BFE7A007904782F7404F2E4FD35
:10151E0012158B7F147E001218B97BFE7A00792388
:10152E00782F7404F27D0812158B1218A6121875F6
:07153E00D2AF1214AE80FBD6
:10121200782E74FFF2087400F2087426F27BFE7ACC
:1012220000790C1205267BFE7A00790C783074085E
:10123200F2E4FDFF1213EA782E74FFF2087400F252
:1012420008742EF27BFE7A00790C1205267BFE7A58
:1012520000790C78307408F27D02E4FF1213EA126E
:10126200191D782E74FFF2087400F208743EF278A9
:1012720027E27831F27828E27832F27829E278337C
:10128200F2782AE27834F27BFE7A00790C12052693
:101292007BFE7A00790C78307408F27D04E4FF1248
:1012A20013EA782E74FFF2087400F2087452F27B8B
:1012B200FE7A00790C1205267BFE7A00790C7830D2
:0A12C2007408F27D06E4FF0213EA4F
:1012CC00782E74FFF2087400F208745DF27BFE7ADB
:1012DC0000790C1205267BFE7A00790C78307408A4
:1012EC00F2E4FDFF1213EA782E74FFF2087400F298
:1012FC0008746AF27BFE7A00790C1205267BFE7A62
:10130C0000790C78307408F27D02E4FF1213EA12B3
:10131C00191D782E74FFF2087400F208743EF278EE
:10132C0027E27831F27828E27832F27829E27833C1
:10133C00F2782AE27834F27BFE7A00790C120526D8
:10134C007BFE7A00790C78307408F27D04E4FF029D
:02135C0013EA92
:101458007820E204F2300D287822E22401F218E222
:101468003400F278007402F27822E2B4E81218E24A
:10147800B4030D78007401F2C20DE47821F208F289
:101488007800E2FF7820E2FED39F5002D287EED3A5
:101498009F4008EED394145002C287EED3941440B0
:0614A80004E47820F222AA
:0C191D007827745FF208F208F208F2224A
:0A161000782BEBF208EAF208E9F289
:10161A00E4FF782EE2FB08E2FA08E2F98F8275838A
:10162A0000120E0EFE782BE2FB08E2FA08E2F98FAE
:10163A0082758300120E0E6E6002C3220FEFB4048D
:02164A00D1D3FA
:01164C00227B
:0A164D00782BEBF208EAF208E9F24C
:10165700E4FF782EE2FB08E2FA08E2F98F8275834D
:1016670000120E0EFE782BE2FB08E2FA08E2F98F71
:0D16770082758300EE120E4D0FEFB404D506
:011684002243
:03000B0002154596
:0F154500C0E0C0D075D000C000C004C006C00711
:10155400758A66758CFCE4FFEF25E02417F8E6FC39
:1015640008E64C600DEF25E02417F808E61618701D
:0A15740001160FEFB404E112145841
:0D157E00D007D006D004D000D0D0D0E0328D
:0300230002193C83
:06193C00309802C298324F
:011942002282
:10082500120F487801EFF27809E26F5FFE18F208BF
:10083500EFF2BE0D05A209B392097808E2FFB40EE6
:1008450005A20EB3920EEF14B40A00400302094C40
:1008550090086375F003A4C58325F0C5837302086A
:100865008F02089D0208AB0208B90208C70208D525
:100875000208E30208F10208FF0208817803E2FF9B
:1008850004F274272FF87430807C7803E2FF04F2B9
:1008950074272FF87431806E7803E2FF04F2742711
:1008A5002FF8743280607803E2FF04F274272FF882
:1008B500743380527803E2FF04F274272FF87434FE
:1008C50080447803E2FF04F274272FF874358036EC
:1008D5007803E2FF04F274272FF874368028780332
:1008E500E2FF04F274272FF87437801A7803E2FFC9
:1008F50004F274272FF87438800C7803E2FF04F2B1
:1009050074272FF87439F2782E74FFF2087400F208
:1009150008743EF27827E27831F27828E27832F2EC
:100925007829E27833F2782AE27834F27BFE7A008D
:10093500790C1205267BFE7A00790C78307408F262
:100945007D04E4FF1213EA7803E2D3940350030213
:100955000A68200B79782E20091874FEF2087400B5
:10096500F2087404F27BFE7A007927121610920DB4
:10097500801674FEF2087400F2087423F27BFE7A86
:10098500007927121610920A12191D782E74FFF29B
:10099500087400F208743EF27827E27831F278287C
:1009A500E27832F27829E27833F2782AE27834F282
:1009B5007BFE7A00790C1205267BFE7A00790C788D
:1009C500307408F27D04E4FF1213EA020A64782EFB
:1009D500200E2374FEF2087400F2087427F27BFEE1
:1009E5007A00790412164D7BFE7A007904782F740B
:1009F50004F2E4FD802174FEF2087400F208742705
:100A0500F27BFE7A00792312164D7BFE7A0079235C
:100A1500782F7404F27D081216BB12191D782E74F6
:100A2500FFF2087400F208743EF27827E27831F29A
:100A35007828E27832F27829E27833F2782AE27877
:100A450034F27BFE7A00790C1205267BFE7A00795A
:100A55000C78307408F27D04E4FF1213EAD20CE43A
:040A65007803F222FE
:100C9100782E74FFF2087400F208747BF27804E293
:100CA1007831F27805E27832F27806E27833F27838
:100CB10007E27834F27823E27835F27824E2783664
:100CC100F27825E27837F27826E27838F27BFE7AFC
:100CD10000790C1205267BFE7A00790C78307408B5
:100CE100F27D077F461213EA300B03020DAB782E1B
:100CF10074FF300D28F2087400F208748DF27BFE47
:100D01007A00790C1205267BFE7A00790C78307412
:100D110008F27D06E4FF1213EAC2868026F2087407
:100D210000F2087452F27BFE7A00790C1205267BE0
:100D3100FE7A00790C78307408F27D06E4FF121314
:100D4100EAD286200927782E74FFF2087400F2088F
:100D51007498F27BFE7A00790C1205267BFE7A00EC
:100D6100790C78307408F2E4FDFF0213EA782E74EE
:100D7100FFF2087400F20874A2F27BFE7A00790C8B
:100D81001205267BFE7A00790C78307408F2E4FDB6
:100D9100FF1213EA300A5C12176F1212CCC20DC295
:100DA10009C20AC20ED20BC20C22782E74FF200E89
:100DB1000AF2087400F20874AC8008F2087400F2B8
:100DC1000874BBF27BFE7A00790C1205267BFE7A51
:100DD10000790C78307408F2E4FDFF1213EA300C4C
:100DE1001212176F121212C20DC209C20AC20EC22A
:040DF1000BC20C2203
:10180300E4FFEF75F005A4240BF8E6FC08E6FDEF12
:0F18130025E02417F8A60408A6050FEFB403E399
:0118220022A3
:1014AE00E4782BF2782BE2FFC394035042EF25E051
:1014BE002417F8E6FE08E64E702E782BE2FF75F044
:1014CE0005A4240BF8E6FC08E6FDEF25E02417F84A
:1014DE00A60408A605782BE275F005A42408F808E2
:0F14EE00E6FA08E6F9120F03782BE204F280B554
:0114FD0022CC
:0300000002135E8A
:0C135E00787FE4F6D8FD7581260213A507
:100DF500BB010689828A83E0225002E722BBFE02FC
:090E0500E32289828A83E493222E
:100E0E00BB010CE58229F582E5833AF583E0225099
:100E1E0006E92582F8E622BBFE06E92582F8E222E3
:0D0E2E00E58229F582E5833AF583E49322FD
:100E3B00BB010689828A83F0225002F722BBFE0196
:020E4B00F32290
:100E4D00F8BB010DE58229F582E5833AF583E8F0DB
:100E5D00225006E92582C8F622BBFE05E92582C887
:020E6D00F2226F
:100E6F00EF8DF0A4A8F0CF8CF0A428CE8DF0A42E97
:020E7F00FE2251
:100E8100BC000BBE0029EF8DF084FFADF022E4CC55
:100E9100F875F008EF2FFFEE33FEEC33FCEE9DEC1E
:100EA100984005FCEE9DFE0FD5F0E9E4CEFD22ED64
:100EB100F8F5F0EE8420D21CFEADF075F008EF2FAE
:100EC100FFED33FD4007985006D5F0F222C398FD9F
:050ED1000FD5F0EA223C
:100ED600D083D082F8E4937012740193700DA3A3AB
:100EE60093F8740193F5828883E473740293B5F0E2
:0D0EF600067403936860E9A3A3A3A380D84A
:060F03008A838982E47379
:1004CA00E522242EF8E2052222782B300702782E24
:1004DA00E475F001120F09020DF52000EB7F2ED210
:1004EA00008018EF540F2490D43440D4FF30040B0A
:1004FA00EF24BFB41A0050032461FFE523600215FC
:10050A00230526E5267002052530070D782BE475AC
:10051A00F001120F09EF020E3B0217967403D2077D
:10052A008003E4C207F522782B120F19E4F523F5AC
:10053A0025F526E52360077F2012050580F5752439
:10054A00FFC201C200C202C203C205C206C2081229
:10055A0004D3FF700D3007057F00120516AF26AED3
:10056A002522B4255FC2D5C2041204D3FF24D0B415
:10057A000A00501A75F00A782330D50508B6FF012B
:10058A0006C6A426F620D5047002D20380D924CF49
:10059A00B41A00EF5004C2E5D204020715D2018052
:1005AA00C6D20080C0D20280BCD2D580BAD2058021
:1005BA00B47F201205052002077401B5230040F11B
:1005CA001204CAFF12050502053DD208D20680951B
:1005DA001204CAFB1204CAFA1204CAF94A4B700678
:1005EA0079E67A077BFF20022EE523602A7E008EB9
:1005FA0082758300120E0E60060EEE652470F0C23C
:10060A00D5EBC0E0EAC0E0E9C0E0EE12075CD0E05A
:10061A00F9D0E0FAD0E0FB120DF5FF60AAEBC0E0DA
:10062A00EAC0E0E9C0E0120505D0E02401F9D0E013
:10063A003400FAD0E0FBE5240460DCD524D98087B5
:10064A007BFF7A077958D202809C79108002790858
:10065A00C206C2088008D2D5790A8004790AC2D5AE
:10066A00E524047002F524E4FAFDFEFF1204CAFC34
:10067A007B082001131204CAFD7B1030000A120401
:10068A00CAFE1204CAFF7B20EC3382D592D55013DE
:10069A00C3E43000069FFFE49EFEE42001039DFDB3
:1006AA00E49CFCE4CBF8C201EC700CCFCECDCCE8D4
:1006BA0024F8F870F38017C3EF33FFEE33FEED33FF
:1006CA00FDEC33FCEB33FB994002FB0FD8E9EB302E
:1006DA000105F8D0E0C448B201C0E00AEC4D4E4F23
:1006EA0078207B0070C2EAB5240040BCC0E0120743
:1006FA005ED0F0D0E0200104C4C0E0C4B201C0F072
:10070A001204EED0F0D5F0EB02053D120F2205DA05
:10071A005306545805AB4C05A74206584F06604489
:10072A0006604905C043066655064A46064A450616
:01073A004A74
:10073B004708065005AF2D05B32E05D62B05B7235D
:10074B0005D42007EF2A056F48000005CE3F3F3F39
:10075B0000790AA2D5200314300509B9100204044C
:10076B00B9080104A2D520060250010420026892A8
:10077B0002B523005034C0E07F203003197F30A234
:10078B000272067205500F1207B5C202C206C205ED
:10079B00C2087F30800F300503E9C0E01205053039
:1007AB000503D0E0F9D0E0B523CC3005177F30B985
:1007BB00100C1205057F583004077F788003B908A9
:1007CB00031205053002057F2D0205057F20200849
:1007DB00F87F2B2006F322920280CF286E756C6C6B
:1007EB002900D2011204CA3001F8C201782330D596
:1007FB000108F602056F2D504349581204CA240311
:10080B00B405004001E4900801931204F6743A1207
:0A081B0004F6D2037523040206540C
:10136A000214FEE493A3F8E493A34003F68001F287
:10137A0008DFF48029E493A3F85407240CC8C33384
:10138A00C4540F4420C8834004F456800146F6DF53
:10139A00E4800B01020408102040809015CFE47EFF
:1013AA00019360BCA3FF543F30E509541FFEE49348
:1013BA00A360010ECF54C025E060A840B8E493A30F
:1013CA00FAE493A3F8E493A3C8C582C8CAC583CA3A
:1013DA00F0A3C8C582C8CAC583CADFE9DEE780BEF2
:01160F0000DA
:100F0900FAE2FB0808E2F925F0F218E2CA3AF222FD
:090F1900EBF208EAF208E9F22209
:100F2200D083D082F8E4937012740193700DA3A35E
:100F320093F8740193F5828883E473740293686072
:060F4200EFA3A3A380DF72
:10179600EFB40A07740D1217A1740A309811A899AC
:1017A600B8130CC2983098FDA899C298B811F630B3
:0717B60099FDC299F599228B
:00000001FF
