:100F5100C293D292D291D290E580540F7E00D29367
:100F6100C292D291D290C4F8540FC868FFEEC45413
:100F7100F048FEE580540FFDEF4DD293D292C2911D
:100F8100D290C4F8540FC868FFEEC454F048FEE58F
:100F910080540FFDEF4DD293D292D291C290C4F8FA
:100FA100540FC868FFEEC454F048FEE580540FFDAD
:100FB100EF4DF4FFEEF4FEEF8EF0120EDF106B003A
:100FC1000110640002105D000410560008104F006B
:100FD100101048002010410040103A0080103301E9
:100FE10000102C020010250400101E08001017101C
:100FF10000101020001009400010028000000010B5
:10100100727827740DF2806D78277409F280667802
:10101100277405F2805F78277401F280587827746D
:101021000EF280517827740AF2804A78277406F20A
:10103100804378277402F2803C7827740FF2803560
:101041007827740BF2802E78277407F2802778278F
:101051007403F2802078277410F280197827740CB9
:10106100F2801278277408F2800B78277404F280DA
:0910710004E47827F27827E2FF7D
:01107A002253
:100A69000000000000000000002F00000000070047
:100A7900070000147F147F1400242A7F2A120062C1
:100A8900640813230036495522500000050300006D
:100A990000001C224100000041221C000014083EF5
:100AA90008140008083E0808000000A060000008BB
:100AB900080808080000606000000020100804020F
:100AC900003E5149453E0000427F400000426151CD
:100AD9004946002141454B31001814127F10002767
:100AE90045454539003C4A4949300001710905032A
:100AF90000364949493600064949291E000036365B
:100B090000000000563600000008142241000014BD
:100B1900141414140000412214080002015109069A
:100B290000324959513E007C1211127C007F49491B
:100B39004936003E41414122007F4141221C007F4C
:100B490049494941007F09090901003E4149497A5A
:100B5900007F0808087F0000417F410000204041D4
:100B69003F01007F08142241007F40404040007F40
:100B7900020C027F007F0408107F003E4141413E84
:100B8900007F09090906003E4151215E007F0919CC
:100B990029460046494949310001017F0101003FC9
:100BA9004040403F001F2040201F003F4038403F49
:100BB90000631408146300070870080700615149AD
:100BC900454300007F41410000552A552A55000040
:100BD90041417F00000402010204004040404040BE
:100BE900000001020400002054545478007F484456
:100BF900443800384444442000384444487F00388D
:100C09005454541800087E0901020018A4A4A47CB5
:100C1900007F080404780000447D4000004080847F
:100C29007D00007F102844000000417F4000007CC7
:100C390004180478007C08040478003844444438D3
:100C490000FC242424180018242418FC007C08041F
:100C5900040800485454542000043F444020003CF8
:100C69004040207C001C2040201C003C4030403C7F
:100C7900004428102844001CA0A0A07C004464540F
:080C89004C441414141414145B
:0C18A100751A02751BEFD51BFDD51AFA55
:0118AD002218
:10185600EF1FAC0670011E4C60051218A180F12224
:1017DE007827EFF27006FD7FA61215FD7827E2B48A
:0A17EE000107E4FD7FA71215FD229C
:1016E4007827EFF2700DFD7FC81215FDE4FD7FA190
:1016F4001215FD7827E2B4010EE4FD7FC01215FD3A
:08170400E4FD7FA01215FD2297
:0818D0007F01AE071FEE70FA64
:0118D80022ED
:0F186600D2A0D2A11218D0C2A01218D0C2A122B3
:0A18C600C2A0D2A11218D0D2A022B5
:0F187500D2A01218D0D2A11218D0C2A10218D03E
:02175A00AD07D9
:10175C00E4FCC2A1ED30E704D2A08002C2A01218B2
:10176C00D0D2A11218D0C2A1ED25E0FD0CECB4082A
:01177C00E18B
:01177D002249
:0D15F0001215FDE4FDFF1215FDE4FD7F1056
:1015FD00AB05AA071218667F7812175A121875EBE9
:10160D0060047F408002E4FF12175A121875AF0272
:09161D0012175A1218750218C6C2
:10177E00A907ED24B0FFE4FD1215FDE954F0C454A1
:10178E000F4410FFE4FD1215FDE9540FFFE4FD02B6
:02179E0015FD37
:10000E00E4FD7F8D1215FDE4FD7F141215FDE4FD58
:05001E007FAF0215FD9B
:0E189300E4FD7F8D1215F6E4FD7FAE0215FD1B
:10170C00E4F9E924B0FFE4FD1215F0E47827F27D4A
:10171C0001E4FF1215FD7827E204F2E2C394804045
:06172C00EE09E9B408DC3F
:011732002294
:07107B00782EEFF208EDF200
:10108200E47832F218E2FFC313FD7833F2E408F297
:1010920008F2EFB4080908E4F2087406F2802F7827
:1010A20031E2FF131313541FF582758300EF5407C7
:1010B2007E0060047F0180027F00EF2582FFEE3513
:1010C20083FE7C00120E787836EEF208EFF2EB2403
:1010D200E07832F2782EE2FF08E2FD12177EE47821
:1010E20034F208F27836E2FC08E2FD7834E2FE08D7
:1010F200E2FFC39DEE9C505D7833E2FD7C00120E50
:101102008AED4C70137831E26408600C782EE2FFAD
:1011120008E2FD04F212177E7831E2B4083778341F
:10112200E2FE08E2FF7832E275F006A42469F58255
:10113200E5F0340AF583E5822FF582E5833EF583F7
:10114200E493FF7D011215FD7835E22401F218E2E5
:051152003400F2808F63
:011157002275
:1013F3007827EFF208EDF208EBF208EAF208E9F2D7
:10140300E4782DF27829E2FB08E2FA08E2F9782D74
:10141300E2F582758300120E1760427827E2FF0817
:10142300E2FD08E2FB08E2FA08E2F9782DE2FE04A5
:10143300F28E82758300120E17FB782CE27831F25C
:1014430012107B782CE2FFB408087827E22406F216
:0D14530080B2EFC313FF7827E22FF280A7CD
:011460002269
:10115800C2927FC87E00121856D292E4FD7FAE126A
:1011680015F0E4FD7F401215FDE4FD7F811215FDA9
:10117800E4FD7FCF1215FDE4FD7FA11215FDE4FD0E
:101188007FC81215FDE4FD7FA61215FDE4FD7FA8BA
:101198001215FDE4FD7F3F1215FDE4FD7FD3121506
:1011A800FDE4FDFF1215FDE4FD7FD51215FDE4FDFC
:1011B8007F801215FDE4FD7FD91215FDE4FD7FF156
:1011C8001215FDE4FD7FDA1215FDE4FD7F121215FC
:1011D800FDE4FD7FDB1215FDE4FD7F401215FDE403
:1011E800FD7F201215FDE4FD7F021215FDE4FD7F51
:1011F8008D1215FDE4FD7F141215FDE4FD7FA41288
:1012080015FDE4FD7FA61215FD12170CE4FD7FAF56
:031218000215FDBF
:0417F800D2A77F05F0
:1017FC00000000000000000000000000000000AE2F
:06180C00071FEE70EB2245
:0F188400D2A61217F8C2A67F051217FCC2A72220
:0C18AE00C2A61217F8D2A67F050217FC94
:02168B00AD07A9
:10168D00E4FCC2A77F051217FCED30E704D2A6805B
:10169D0002C2A67F051217FCD2A7ED25E0FD7F053E
:0A16AD001217FC0CECB408DAC2A717
:0116B7002210
:1017C000E4FC1217F8ED25E0FD30A6034401FDC24C
:0D17D000A77F051217FC0CECB408E7AF056D
:0117DD0022E9
:1016B800EBF208EAF208E9F2AB051218847FA012EF
:0A16C800168B1216D2AF0312168B18
:1016D2001217F8A2A6E433FDC2A77F051217FCAFCA
:0116E2000502
:0116E30022E4
:10182B00C2A7EF24FF92A67F051217FC1217F8C26E
:08183B00A7D2A67F050217FCED
:1016260078271216B8782BE2FF14F2EF602278279B
:10163600E2FB0808E2F92401F218E2FA3400F21299
:101646000DFEFF12168B1216D27FC81217FC80D51C
:031656000218AEC9
:1014F80078271216B81218847FA112168B1216D2EA
:10150800782BE2FF14F2EF60281217C07827E2FB6D
:101518000808E2F92401F218E2FA3400F2EF120E98
:1015280044782BE26004E4FF80027F0112182B80CC
:04153800CF0218AE18
:1018120053877F75985053890F438920758BFD75C7
:091822008DFDC2ABD28ED2AC22C6
:080003008F993099FDC299228A
:101843005389F0438901758A66758CFCC28DD28CED
:03185300D2A922F5
:10002600757365722D494400456E74657220506182
:100036007373776F72643A00202020202025632096
:10004600202563202025632020256300646F6F72BE
:1000560020636C6F7365006368616E67653A20752F
:10006600736572004368616E6765205061737377CC
:100076006F72643A0025632563256325632D256326
:1000860025632563256300646F6F72206F70656E4C
:100096002000757365722D49442020006D617374CC
:1000A60065722D4944006368616E67653A20757311
:1000B60065722020006368616E67653A206D617322
:1000C600746572000003050911FF118905C300E07C
:1000D60000F000F8000000000000004428FF11AA0C
:1000E60044000000000000000000000000000000C6
:1000F60000000000000000000000000000000000FA
:1001060000000000000000000000000000000000E9
:100116000000000000000000000000000000830155
:100126003844829292740183000000000000007C33
:1001360044FF017D7D7D017D7D7D7D017D7D7D7D14
:100146007D01FF0000000000000100010001000128
:100156000001000100000000000000000001010095
:100166000000000000000000000000000000000089
:100176000000000000000000000000000000000079
:100186000000000000000000000000000000000069
:100196000000000000000000000000000000010157
:1001A6000000000000000101000000000000000047
:1001B600000101010101010101010101010101012A
:1001C6000101010000000000000000000000000026
:1001D6000000000000000000000000000000000019
:1001E6003F3F0303F31311111111111101F11161B5
:1001F60081010101816111F1010101014141F10119
:1002060001010101C1211111111121C101010101D8
:100216004141F10101010101010101010111111128
:100226001111D33303033F3F00000000000000001C
:1002360000000000000000000000000000000000B8
:1002460000000000000000000000000000000000A8
:100256000000000000000000000000000000000098
:10026600E0E000007F01010101010100007F0000C4
:10027600010618060100007F0000000040407F4094
:10028600400000001F2040404040201F00000000AA
:1002960040407F4040000000006000000000403009
:1002A6000C0300000000E0E0000000000000000079
:1002B6000000000000000000000000000000000038
:1002C6000000000000000000000000000000000028
:1002D6000000000000000000000000000000000018
:1002E60007070606060604040484444444840404FA
:1002F600844444448404040484C4040404048444F8
:1003060044448404040404048444444484040404E7
:100316000404844444448404048444444484040417
:100326000404060606060707000000000000000099
:1003360000000000000000000000000000000000B7
:1003460000000000000000000000000000000000A7
:100356000000000000000000000000000000000097
:100366000000000000000000001018141211000028
:100376000F1010100F000000101F100000000810D2
:1003860012120D00001800000D1212120D000018B6
:100396000000101814121100001018141211000099
:1003A6000000000000000000000000000000000047
:1003B6000000000000000000000000000000000037
:1003C6000000000000000000000000000000000027
:1003D6000000000000000000000000000000000017
:1003E6000000000000000000000000000000000007
:1003F60000000000000000000000000000000000F7
:1004060080808080808080800000000000000000E6
:1004160000000000000000000000000000000000D6
:1004260000000000000000000000000000000000C6
:1004360000000000000000000000000000000000B6
:1004460000000000007F030C300C037F00003854CE
:10045600545800007C04047800003C40407C0000B6
:100466000000000000000000000000000000000086
:100476000000000000000000000000000000000076
:10048600FFAAAAAA280800FF00000000000000003A
:100496000000000000000000000000000000000056
:1004A600000000000000000000000000007F030CB8
:1004B600300C037F0000264949493200007F0204C0
:0404C60008107F009B
:101659000A08FF0825000AFF0C9103E88209000027
:1016690084235F5F5F5F840331323334841F3433F3
:101679003231810200C10DC109C10AC10EC10BC1BC
:011689000C54
:1014B1001217A0121158E4FF1217DEE4FF1216E40E
:1014C10012121B7BFE7A007903782B7404F2E4FD7F
:1014D1001214F87F147E001218567BFE7A00791FD1
:1014E100782B7404F27D081214F8121843121812A2
:0714F100D2AF12146180FB71
:10121B00782A74FFF2087400F2087426F27BFE7AC7
:10122B0000790B1205267BFE7A00790B782C74085B
:10123B00F2E4FDFF1213F3782A74FFF2087400F244
:10124B0008742EF27BFE7A00790B1205267BFE7A50
:10125B0000790B782C7408F27D02E4FF1213F31261
:10126B0018BA782A74FFF2087400F208743EF27808
:10127B0023E2782DF27824E2782EF27825E2782F8B
:10128B00F27826E27830F27BFE7A00790B12052693
:10129B007BFE7A00790B782C7408F27D04E4FF1244
:1012AB0013F3782A74FFF2087400F2087452F27B7D
:1012BB00FE7A00790B1205267BFE7A00790B782CCF
:0A12CB007408F27D06E4FF0213F33D
:1012D500782A74FFF2087400F208745DF27BFE7AD6
:1012E50000790B1205267BFE7A00790B782C7408A1
:1012F500F2E4FDFF1213F3782A74FFF2087400F28A
:1013050008746AF27BFE7A00790B1205267BFE7A59
:1013150000790B782C7408F27D02E4FF1213F312A6
:1013250018BA782A74FFF2087400F208743EF2784D
:1013350023E2782DF27824E2782EF27825E2782FD0
:10134500F27826E27830F27BFE7A00790B120526D8
:101355007BFE7A00790B782C7408F27D04E4FF0299
:0213650013F380
:0C18BA007823745FF208F208F208F222B2
:0A157B007827EBF208EAF208E9F223
:10158500E4FF782AE2FB08E2FA08E2F98F82758324
:1015950000120E17FE7827E2FB08E2FA08E2F98F3F
:1015A50082758300120E176E6002C3220FEFB4041A
:0215B500D1D390
:0115B7002211
:0A15B8007827EBF208EAF208E9F2E6
:1015C200E4FF782AE2FB08E2FA08E2F98F827583E7
:1015D20000120E17FE7827E2FB08E2FA08E2F98F02
:0D15E20082758300EE120E560FEFB404D593
:0115EF0022D9
:03000B0002153C9F
:0D153C00C0E0C0D075D000C000C004C007E2
:10154900758A66758CFCE4FFEF25E02412F8E6FC49
:1015590008E64C600DEF25E02412F808E61618702D
:0715690001160FEFB404E1CD
:0B157000D007D004D000D0D0D0E03273
:030023000218D9E7
:0618D900309802C29832B3
:0118DF0022E6
:10082500120F517800EFF27808E26F5FFE18F208B8
:10083500EFF2BE0D05A209B392097807E2FFB40EE7
:1008450005A20EB3920EEF14B40A00400302094C40
:1008550090086375F003A4C58325F0C5837302086A
:100865008F02089D0208AB0208B90208C70208D525
:100875000208E30208F10208FF0208817802E2FF9C
:1008850004F274232FF87430807C7802E2FF04F2BE
:1008950074232FF87431806E7802E2FF04F274231A
:1008A5002FF8743280607802E2FF04F274232FF887
:1008B500743380527802E2FF04F274232FF8743403
:1008C50080447802E2FF04F274232FF874358036F1
:1008D5007802E2FF04F274232FF874368028780238
:1008E500E2FF04F274232FF87437801A7802E2FFCE
:1008F50004F274232FF87438800C7802E2FF04F2B6
:1009050074232FF87439F2782A74FFF2087400F210
:1009150008743EF27823E2782DF27824E2782EF2FC
:100925007825E2782FF27826E27830F27BFE7A009D
:10093500790B1205267BFE7A00790B782C7408F268
:100945007D04E4FF1213F37802E2D394035003020B
:100955000A68200B79782A20091874FEF2087400B9
:10096500F2087403F27BFE7A00792312157B920D4F
:10097500801674FEF2087400F208741FF27BFE7A8A
:1009850000792312157B920A1218BA782A74FFF29D
:10099500087400F208743EF27823E2782DF2782488
:1009A500E2782EF27825E2782FF27826E27830F296
:1009B5007BFE7A00790B1205267BFE7A00790B788F
:1009C5002C7408F27D04E4FF1213F3020A64782AFA
:1009D500200E2374FEF2087400F2087423F27BFEE5
:1009E5007A0079031215B87BFE7A007903782B74A7
:1009F50004F2E4FD802174FEF2087400F208742309
:100A0500F27BFE7A00791F1215B87BFE7A00791FFA
:100A1500782B7404F27D081216261218BA782A74F7
:100A2500FFF2087400F208743EF27823E2782DF2A2
:100A35007824E2782EF27825E2782FF27826E2788B
:100A450030F27BFE7A00790B1205267BFE7A00795F
:100A55000B782C7408F27D04E4FF1213F3D20CE436
:040A65007802F222FF
:100C9100782A74FFF2087400F208747BF27803E298
:100CA100782DF27804E2782EF27805E2782FF27846
:100CB10006E27830F2781FE27831F27820E2783279
:100CC100F27821E27833F27822E27834F27BFE7A0C
:100CD10000790B1205267BFE7A00790B782C7408BB
:100CE100F27D077F461213F3300B03020DB4782A0D
:100CF10074FF300D31F2087400F208748DF27BFE3E
:100D01007A00790B1205267BFE7A00790B782C7418
:100D110008F27D06E4FF1213F3C2877FE87E031217
:100D21001856C20D8026F2087400F2087452F27B44
:100D3100FE7A00790B1205267BFE7A00790B782C5E
:100D41007408F27D06E4FF1213F3D2872009277895
:100D51002A74FFF2087400F2087498F27BFE7A009C
:100D6100790B1205267BFE7A00790B782C7408F238
:100D7100E4FDFF0213F3782A74FFF2087400F2080D
:100D810074A2F27BFE7A00790B1205267BFE7A00B3
:100D9100790B782C7408F2E4FDFF1213F3300A5C2E
:100DA10012170C1212D5C20DC209C20AC20ED20B01
:100DB100C20C22782A74FF200E0AF2087400F2088D
:100DC10074AC8008F2087400F20874BBF27BFE7AFE
:100DD10000790B1205267BFE7A00790B782C7408BA
:100DE100F2E4FDFF1213F3300C1212170C12121B56
:0D0DF100C20DC209C20AC20EC20BC20C2202
:1017A000E4FFEF75F005A4240BF8E6FC08E6FDEF76
:0F17B00025E02412F8A60408A6050FEFB402E303
:0117BF002207
:10146100E47827F27827E2FFC394025042EF25E0A7
:101471002412F8E6FE08E64E702E7827E2FF75F09A
:1014810005A4240BF8E6FC08E6FDEF25E02412F89C
:10149100A60408A6057827E275F005A42408F80833
:0F14A100E6FA08E6F9120F0C7827E204F280B59C
:0114B0002219
:0300000002136781
:0C136700787FE4F6D8FD7581210213AEFA
:100DFE00BB010689828A83E0225002E722BBFE02F3
:090E0E00E32289828A83E4932225
:100E1700BB010CE58229F582E5833AF583E0225090
:100E270006E92582F8E622BBFE06E92582F8E222DA
:0D0E3700E58229F582E5833AF583E49322F4
:100E4400BB010689828A83F0225002F722BBFE018D
:020E5400F32287
:100E5600F8BB010DE58229F582E5833AF583E8F0D2
:100E6600225006E92582C8F622BBFE05E92582C87E
:020E7600F22266
:100E7800EF8DF0A4A8F0CF8CF0A428CE8DF0A42E8E
:020E8800FE2248
:100E8A00BC000BBE0029EF8DF084FFADF022E4CC4C
:100E9A00F875F008EF2FFFEE33FEEC33FCEE9DEC15
:100EAA00984005FCEE9DFE0FD5F0E9E4CEFD22ED5B
:100EBA00F8F5F0EE8420D21CFEADF075F008EF2FA5
:100ECA00FFED33FD4007985006D5F0F222C398FD96
:050EDA000FD5F0EA2233
:100EDF00D083D082F8E4937012740193700DA3A3A2
:100EEF0093F8740193F5828883E473740293B5F0D9
:0D0EFF00067403936860E9A3A3A3A380D841
:060F0C008A838982E47370
:1004CA00E51A242AF8E2051A227827300702782A40
:1004DA00E475F001120F12020DFE2000EB7F2ED2FE
:1004EA00008018EF540F2490D43440D4FF30040B0A
:1004FA00EF24BFB41A0050032461FFE51B60021504
:10050A001B051EE51E7002051D30070D7827E475D0
:10051A00F001120F12EF020E440217337403D207CE
:10052A008003E4C207F51A7827120F22E4F51BF5B7
:10053A001DF51EE51B60077F2012050580F5751C59
:10054A00FFC201C200C202C203C205C206C2081229
:10055A0004D3FF700D3007057F00120516AF1EAEDB
:10056A001D22B4255FC2D5C2041204D3FF24D0B41D
:10057A000A00501A75F00A781B30D50508B6FF0133
:10058A0006C6A426F620D5047002D20380D924CF49
:10059A00B41A00EF5004C2E5D204020715D2018052
:1005AA00C6D20080C0D20280BCD2D580BAD2058021
:1005BA00B47F201205052002077401B51B0040F123
:1005CA001204CAFF12050502053DD208D20680951B
:1005DA001204CAFB1204CAFA1204CAF94A4B700678
:1005EA0079E67A077BFF20022EE51B602A7E008EC1
:1005FA0082758300120E1760060EEE651C70F0C23B
:10060A00D5EBC0E0EAC0E0E9C0E0EE12075CD0E05A
:10061A00F9D0E0FAD0E0FB120DFEFF60AAEBC0E0D1
:10062A00EAC0E0E9C0E0120505D0E02401F9D0E013
:10063A003400FAD0E0FBE51C0460DCD51CD98087C5
:10064A007BFF7A077958D202809C79108002790858
:10065A00C206C2088008D2D5790A8004790AC2D5AE
:10066A00E51C047002F51CE4FAFDFEFF1204CAFC44
:10067A007B082001131204CAFD7B1030000A120401
:10068A00CAFE1204CAFF7B20EC3382D592D55013DE
:10069A00C3E43000069FFFE49EFEE42001039DFDB3
:1006AA00E49CFCE4CBF8C201EC700CCFCECDCCE8D4
:1006BA0024F8F870F38017C3EF33FFEE33FEED33FF
:1006CA00FDEC33FCEB33FB994002FB0FD8E9EB302E
:1006DA000105F8D0E0C448B201C0E00AEC4D4E4F23
:1006EA0078207B0070C2EAB51C0040BCC0E012074B
:1006FA005ED0F0D0E0200104C4C0E0C4B201C0F072
:10070A001204EED0F0D5F0EB02053D120F2B05DAFC
:10071A005306545805AB4C05A74206584F06604489
:10072A0006604905C043066655064A46064A450616
:01073A004A74
:10073B004708065005AF2D05B32E05D62B05B7235D
:10074B0005D42007EF2A056F48000005CE3F3F3F39
:10075B0000790AA2D5200314300509B9100204044C
:10076B00B9080104A2D520060250010420026892A8
:10077B0002B51B005034C0E07F203003197F30A23C
:10078B000272067205500F1207B5C202C206C205ED
:10079B00C2087F30800F300503E9C0E01205053039
:1007AB000503D0E0F9D0E0B51BCC3005177F30B98D
:1007BB00100C1205057F583004077F788003B908A9
:1007CB00031205053002057F2D0205057F20200849
:1007DB00F87F2B2006F322920280CF286E756C6C6B
:1007EB002900D2011204CA3001F8C201781B30D59E
:1007FB000108F602056F2D504349581204CA240311
:10080B00B405004001E4900801931204F6743A1207
:0A081B0004F6D203751B0402065414
:101373000214B1E493A3F8E493A34003F68001F2CB
:1013830008DFF48029E493A3F85407240CC8C3337B
:10139300C4540F4420C8834004F456800146F6DF4A
:1013A300E4800B0102040810204080901659E47E6B
:1013B300019360BCA3FF543F30E509541FFEE4933F
:1013C300A360010ECF54C025E060A840B8E493A306
:1013D300FAE493A3F8E493A3C8C582C8CAC583CA31
:1013E300F0A3C8C582C8CAC583CADFE9DEE780BEE9
:01168A00005F
:100F1200FAE2FB0808E2F925F0F218E2CA3AF222F4
:090F2200EBF208EAF208E9F22200
:100F2B00D083D082F8E4937012740193700DA3A355
:100F3B0093F8740193F5828883E473740293686069
:060F4B00EFA3A3A380DF69
:10173300EFB40A07740D12173E740A309811A89972
:10174300B8130CC2983098FDA899C298B811F63016
:0717530099FDC299F59922EE
:00000001FF
