:101DD20020B3047F04801720B2047F05801020B155
:0E1DE200047F06800920B0047F078002E4FF22
:011DF00022D0
:10134C00C293D292D291D290E580540F7E00D29368
:10135C00C292D291D290C4F8540FC868FFEEC45414
:10136C00F048FEE580540FFDEF4DD293D292C2911E
:10137C00D290C4F8540FC868FFEEC454F048FEE590
:10138C0080540FFDEF4DD293D292D291C290C4F8FB
:10139C00540FC868FFEEC454F048FEE580540FFDAE
:1013AC00EF4DF4FFEEF4FEEF8EF012115F146600B9
:1013BC0001145F00021458000414510008144A0070
:1013CC001014430020143C004014350080142E01EE
:1013DC000014270200142004001419080014121021
:1013EC0000140B20001404400013FD8000000014B6
:1013FC006D7881740DF2806D78817409F280667855
:10140C00817405F2805F78817401F2805878817460
:10141C000EF280517881740AF2804A78817406F257
:10142C00804378817402F2803C7881740FF28035AD
:10143C007881740BF2802E78817407F28027788182
:10144C007403F2802078817410F280197881740C06
:10145C00F2801278817408F2800B78817404F28027
:09146C0004E47881F27881E2FFCA
:011475002254
:031F65008F802248
:100026000000000000000000002F00000000070094
:10003600070000147F147F1400242A7F2A1200620E
:1000460064081323003649552250000005030000BA
:1000560000001C224100000041221C000014083E42
:1000660008140008083E0808000000A06000000808
:10007600080808080000606000000020100804025C
:10008600003E5149453E0000427F4000004261511A
:100096004946002141454B31001814127F100027B4
:1000A60045454539003C4A49493000017109050377
:1000B60000364949493600064949291E00003636A8
:1000C600000000005636000000081422410000140B
:1000D60014141414000041221408000201510906E8
:1000E60000324959513E007C1211127C007F494969
:1000F6004936003E41414122007F4141221C007F9A
:1001060049494941007F09090901003E4149497AA7
:10011600007F0808087F0000417F41000020404121
:100126003F01007F08142241007F40404040007F8D
:10013600020C027F007F0408107F003E4141413ED1
:10014600007F09090906003E4151215E007F091919
:1001560029460046494949310001017F0101003F16
:100166004040403F001F2040201F003F4038403F96
:1001760000631408146300070870080700615149FA
:10018600454300007F41410000552A552A5500008D
:1001960041417F000004020102040040404040400B
:1001A600000001020400002054545478007F4844A3
:1001B600443800384444442000384444487F0038DA
:1001C6005454541800087E0901020018A4A4A47C03
:1001D600007F080404780000447D400000408084CD
:1001E6007D00007F102844000000417F4000007C15
:1001F60004180478007C0804047800384444443821
:1002060000FC242424180018242418FC007C08046C
:10021600040800485454542000043F444020003C45
:100226004040207C001C2040201C003C4030403CCC
:10023600004428102844001CA0A0A07C004464545C
:100246004C441414141414140000000000000000A0
:100256000000000000000000000000F800000000A0
:10026600000000333000000000100C06100C0600E1
:10027600000000000000000040C07840C078400048
:10028600043F04043F040400007088FC08300000AA
:10029600001820FF211E0000F008F000E018000002
:1002A60000211C031E211E0000F0088870000000BB
:1002B6001E2123241927211010160E00000000000D
:1002C6000000000000000000000000E0180402002A
:1002D600000000071820400000020418E00000009B
:1002E6000040201807000000404080F08040400099
:1002F6000202010F01020200000000F000000000EF
:100306000101011F010101000000000000000000C2
:1003160080B0700000000000000000000000000037
:1003260000010101010101010000000000000000C0
:10033600003030000000000000000000806018045B
:10034600006018060100000000E010080810E00038
:10035600000F102020100F00001010F80000000001
:100366000020203F20200000007008080888700048
:1003760000302824222130000030088888483000C8
:100386000018202020110E000000C02010F80000E8
:1003960000070424243F240000F808888808080081
:1003A6000019212020110E0000E010888818000096
:1003B600000F112020110E0000380808C838080068
:1003C6000000003F000000000070880808887000E8
:1003D600001C222121221C0000E010080810E00069
:1003E6000000312222110F00000000C0C0000000F2
:1003F6000000003030000000000000800000000017
:10040600000080600000000000008040201008000E
:1004160000010204081020004040404040404000D7
:1004260004040404040404000008102040800000B2
:100436000020100804020100007048080808F000B7
:100446000000003036010000C030C828E810E00087
:100456000718272423140B000000C038E000000012
:10046600203C23020227382008F88888887000007C
:10047600203F202020110E00C03008080808380050
:10048600071820202010080008F808080810E000C7
:10049600203F202020100F0008F88888E808100068
:1004A600203F20202320180008F88888E80810003C
:1004B600203F200003000000C03008080838000074
:1004C60007182020221E020008F808000008F80875
:1004D600203F210101213F20000808F808080000FC
:1004E6000020203F2020000000000808F80808002F
:1004F600C08080807F00000008F888C028180800A7
:10050600203F20012638200008F8080000000000DF
:10051600203F20202020300008F8F800F8F80800D6
:10052600203F003F003F200008F830C00008F808D0
:10053600203F200007183F00E01008080810E000E0
:100546000F10202020100F0008F808080808F000F7
:10055600203F210101010000E01008080810E0001A
:100566000F18242438504F0008F8888888887000AF
:10057600203F2000030C302000708808080838004F
:100586000038202121221C00180808F80808180045
:100596000000203F2000000008F808000008F808C6
:1005A600001F202020201F000878880000C8380877
:1005B600000007380E010000F80800F80008F800EF
:1005C600033C0700073C0300081868808068180889
:1005D60020302C03032C30200838C800C838080007
:1005E6000000203F2000000010080808C838080056
:1005F6002038262120201800000000FE02020200FA
:100606000000007F40404000000C30C000000000A9
:10061600000000010638C00000020202FE000000D1
:10062600004040407F000000000004020202040077
:1006360000000000000000000000000000000000B4
:10064600808080808080808000020204000000009C
:100656000000000000000000000080808080000094
:100666000019242222223F2008F800808000000082
:10067600003F112020110E00000000808080000045
:10068600000E112020201100000000808088F80054
:10069600000E112020103F20000080808080000086
:1006A600001F222222221300008080F088888818EA
:1006B6000020203F202000000000808080808000F5
:1006C600006B94949493600008F80080808000008A
:1006D600203F210000203F20008098980000000065
:1006E6000020203F20200000000000809898000095
:1006F60000C08080807F000008F8000080808000B5
:10070600203F24022D302000000808F800000000D9
:100716000020203F20200000808080808080800094
:10072600203F20003F20003F808000808080000026
:10073600203F210000203F200000808080800000B4
:10074600001F202020201F008080008080000000E5
:1007560080FFA12020110E00000000808080800014
:10076600000E112020A0FF80808080008080800005
:1007760020203F2120000100000080808080800032
:100786000033242424241900008080E080800000A7
:100796000000001F202000008080000000808000F4
:1007A600001F202020103F20808080000080808055
:1007B60000010E30080601008080008000808080E5
:1007C6000F300C030C300F0000808000808080000A
:1007D6000020312E0E312000808080000080808035
:1007E60080818E70180601000080808080808000E5
:1007F6000021302C2221300000000000807C020203
:1008060000000000003F404000000000FF00000024
:1008160000000000FF0000000002027C80000000D3
:100826000040403F000000000006010102020404EF
:1008360000000000000000000000F010101010FF83
:1008460010101010F000000000000F04040404FF54
:10085600040404040F0000004040405F55555575E0
:100866005555555F404040000040200F09498979A1
:100876000909090F2040000000FE02424ACA4A4AFE
:10088600CA4A4A4202FE000000FF40504C43404024
:100896004F50505C40FF00000000F888888888FFB1
:1008A60088888888F800000000001F080808087F6C
:1008B600888888889F80F00080828282828282E295
:1008C600A2928A8682808000000000000040807F1D
:1008D6000000000000000000101010FF10900888B3
:1008E6008888FF88888808000444827F01808040C9
:1008F600432C1028468180000010101010D030FFC5
:1009060030D0121C1010000010080402010000FF75
:080916000000010204081000BA
:0C1F1B007508027509EFD509FDD508FA1C
:011F27002297
:101ED000EF1FAC0670011E4C6005121F1B80F12223
:101E2B007881EFF27006FD7FA6121BB87881E2B4C1
:0A1E3B000107E4FD7FA7121BB82287
:101D1E007881EFF2700DFD7FC8121BB8E4FD7FA134
:101D2E00121BB87881E2B4010EE4FD7FC0121BB81D
:081D3E00E4FD7FA0121BB82296
:081F56007F01AE071FEE70FAD7
:011F5E002260
:0F1EE000D2A0D2A1121F56C2A0121F56C2A12219
:0A1F4C00C2A0D2A1121F56D2A0229B
:0F1EEF00D2A0121F56D2A1121F56C2A1021F5617
:021D6D00AD07C0
:101D6F00E4FCC2A1ED30E704D2A08002C2A0121F92
:101D7F0056D2A1121F56C2A1ED25E0FD0CECB408FE
:011D8F00E172
:011D90002230
:0D1BAB00121BB8E4FDFF121BB8E4FD7F1013
:101BB800AB05AA07121EE07F78121D6D121EEFEB0F
:101BC80060047F408002E4FF121D6D121EEFAF0219
:091BD800121D6D121EEF021F4CDC
:071CCC00E2FF08E2FD04F253
:101CD300A907ED24B0FFE4FD121BB8E954F0C45486
:101CE3000F4410FFE4FD121BB8E9540FFFE4FD029B
:021CF3001BB81C
:10000E00E4FD7F8D121BB8E4FD7F14121BB8E4FDD6
:05001E007FAF021BB8DA
:0E1F0D00E4FD7F8D121BB1E4FD7FAE021BB818
:101D4600E4F9E924B0FFE4FD121BABE47881F27DEF
:101D560001E4FF121BB87881E204F2E2C3948040EA
:061D6600EE09E9B408DCFF
:011D6C002254
:071476007895EFF208EDF29A
:10147D00E47899F218E2FFC313FD789AF2E408F2CA
:10148D0008F2EFB4080908E4F2087406F2802F7828
:10149D0098E2FF131313541FF582758300EF540761
:1014AD007E0060047F0180027F00EF2582FFEE3514
:1014BD0083FE7C0012109D789DEEF208EFF2EB2476
:1014CD00E07899F27895E2FF08E2FD121CD3E478FA
:1014DD009BF208F2789DE2FC08E2FD789BE2FE08A3
:1014ED00E2FFC39DEE9C5074789AE2FD7C001210D1
:1014FD00AFED4C700C7898E2640860057895121C7D
:10150D00CC7898E2F9B40818789BE2FE08E2FF78EF
:10151D0099E275F006A42426F582E5F03400801AD0
:10152D00E9B41038789BE2FE08E2FF7899E275F095
:10153D0010A4244EF582E5F03402F583E5822FF5F3
:10154D0082E5833EF583E493FF7D01121BB8789C01
:0C155D00E22401F218E23400F20214E172
:01156900225F
:061E0F007800EFF2A905C6
:101E15007F017E00AD0119ED600B7800E2FD7C00CD
:051E250012109D80EF8A
:011E2A002295
:0D156A007801EFF208EDF208EAF208EBF26A
:10157700E47809F208F27806E2B4080578097402FB
:10158700F2E47807F27805E2FF7807E2FEC39F40AE
:101597000302162CC3EF9E14FD7F0A121E0F780359
:1015A700E2FC08E2FDCFCDCFCECCCE1210AF7C004F
:1015B7007D0A1210AF7808EDF2780AE270357805E7
:1015C700E214FF7807E2FEC39F502808E2701F78F5
:1015D70006E2FCC313FF7809E22F8EF0A4FF78011F
:1015E700E22FFF08E2FD7898ECF27B20802C780A46
:1015F7007401F27806E2FEC313FF7809E22FFF7841
:1016070007E2FDEF8DF0A4FF7801E22FFF08E2FD6E
:101617007808E22430FB7898EEF21214767807E225
:0516270004F202158C25
:01162C00229B
:1019F300788EEFF208EDF208EBF208EAF208E9F26A
:101A0300E47894F27890E2FB08E2FA08E2F9789439
:101A1300E2F58275830012105E6042788EE2FF0861
:101A2300E2FD08E2FB08E2FA08E2F97894E2FE0438
:101A3300F28E8275830012105EFB7893E27898F23F
:101A43001214767893E2FFB40808788EE22406F243
:0D1A530080B2EFC313FF788EE22FF280A760
:011A60002263
:0A179F00780BEFF208EDF208EBF210
:1017A90008E2FF131313541FFD7C00EF54077E005A
:1017B90060047F0180027F00EF2DFFEE3CFE780E72
:1017C900E2FD7C0012109D7811EEF208EFF2E47848
:1017D9000FF208F27811E2FC08E2FD780FE2FE0848
:1017E900E2FFC39DEE9C504D780EE2FD7C00121085
:1017F900AFED4C7005780B121CCC780EE2B41035A5
:1018090008E2FE08E2FF780DE2C43354E0243EF515
:1018190082E43408F583E5822FF582E5833EF5837A
:10182900E493FF7D01121BB87810E22401F218E25B
:051839003400F2809F65
:01183E002287
:0A196A007813EFF208EDF208EBF23B
:10197400E4781AF208F27816E2FF131313541FFEE8
:10198400EF540760047F0180027F00EE2F7816F287
:10199400E4781CF27816E2FF781CE2FEC39F504EF6
:1019A4007813E2FF08E2FDEE2DFD121CD3E4781D4E
:1019B400F27815E2FF781DE2C39F502B7817E2FB03
:1019C40008E2FA08E2F90808E2FF2401F218E2FE4C
:1019D4003400F28F828E8312105EFF7D01121BB8D9
:0E19E400781DE204F280CA781CE204F280A6AC
:0119F20022D2
:10162D00C2927FC87E00121ED0D292E4FD7FAE1210
:10163D001BABE4FD7F40121BB8E4FD7F81121BB88C
:10164D00E4FD7FCF121BB8E4FD7FA1121BB8E4FDB2
:10165D007FC8121BB8E4FD7FA6121BB8E4FD7FA85E
:10166D00121BB8E4FD7F3F121BB8E4FD7FD3121BA4
:10167D00B8E4FDFF121BB8E4FD7FD5121BB8E4FDE5
:10168D007F80121BB8E4FD7FD9121BB8E4FD7FF1FA
:10169D00121BB8E4FD7FDA121BB8E4FD7F12121B9A
:1016AD00B8E4FD7FDB121BB8E4FD7F40121BB8E4EC
:1016BD00FD7F20121BB8E4FD7F02121BB8E4FD7FF5
:1016CD008D121BB8E4FD7F14121BB8E4FD7FA4122C
:1016DD001BB8E4FD7FA6121BB8121D46E4FD7FAFBB
:0316ED00021BB825
:041E4500D2A77F059C
:101E4900000000000000000000000000000000AEDB
:061E5900071FEE70EB22F2
:0F1EFE00D2A6121E45C2A67F05121E49C2A722F8
:0C1F2800C2A6121E45D2A67F05021E496B
:021C4800AD07E6
:101C4A00E4FCC2A77F05121E49ED30E704D2A68044
:101C5A0002C2A67F05121E49D2A7ED25E0FD7F0527
:0A1C6A00121E490CECB408DAC2A700
:011C7400224D
:101DF100E4FC121E45ED25E0FD30A6034401FDC2C1
:0D1E0100A77F05121E490CECB408E7AF05E1
:011E0E0022B1
:101C7500EBF208EAF208E9F2AB05121EFE7FA012AC
:0A1C85001C48121C8FAF03121C480C
:101C8F00121E45A2A6E433FDC2A77F05121E49AF5F
:011C9F00053F
:011CA0002221
:101E9200C2A7EF24FF92A67F05121E49121E45C259
:081EA200A7D2A67F05021E492C
:101C1500781E121C757822E2FF14F2EF6022781EFE
:101C2500E2FB0808E2F92401F218E2FA3400F212A4
:101C35001045FF121C48121C8F7FC8121E4980D503
:031C4500021F2853
:101AB1007823121C75121EFE7FA1121C48121C8F66
:101AC1007827E2FF14F2EF6028121DF17823E2FB80
:101AD1000808E2F92401F218E2FA3400F2EF1210D8
:101AE1008B7827E26004E4FF80027F01121E92805E
:041AF100CF021F28D9
:101E790053877F75985053890F438920758BFD755A
:091E89008DFDC2ABD28ED2AC2259
:080003008F993099FDC299228A
:101BE1007881EBF208EAF208E9F27881E2FB08E297
:101BF100FA08E2F9121045601A7881E2FB0808E25E
:101C0100F92401F218E2FA3400F2121045FF120031
:041C11000380D72253
:101E5F004D656E7531004D656E7532004D656E7551
:0A1E6F0033004241434B002D3E00BA
:10183F00832E0000429E31312E5465737441000097
:10184F0000322E5465737442000000332E546573BA
:10185F007443000000202A420003FF1E5F000000B7
:10186F0000000A0000000003FF1E650000000000DA
:10187F00000000000003FF1E6B00000000000000CE
:10188F00000020380A0004FE0031000000000000B4
:10189F000000420004FE003B0000000000000000BA
:1018AF00420004FE0045000000000000000042005E
:0D18BF0004FF1E7100000000000000004248
:0C1F3400ED25E0FD78937410F20219F323
:031F6800021D4611
:101B3700782AE4F20804F2E47863F208F204240055
:101B4700782DF2E43318F2121F68782EE2FB08E2D0
:101B5700FA08E2F9782AE2FC08E2FD7863E2FF0876
:0B1B6700E27886CFF208EFF20216F0E1
:0A16F0007881EBF208EAF208E9F253
:1016FA00788AE4F2087418F2E4FFFE08F208F2EDC0
:10170A0024FFFDEC34FFFC7BFF7A1E7976121F342E
:10171A007886E2FF08E208CFF208EFF27881E2FB6E
:10172A0008E2FA08E2F9121104FFAEF07887E2241F
:10173A0004FD18E23400FC121EAAAC06AD07788834
:10174A00E2FE08E2FFC39DEC6480F8EE64809850E4
:10175A00437C007D0E12109D7881E2FB08E2FA08B4
:10176A00E22FF9EA3EFA90000212112F788AE2FE7D
:10177A0008E2FF08E2FC08E2FD121F34788DE22439
:10178A0001F218E23400F27889E22401F218E23414
:04179A0000F2808851
:01179E002228
:101D9100782EE2FB08E2FA08E2F9782AE2FC08E28E
:101DA100FD7863E2FF08E27886CFF208EFF20216CF
:011DB100F041
:071CA1007828EEF208EFF2D3
:101CA8007F017E00E4FBEBFDD37829E29D7480F58B
:101CB800F018E2648095F0400A7C007D0A12109DBD
:031CC8000B80E3AB
:011CCB0022F6
:101EAA00C3EF9DEC6480F8EE648098500122AE0482
:031EBA00AF05224F
:100D2400EF24F2604F147003020E81147003020F5B
:100D3400D924036003021044121F68782BE224FFB5
:100D4400F218E234FFF208E2700218E27023D3785A
:100D540064E2940018E264809480400A08E224FF6C
:100D6400F218E234FFF2782BE22401F218E23400A4
:100D7400F2020E51121F68782BE22401F218E234B9
:100D840000F2782EE2FB08E2FA08E2F912110424D8
:100D940001FFE435F0FE7863E2FC08E2FD782BE223
:100DA4002DFD18E23CFCEDB5072FECB5062BE4F263
:100DB4000804F2E47863F208F2042400782DF2E4E3
:100DC4003318F2782EE2FB08E2FA08E2F9E47886B6
:100DD400F208F27D01FC1216F0D3782BE294041889
:100DE400E264809480403B782EE2FB08E2FA08E259
:100DF400F9121104FF7863E2FC08E2FD782BE22D7E
:100E0400FD18E23CFCD3ED9FE5F06480F8EC6480CF
:100E140098500B7864E22401F218E23400F2782B43
:100E24008022782EE2FB08E2FA08E2F9121104FFAC
:100E3400D3782BE29FE5F06480F5F018E2648095A6
:100E4400F0400A08E224FFF218E234FFF27863E289
:100E5400FE08E2FF782AE2FC08E2FD2F782DF2EC8E
:100E64003E18F2782EE2FB08E2FA08E2F97863E22F
:100E7400FF08E27886CFF208EFF2021041782CE204
:100E8400FE08E2FF7C007D0E12109D782EE2FB0826
:100E9400E2FA08E22FF9EA3EFA90FFF412112FA8C1
:100EA40001AC02AD037BFF7A1E7971121308EF7057
:100EB4006B782EE2FB08E2FA08E2F9900042EB704C
:100EC40008E965827003EA65836051121F68782C13
:100ED400E2FE08E2FF7C007D0E12109D782EE2FBFC
:100EE40008E2FA08E22FF9EA3EFA90FFFD12112F08
:100EF400782EEBF208EAF208E9F2782AE4F2080420
:100F0400F2E47863F208F2042400782DF2E4331852
:100F1400F2E47886F208F27D01021041782CE2FEB8
:100F240008E2FF7C007D0E12109D782EE2FB08E2A1
:100F3400FA08E22FF9EA3EFA90FFFA12112FE94A71
:100F44004B6051121F68782CE2FE08E2FF7C007DA2
:100F54000E12109D782EE2FB08E2FA08E22FF9EA5D
:100F64003EFA90FFFA12112F782EEBF208EAF208FB
:100F7400E9F2782AE4F20804F2E47863F208F2046D
:100F84002400782DF2E43318F2E47886F208F27D36
:100F940001021041782CE2FE08E2FF7C007D0E1273
:100FA400109D782EE2FB08E2FA08E22FF9EA3EFAF5
:100FB40090FFF712112FE94A4B7003021044782E68
:100FC400E2FB08E2FA08E22FF9EA3EFA90FFF71290
:100FD400112F02118C782EE2FB08E2FA08E2F99054
:100FE4000042EB7008E965827003EA658360511280
:100FF4001F68782CE2FE08E2FF7C007D0E12109D33
:10100400782EE2FB08E2FA08E22FF9EA3EFA90FFB2
:10101400FD12112F782EEBF208EAF208E9F2782A91
:10102400E4F20804F2E47863F208F2042400782D70
:10103400F2E43318F2E47886F208F27D011216F035
:011044002289
:101EBD005389F0438901758A66758CFCC28DD28C6D
:031ECD00D2A92275
:10091E0068656C6C6F000003050911FF118905C332
:10092E0000E000F000F8000000000000004428FF86
:10093E0011AA4400000000000000000000000000AA
:10094E000000000000000000000000000000000099
:10095E000000000000000000000000000000000089
:10096E000000000000000000000000000000000079
:10097E0083013844829292740183000000000000CB
:10098E00007C44FF017D7D7D017D7D7D7D017D7D32
:10099E007D7D7D01FF0000000000000100010001CF
:1009AE000001000100010000000000000000000135
:1009BE000100000000000000000000000000000028
:1009CE000000000000000000000000000000000019
:1009DE000000000000000000000000000000000009
:1009EE0000000000000000000000000000000000F9
:1009FE0001010000000000000101000000000000E5
:100A0E0000000001010101010101010101010101CB
:100A1E0001010101010000000000000000000000C3
:100A2E0000000000000000000000000000000000B8
:100A3E0000003F3F0303F31311111111111101F1C6
:100A4E00116181010101816111F101010101414138
:100A5E00F10101010101C1211111111121C1010188
:100A6E0001014141F10101010101010101010111E8
:100A7E0011111111D33303033F3F0000000000009A
:100A8E000000000000000000000000000000000058
:100A9E000000000000000000000000000000000048
:100AAE000000000000000000000000000000000038
:100ABE000000E0E000007F01010101010100007F64
:100ACE000000010618060100007F000000004040F3
:100ADE007F40400000001F2040404040201F00008B
:100AEE00000040407F404000000000600000000019
:100AFE0040300C0300000000E0E0000000000000A9
:100B0E0000000000000000000000000000000000D7
:100B1E0000000000000000000000000000000000C7
:100B2E0000000000000000000000000000000000B7
:100B3E0000000707060606060404048444444484A1
:100B4E000404844444448404040484C40404040457
:100B5E0084444444840404040404844444448404C7
:100B6E0004040404844444448404048444444484B7
:100B7E000404040406060606070700000000000031
:100B8E000000000000000000000000000000000057
:100B9E000000000000000000000000000000000047
:100BAE000000000000000000000000000000000037
:100BBE0000000000000000000000001018141211C8
:100BCE0000000F1010100F000000101F100000008A
:100BDE00081012120D00001800000D1212120D0056
:100BEE000018000010181412110000101814121121
:100BFE0000000000000000000000000000000000E7
:100C0E0000000000000000000000000000000000D6
:100C1E0000000000000000000000000000000000C6
:100C2E0000000000000000000000000000000000B6
:100C3E0000000000000000000000000000000000A6
:100C4E000000000000000000000000000000000096
:100C5E000000808080808080808000000000000086
:100C6E000000000000000000000000000000000076
:100C7E000000000000000000000000000000000066
:100C8E000000000000000000000000000000000056
:100C9E00000000000000007F030C300C037F0000FA
:100CAE003854545800007C04047800003C40407CCA
:100CBE000000000000000000000000000000000026
:100CCE000000000000000000000000000000000016
:100CDE000000FFAAAAAA280800FF000000000000DA
:100CEE0000000000000000000000000000000000F6
:100CFE000000000000000000000000000000007F67
:100D0E00030C300C037F0000264949493200007F56
:060D1E00020408107F0032
:1018CC008F67FF1F6B0064FF1B72000AFF1F400332
:0118DC00E823
:101CF500121DB212162DE4FF121E2BE4FF121D1E3B
:101D0500121B37121EBD121E79D2AF7BFF7A0979DD
:091D15001E121BE1121A6180FB91
:03000B00021AF5E1
:0D1AF500C0E0C0D075D000C000C001C00727
:101B0200758A66758CFCE4FFEF25E02477F9E370B3
:101B12000219E36010EF25E02476F808E224FFF2D0
:0A1B220018E234FFF20FEFB404DE06
:0B1B2C00D007D001D000D0D0D0E032B4
:03002300021F5F5A
:061F5F00309802C2983226
:011F6B002253
:101B720012134C7865EFF2787FE26F5FFE18F2087D
:101B8200EFF2EE24F2601014601314601624037056
:101B9200177880740DF2227880740EF222788074A5
:091BA2000FF22278807410F22287
:0C1F40007880E2FF120D24E47880F22289
:101DB200E4FFEF75F005A4246AF8E2FC08E2FDEF07
:0F1DC20025E02476F8ECF208EDF20FEFB403E31E
:011DD10022EF
:101A6100E47881F27881E2FFC394035042EF25E0EC
:101A71002477F9E3700219E3702E7881E2FF75F0A3
:101A810005A4246AF8E2FC08E2FDEF25E02476F8DB
:101A9100ECF208EDF27881E275F005A42467F8080C
:0F1AA100E2FA08E2F912118C7881E204F280B5C2
:011AB0002213
:030000000218DE05
:0C18DE00787FE4F6D8FD75816B021925B7
:10104500BB010689828A83E0225002E722BBFE02A9
:09105500E32289828A83E49322DC
:10105E00BB010CE58229F582E5833AF583E0225047
:10106E0006E92582F8E622BBFE06E92582F8E22291
:0D107E00E58229F582E5833AF583E49322AB
:10108B00BB010689828A83F0225002F722BBFE0144
:02109B00F3223E
:10109D00EF8DF0A4A8F0CF8CF0A428CE8DF0A42E67
:0210AD00FE2221
:1010AF00BC000BBE0029EF8DF084FFADF022E4CC25
:1010BF00F875F008EF2FFFEE33FEEC33FCEE9DECEE
:1010CF00984005FCEE9DFE0FD5F0E9E4CEFD22ED34
:1010DF00F8F5F0EE8420D21CFEADF075F008EF2F7E
:1010EF00FFED33FD4007985006D5F0F222C398FD6F
:0510FF000FD5F0EA220C
:10110400BB010A89828A83E0F5F0A3E022500687B6
:10111400F009E71922BBFE07E3F5F009E319228978
:0B112400828A83E493F5F074019322AB
:10112F00BB010DE58229F582E5833AF58302132E83
:10113F005007E92582F8021325BBFE07E92582F83F
:10114F00021337E58229F582E5833AF583021340CE
:10115F00D083D082F8E4937012740193700DA3A31F
:10116F0093F8740193F5828883E473740293B5F056
:0D117F00067403936860E9A3A3A3A380D8BE
:06118C008A838982E473EE
:10119200E3F5F009E208B5F06D606B80F3E3F5F07A
:1011A20009E608B5F060605E80F387F009E608B5ED
:1011B200F054605280F487F009E208B5F0486046C6
:1011C20080F488828C8387F009E0A3B5F03860361A
:1011D20080F488828C8387F009E493A3B5F02760BA
:1011E2002580F388828C83E3F5F009E0A3B5F0163D
:1011F200601480F388828C83E3F5F009E493A3B54D
:10120200F004600280F20212B9808580E7808E804D
:10121200D2803A8015806A807C809B80B5808B80EA
:10122200A1804D806E80380212C589828A8363A2B2
:101232000188828C8363A201E493F5F0A363A20187
:10124200E493A363A201B5F06E606C80EB89828A9D
:1012520083E493F5F0A3E208B5F05C605A80F2896A
:10126200828A83E0F5F0A3E608B5F04B604980F38B
:1012720089828A83E0F5F0A3E208B5F03A6038800B
:10128200F389828A83E493F5F0A3E608B5F0286037
:101292002680F2804F89828A8363A20188828C83AE
:1012A20063A201E493F5F0A363A201E0A363A201A8
:1012B200B5F004600280EC7FFFB5F0020F2240021D
:1012C2007F012289828A8363A20188828C8363A23E
:1012D20001E0F5F0A363A201E0A363A201B5F0D798
:1012E20060D580ED89828A8363A20188828C8363C0
:1012F200A201E0F5F0A363A201E493A363A201B506
:10130200F0B560B380EC88F0ED2402B4040050A77D
:10131200F582EB2402B40400509D232345822390DE
:03132200120B7338
:1018EA00021CF5E493A3F8E493A34003F68001F203
:1018FA0008DFF48029E493A3F85407240CC8C333FF
:10190A00C4540F4420C8834004F456800146F6DFCD
:10191A00E4800B010204081020408090183FE47E06
:10192A00019360BCA3FF543F30E509541FFEE493C2
:10193A00A360010ECF54C025E060A840B8E493A389
:10194A00FAE493A3F8E493A3C8C582C8CAC583CAB4
:10195A00F0A3C8C582C8CAC583CADFE9DEE780BE6C
:0118DD00000A
:09132500E6FB08E6FA08E6F922ED
:09132E00E0FBA3E0FAA3E0F922C0
:09133700E2FB08E2FA08E2F922E7
:0C134000E493FB740193FA740293F92209
:00000001FF
