:10196E0020B3047F04801720B2047F05801020B1BD
:0E197E00047F06800920B0047F078002E4FF8A
:01198C002238
:1011AB00C293D292D291D290E580540F7E00D2930B
:1011BB00C292D291D290C4F8540FC868FFEEC454B7
:1011CB00F048FEE580540FFDEF4DD293D292C291C1
:1011DB00D290C4F8540FC868FFEEC454F048FEE533
:1011EB0080540FFDEF4DD293D292D291C290C4F89E
:1011FB00540FC868FFEEC454F048FEE580540FFD51
:10120B00EF4DF4FFEEF4FEEF8EF012114212A70039
:10121B000112A20002129D00041298000812930002
:10122B0010128E00201289004012840080127F0160
:10123B0000127A02001275040012700800126B1073
:10124B00001266200012614000125C800000001248
:10125B00AC75080D804E75080980497508058044EA
:10126B00750801803F75080E803A75080A80357540
:10127B0008068030750802802B75080F80267508CC
:10128B000B8021750807801C7508038017750810E3
:10129B00801275080C800D7508088008750804808D
:0612AB0003E4F508AF08A2
:0112B100221A
:031AC9008F8022E9
:10001E000000000000000000002F0000000007009C
:10002E00070000147F147F1400242A7F2A12006216
:10003E0064081323003649552250000005030000C2
:10004E0000001C224100000041221C000014083E4A
:10005E0008140008083E0808000000A06000000810
:10006E000808080800006060000000201008040264
:10007E00003E5149453E0000427F40000042615122
:10008E004946002141454B31001814127F100027BC
:10009E0045454539003C4A4949300001710905037F
:1000AE0000364949493600064949291E00003636B0
:1000BE000000000056360000000814224100001413
:1000CE0014141414000041221408000201510906F0
:1000DE0000324959513E007C1211127C007F494971
:1000EE004936003E41414122007F4141221C007FA2
:1000FE0049494941007F09090901003E4149497AB0
:10010E00007F0808087F0000417F41000020404129
:10011E003F01007F08142241007F40404040007F95
:10012E00020C027F007F0408107F003E4141413ED9
:10013E00007F09090906003E4151215E007F091921
:10014E0029460046494949310001017F0101003F1E
:10015E004040403F001F2040201F003F4038403F9E
:10016E000063140814630007087008070061514902
:10017E00454300007F41410000552A552A55000095
:10018E0041417F0000040201020400404040404013
:10019E00000001020400002054545478007F4844AB
:1001AE00443800384444442000384444487F0038E2
:1001BE005454541800087E0901020018A4A4A47C0B
:1001CE00007F080404780000447D400000408084D5
:1001DE007D00007F102844000000417F4000007C1D
:1001EE0004180478007C0804047800384444443829
:1001FE0000FC242424180018242418FC007C080475
:10020E00040800485454542000043F444020003C4D
:10021E004040207C001C2040201C003C4030403CD4
:10022E00004428102844001CA0A0A07C0044645464
:10023E004C441414141414140000000000000000A8
:10024E000000000000000000000000F800000000A8
:10025E00000000333000000000100C06100C0600E9
:10026E00000000000000000040C07840C078400050
:10027E00043F04043F040400007088FC08300000B2
:10028E00001820FF211E0000F008F000E01800000A
:10029E0000211C031E211E0000F0088870000000C3
:1002AE001E2123241927211010160E000000000015
:1002BE000000000000000000000000E01804020032
:1002CE00000000071820400000020418E0000000A3
:1002DE000040201807000000404080F080404000A1
:1002EE000202010F01020200000000F000000000F7
:1002FE000101011F010101000000000000000000CB
:10030E0080B070000000000000000000000000003F
:10031E0000010101010101010000000000000000C8
:10032E000030300000000000000000008060180463
:10033E00006018060100000000E010080810E00040
:10034E00000F102020100F00001010F80000000009
:10035E000020203F20200000007008080888700050
:10036E0000302824222130000030088888483000D0
:10037E000018202020110E000000C02010F80000F0
:10038E0000070424243F240000F808888808080089
:10039E000019212020110E0000E01088881800009E
:1003AE00000F112020110E0000380808C838080070
:1003BE000000003F000000000070880808887000F0
:1003CE00001C222121221C0000E010080810E00071
:1003DE000000312222110F00000000C0C0000000FA
:1003EE00000000303000000000000080000000001F
:1003FE000000806000000000000080402010080017
:10040E0000010204081020004040404040404000DF
:10041E0004040404040404000008102040800000BA
:10042E000020100804020100007048080808F000BF
:10043E000000003036010000C030C828E810E0008F
:10044E000718272423140B000000C038E00000001A
:10045E00203C23020227382008F888888870000084
:10046E00203F202020110E00C03008080808380058
:10047E00071820202010080008F808080810E000CF
:10048E00203F202020100F0008F88888E808100070
:10049E00203F20202320180008F88888E808100044
:1004AE00203F200003000000C0300808083800007C
:1004BE0007182020221E020008F808000008F8087D
:1004CE00203F210101213F20000808F80808000004
:1004DE000020203F2020000000000808F808080037
:1004EE00C08080807F00000008F888C028180800AF
:1004FE00203F20012638200008F8080000000000E8
:10050E00203F20202020300008F8F800F8F80800DE
:10051E00203F003F003F200008F830C00008F808D8
:10052E00203F200007183F00E01008080810E000E8
:10053E000F10202020100F0008F808080808F000FF
:10054E00203F210101010000E01008080810E00022
:10055E000F18242438504F0008F8888888887000B7
:10056E00203F2000030C3020007088080808380057
:10057E000038202121221C00180808F8080818004D
:10058E000000203F2000000008F808000008F808CE
:10059E00001F202020201F000878880000C838087F
:1005AE00000007380E010000F80800F80008F800F7
:1005BE00033C0700073C0300081868808068180891
:1005CE0020302C03032C30200838C800C83808000F
:1005DE000000203F2000000010080808C83808005E
:1005EE002038262120201800000000FE0202020002
:1005FE000000007F40404000000C30C000000000B2
:10060E00000000010638C00000020202FE000000D9
:10061E00004040407F00000000000402020204007F
:10062E0000000000000000000000000000000000BC
:10063E0080808080808080800002020400000000A4
:10064E00000000000000000000008080808000009C
:10065E000019242222223F2008F80080800000008A
:10066E00003F112020110E0000000080808000004D
:10067E00000E112020201100000000808088F8005C
:10068E00000E112020103F2000008080808000008E
:10069E00001F222222221300008080F088888818F2
:1006AE000020203F202000000000808080808000FD
:1006BE00006B94949493600008F800808080000092
:1006CE00203F210000203F2000809898000000006D
:1006DE000020203F2020000000000080989800009D
:1006EE0000C08080807F000008F8000080808000BD
:1006FE00203F24022D302000000808F800000000E2
:10070E000020203F2020000080808080808080009C
:10071E00203F20003F20003F80800080808000002E
:10072E00203F210000203F200000808080800000BC
:10073E00001F202020201F008080008080000000ED
:10074E0080FFA12020110E0000000080808080001C
:10075E00000E112020A0FF8080808000808080000D
:10076E0020203F212000010000008080808080003A
:10077E000033242424241900008080E080800000AF
:10078E000000001F202000008080000000808000FC
:10079E00001F202020103F2080808000008080805D
:1007AE0000010E30080601008080008000808080ED
:1007BE000F300C030C300F00008080008080800012
:1007CE000020312E0E31200080808000008080803D
:1007DE0080818E70180601000080808080808000ED
:1007EE000021302C2221300000000000807C02020B
:1007FE0000000000003F404000000000FF0000002D
:10080E0000000000FF0000000002027C80000000DB
:10081E000040403F000000000006010102020404F7
:10082E0000000000000000000000F010101010FF8B
:10083E0010101010F000000000000F04040404FF5C
:10084E00040404040F0000004040405F55555575E8
:10085E005555555F404040000040200F09498979A9
:10086E000909090F2040000000FE02424ACA4A4A06
:10087E00CA4A4A4202FE000000FF40504C4340402C
:10088E004F50505C40FF00000000F888888888FFB9
:10089E0088888888F800000000001F080808087F74
:1008AE00888888889F80F00080828282828282E29D
:1008BE00A2928A8682808000000000000040807F25
:1008CE000000000000000000101010FF10900888BB
:1008DE008888FF88888808000444827F01808040D1
:1008EE00432C1028468180000010101010D030FFCD
:1008FE0030D0121C1010000010080402010000FF7E
:08090E000000010204081000C2
:081AB7007F027EEFDEFEDFFC82
:011ABF002204
:101A3F00AD07AC06ED1DAE0470011C4E6005121A09
:041A4F00B780F12249
:1019E3008F08E5087006FD7FA61217B4E508B40159
:0919F30007E4FD7FA71217B422DE
:101894008F08E508700DFD7FC81217B4E4FD7FA121
:1018A4001217B4E508B4010EE4FD7FC01217B4E4C6
:0718B400FD7FA01217B42212
:081AC0007F01AE071FEE70FA72
:011AC80022FB
:0F1A6600D2A0D2A1121AC0C2A0121AC0C2A122CD
:0A1AAD00C2A0D2A1121AC0D2A022DA
:0F1A7500D2A0121AC0D2A1121AC0C2A1021AC066
:02190600AD072B
:10190800E4FCC2A1ED30E704D2A08002C2A0121A02
:10191800C0D2A1121AC0C2A1ED25E0FD0CBC08E29C
:01192800229C
:0D17A7001217B4E4FDFF1217B4E4FD7F102B
:1017B400AB05AA07121A667F78121906121A75EB7E
:1017C40060047F408002E4FF121906121A75AF020A
:0917D400121906121A75021AAD71
:10194C00A907ED24B0FFE4FD1217B4E954F0C45418
:10195C000F4410FFE4FD1217B4E9540FFFE4FD022D
:02196C0017B4AE
:101A2A00E4FD7F8D1217B4E4FD7F141217B4E4FDB0
:051A3A007FAF0217B4AC
:0E1A9300E4FD7F8D1217ADE4FD7FAE0217B4A7
:10192900E4F9E924B0FFE4FD1217A7E4F5087D0105
:10193900E4FF1217B40508E508C3948040F009B91B
:0219490008E0B4
:01194B002279
:0412B2008F0F8D10FD
:1012B600E4F513E512C313FDF514E4F515F516E58B
:1012C60012B408087517007518068029E51213135D
:1012D60013541FFF7E00E51254076005900001803D
:1012E60003900000E5822FFFE5833EFE7C0012108E
:1012F600DB8E178F18EB24E0F513AD10AF0F121924
:101306004CE4F515F516C3E5169518E51595175031
:1013160067E514FD7C00AE15AF161210EDED4C70AE
:101326000FE51264086009AD100510AF0F12194CD5
:10133600E512B4081075F006E513A4241EF582E53F
:10134600F034008013E512B4102E75F010E513A4E6
:101356002446F582E5F03402F583E5822516F5820A
:10136600E5833515F583E493FF7D011217B4051661
:08137600E51670920515808E4A
:01137E00224C
:040003008F1CA905A0
:100007007F017E00AD0119ED6009AD1C7C00121067
:03001700DB80F19A
:01001A0022C3
:081559008F5E8D5F8A608B61DB
:10156100E4F566F567E563B40803756602E4F564BE
:10157100E564C395625069C3E562956414FD7F0A11
:10158100120003AC60AD61CFCDCFCECCCE1210ED49
:101591007C007D0A1210ED8D65E5677025E562140A
:1015A100FFE564C39F501BE5657014E563C3132514
:1015B100668564F0A4255EFF8563127B2080187523
:1015C1006701E563C31325668564F0A4255EFFE525
:1015D100652430FB856312AD5F1212B20564809001
:0115E10022E7
:0A1697008F088D098B0A8A0B890C5D
:1016A100E4F50EAB0AAA0BA90C850E827583001214
:1016B100109C602AAF0E050E8F8275830012109C5C
:1016C100FB850D12AD09AF081212B2E50DB4080485
:0E16D10074068004E50DC3132508F50880C5D6
:0116DF0022E8
:0614CE008F688D698B6A36
:1014D400E56B131313541FFF7E00E56B54077C0068
:1014E40060047D0180027D00ED2FFFEC3EFEAD6BBC
:1014F4007C001210DB8E6E8F6FE4F56CF56DC3E526
:101504006D956FE56C956E504BE56BFD7C00AE6C94
:10151400AF6D1210EDED4C7009AD690569AF68123D
:10152400194CE56BB4102DE56AC43354E02436F548
:1015340082E43408F583E582256DF582E583356C14
:10154400F583E493FF7D011217B4056DE56D70AE6C
:04155400056C80AAF8
:011558002270
:0615E2008F538D548B5560
:1015E800E4F55AF55BE556131313541FFFE55654FB
:1015F8000760047E0180027E00EF2EF556E4F55C5C
:10160800E55CC39556503AE55C2554FDAF53121975
:101618004CE4F55DE55DC395555022AB57AA58A932
:1016280059055BE55BAE5A7002055A14F5828E8344
:1016380012109CFF7D011217B4055D80D7055C80F0
:01164800BFE2
:01164900227E
:10137F00C2927FC87E00121A3FD292E4FD7FAE1256
:10138F0017A7E4FD7F401217B4E4FD7F811217B455
:10139F00E4FD7FCF1217B4E4FD7FA11217B4E4FD73
:1013AF007FC81217B4E4FD7FA61217B4E4FD7FA81F
:1013BF001217B4E4FD7F3F1217B4E4FD7FD3121769
:1013CF00B4E4FDFF1217B4E4FD7FD51217B4E4FDAA
:1013DF007F801217B4E4FD7FD91217B4E4FD7FF1BB
:1013EF001217B4E4FD7FDA1217B4E4FD7F1212175F
:1013FF00B4E4FD7FDB1217B4E4FD7F401217B4E4B1
:10140F00FD7F201217B4E4FD7F021217B4E4FD7FB5
:10141F008D1217B4E4FD7F141217B4E4FD7FA412EC
:10142F0017B4E4FD7FA61217B4121929E4FD7FAF9C
:03143F000217B4DD
:0419C900D2A77F051D
:1019CD00000000000000000000000000000000AE5C
:0619DD00071FEE70EB2273
:0F1A8400D2A61219C9C2A67F051219CDC2A72278
:0C1AA100C2A61219C9D2A67F050219CDF9
:02183E00AD07F4
:10184000E4FCC2A77F051219CDED30E704D2A680D3
:1018500002C2A67F051219CDD2A7ED25E0FD7F05B6
:091860001219CD0CBC08DBC2A773
:01186900225C
:1019AC00E4FC1219C9ED25E0FD30A603430501C284
:0C19BC00A77F051219CD0CBC08E8AF0590
:0119C80022FC
:1018E200AB05121A847FA012183E1218F4AF03122D
:0218F200183E9E
:1018F4001219C9A2A6E433FDC2A77F051219CDAF00
:0119040005DD
:0119050022BF
:1019FC00C2A7EF24FF92A67F051219CD1219C9C2F6
:081A0C00A7D2A67F050219CD47
:1017DD008B088A09890A1218E2AF0C150CEF601FED
:1017ED00AB08050AE50AAA097002050914F91210D9
:1017FD0083FF12183E1218F47FC81219CD80DA0239
:02180D001AA11E
:101727008B088A09890A1218E2121A847FA11218F3
:101737003E1218F4AF0C150CEF60241219ACAB086D
:10174700050AE50AAA097002050914F9EF1210C97A
:10175700E50C6004E4FF80027F011219FC80D502CA
:021767001AA1C5
:101A530053890F438910758B66758DFCC28FD28EA7
:031A6300D2AB22E1
:1009160068656C6C6F00636F756E74203D2025648E
:10092600000003050911FF118905C300E000F0006E
:10093600F8000000000000004428FF11AA4400004F
:1009460000000000000000000000000000000000A1
:100956000000000000000000000000000000000091
:100966000000000000000000000000000000000081
:1009760000000000000000000000008301384482EF
:100986009292740183000000000000007C44FF0185
:100996007D7D7D017D7D7D7D017D7D7D7D7D01FF73
:1009A600000000000000010001000100010001003C
:1009B600010000000000000000000101000000002E
:1009C6000000000000000000000000000000000021
:1009D6000000000000000000000000000000000011
:1009E6000000000000000000000000000000000001
:1009F60000000000000000000000000101000000EF
:100A060000000001010000000000000000000101DC
:100A160001010101010101010101010101010101C0
:100A260000000000000000000000000000000000C0
:100A3600000000000000000000000000003F3F032F
:100A460003F31311111111111101F111618101014A
:100A560001816111F1010101014141F10101010130
:100A660001C1211111111121C1010101014141F100
:100A7600010101010101010101011111111111D33E
:100A86003303033F3F0000000000000000000000A9
:100A96000000000000000000000000000000000050
:100AA6000000000000000000000000000000000040
:100AB60000000000000000000000000000E0E00070
:100AC600007F01010101010100007F0000010618FD
:100AD600060100007F0000000040407F404000000B
:100AE600001F2040404040201F0000000040407F83
:100AF600404000000000600000000040300C030091
:100B0600000000E0E000000000000000000000001F
:100B160000000000000000000000000000000000CF
:100B260000000000000000000000000000000000BF
:100B3600000000000000000000000000000707069B
:100B46000606060404048444444484040484444499
:100B5600448404040484C40404040484444444848F
:100B660004040404048444444484040404040484FF
:100B7600444444840404844444448404040404062D
:100B8600060606070700000000000000000000003F
:100B9600000000000000000000000000000000004F
:100BA600000000000000000000000000000000003F
:100BB600000000000000000000000000000000002F
:100BC600000000000000101814121100000F101091
:100BD600100F000000101F10000000081012120D68
:100BE60000001800000D1212120D0000180000106F
:100BF6001814121100001018141211000000000041
:100C060000000000000000000000000000000000DE
:100C160000000000000000000000000000000000CE
:100C260000000000000000000000000000000000BE
:100C360000000000000000000000000000000000AE
:100C4600000000000000000000000000000000009E
:100C5600000000000000000000000000008080800E
:100C660080808080800000000000000000000000FE
:100C7600000000000000000000000000000000006E
:100C8600000000000000000000000000000000005E
:100C9600000000000000000000000000000000004E
:100CA60000007F030C300C037F00003854545800BA
:100CB600007C04047800003C40407C0000000000FA
:100CC600000000000000000000000000000000001E
:100CD60000000000000000000000000000FFAAAABB
:100CE600AA280800FF000000000000000000000025
:100CF60000000000000000000000000000000000EE
:100D0600000000000000000000007F030C300C0310
:100D16007F0000264949493200007F020408107FFF
:010D260000CC
:101A14000F24FF1ACC0064FF186A0014FF164A074B
:051A2400D002470000A4
:10180F0012198D7FE87E03121A3F12137FE4FF1225
:10181F0019E3E4FF1218947BFF7A097916750C050A
:0F182F00E4FD1217DD121A53D2AF1216E080FB40
:03001B0002176960
:0D176900C0E0C0D075D000C000C004C007B3
:10177600758B66758DFCE4FFEF25E02433F8E6FCF7
:1017860008E64C600DEF25E02433F808E6161870DD
:0617960001160FBF04E282
:0B179C00D007D004D000D0D0D0E03245
:011ACC0022F7
:10186A001211AB8F22E52265465522F53B852246A9
:10187A0024FE600D14600D14600D2403700BB284F5
:0A188A0022B28522B28622B2872224
:10164A00750BFF750C09750D1C0548E54885470E95
:10165A007002054714F50F7B007A007949120D8351
:10166A007B007A007949750D10E4FDFF1216977B0D
:10167A00007A00793C750C05E4FD1217277B007A85
:0D168A0000793C750D107D02E4FF021697FB
:10198D00E4FFEF75F005A42427F8E6FC08E6FDEF6B
:0E199D0025E02433F8A60408A6050FBF03E4D6
:0119AB002219
:1016E000E4F508E50825E02433F8E6FE08E64E7048
:1016F0002CE50875F005A42427F8E6FE08E6FFE5CA
:101700000825E02433F8A60608A607E50875F005C5
:10171000A42424F808E6FA08E6F912116F0508E592
:0617200008C3940340BD64
:0117260022A0
:03000000021442A5
:0C144200787FE4F6D8FD75816F021489F4
:10108300BB010689828A83E0225002E722BBFE026B
:09109300E32289828A83E493229E
:10109C00BB010CE58229F582E5833AF583E0225009
:1010AC0006E92582F8E622BBFE06E92582F8E22253
:0D10BC00E58229F582E5833AF583E493226D
:1010C900BB010689828A83F0225002F722BBFE0106
:0210D900F32200
:1010DB00EF8DF0A4A8F0CF8CF0A428CE8DF0A42E29
:0210EB00FE22E3
:1010ED00BC000BBE0029EF8DF084FFADF022E4CCE7
:1010FD00F875F008EF2FFFEE33FEEC33FCEE9DECB0
:10110D00984005FCEE9DFE0FD5F0E9E4CEFD22EDF5
:10111D00F8F5F0EE8420D21CFEADF075F008EF2F3F
:10112D00FFED33FD4007985006D5F0F222C398FD30
:05113D000FD5F0EA22CD
:10114200D083D082F8E4937012740193700DA3A33C
:1011520093F8740193F5828883E473740293B5F073
:0D116200067403936860E9A3A3A3A380D8DB
:06116F008A838982E4730B
:100D2700E517240BF8E60517227808300702780B39
:100D3700E475F0011211750210832000EB7F2ED2AB
:100D4700008018EF540F2490D43440D4FF30040BA4
:100D5700EF24BFB41A0050032461FFE518600215A1
:100D670018051BE51B7002051A30070D7808E47596
:100D7700F001121175EF0210C90218BB7403D207F4
:100D87008003E4C207F5178B088A09890AE4F51876
:100D9700F51AF51BE51860077F20120D6280F575BF
:100DA70019FFC201C200C202C203C205C206C208BD
:100DB700120D30FF700D3007057F00120D73AF1B4A
:100DC700AE1A22B4255FC2D5C204120D30FF24D05B
:100DD700B40A00501A75F00A781830D50508B6FF1E
:100DE7000106C6A426F620D5047002D20380D924B2
:100DF700CFB41A00EF5004C2E5D204020F73D20138
:100E070080C6D20080C0D20280BCD2D580BAD205BB
:100E170080B47F20120D622002077401B5180040CC
:100E2700F1120D27FF120D62020D9BD208D2068028
:100E370095120D27FB120D27FA120D27F94A4B7051
:100E47000679447A107BFF20022EE518602A7E007F
:100E57008E8275830012109C60060EEE651970F085
:100E6700C2D5EBC0E0EAC0E0E9C0E0EE120FBAD0AD
:100E7700E0F9D0E0FAD0E0FB121083FF60AAEBC0E4
:100E8700E0EAC0E0E9C0E0120D62D0E02401F9D049
:100E9700E03400FAD0E0FBE5190460DCD519D9800D
:100EA700877BFF7A0F79B6D202809C79108002790E
:100EB70008C206C2088008D2D5790A8004790AC216
:100EC700D5E519047002F519E4FAFDFEFF120D27A6
:100ED700FC7B08200113120D27FD7B1030000A123E
:100EE7000D27FE120D27FF7B20EC3382D592D550BC
:100EF70013C3E43000069FFFE49EFEE42001039D38
:100F0700FDE49CFCE4CBF8C201EC700CCFCECDCC59
:100F1700E824F8F870F38017C3EF33FFEE33FEEDE4
:100F270033FDEC33FCEB33FB994002FB0FD8E9EBC5
:100F3700300105F8D0E0C448B201C0E00AEC4D4EDC
:100F47004F78207B0070C2EAB5190040BCC0E012A0
:100F57000FBCD0F0D0E0200104C4C0E0C4B201C08F
:100F6700F0120D4BD0F0D5F0EB020D9B1211850E50
:100F770038530EB2580E094C0E05420EB64F0EBE30
:0F0F8700440EBE490E1E430EC4550EA8460EA8BA
:100F9600450EA8471064500E0D2D0E112E0E342B43
:100FA6000E15230E3220104D2A0DCD4800000E2CB2
:100FB6003F3F3F00790AA2D5200314300509B91036
:100FC600020404B9080104A2D52006025001042037
:100FD60002689202B518005034C0E07F2030031931
:100FE6007F30A20272067205500F121013C202C29F
:100FF60006C205C2087F30800F300503E9C0E01243
:101006000D62300503D0E0F9D0E0B518CC300517F5
:101016007F30B9100C120D627F583004077F78803C
:1010260003B90803120D623002057F2D020D627F9F
:10103600202008F87F2B2006F322920280CF286E0C
:10104600756C6C2900D201120D273001F8C20178A7
:101056001830D50108F6020DCD2D50434958120D12
:10106600272403B405004001E490105F93120D534A
:0D107600743A120D53D203751804020EB225
:10144E0002180FE493A3F8E493A34003F68001F28D
:10145E0008DFF48029E493A3F85407240CC8C3339F
:10146E00C4540F4420C8834004F456800146F6DF6E
:10147E00E4800B0102040810204080901A14E47ED0
:10148E00019360BCA3FF543F30E509541FFEE49363
:10149E00A360010ECF54C025E060A840B8E493A32A
:1014AE00FAE493A3F8E493A3C8C582C8CAC583CA55
:1014BE00F0A3C8C582C8CAC583CADFE9DEE780BE0D
:011A290000BC
:10117500FAE6FB0808E6F925F0F618E6CA3AF6227B
:10118500D083D082F8E4937012740193700DA3A3F9
:1011950093F8740193F5828883E47374029368600D
:0611A500EFA3A3A380DF0D
:1018BB00EFB40A07740D1218C6740A309811A89960
:1018CB00B8130CC2983098FDA899C298B811F6308D
:0718DB0099FDC299F5992265
:00000001FF
