:1018410020B3047F04801720B2047F05801020B1EB
:0E185100047F06800920B0047F078002E4FFB8
:01185F002266
:1011A600C2ECD2EAD2B5D2B4E5B0540F7E00D2EC8E
:1011B600C2EAD2B5D2B4C4F8540FC868FFEEC4541C
:1011C600F048FEE5B0540FFDEF4DD2ECD2EAC2B5C1
:1011D600D2B4C4F8540FC868FFEEC454F048FEE514
:1011E600B0540FFDEF4DD2ECD2EAD2B5C2B4C4F87A
:1011F600540FC868FFEEC454F048FEE5B0540FFD26
:10120600EF4DF4FFEEF4FEEF8EF012111212A20073
:1012160001129D00021298000412930008128E001B
:10122600101289002012840040127F0080127A0179
:10123600001275020012700400126B08001266108C
:101246000012612000125C4000125780000000125C
:10125600A7750804804E7508058049750806804400
:10126600750807803F750808803A75080980357546
:10127600080A803075080B802B75080C80267508C7
:101286000D802175080E801C75080F8017750810D3
:101296008012750811800D75081280087508138074
:0612A60003E4F508AF08A7
:0112AC00221F
:031947008F80226C
:10001E000000000000000000002F0000000007009C
:10002E00070000147F147F1400242A7F2A12006216
:10003E0064081323003649552250000005030000C2
:10004E0000001C224100000041221C000014083E4A
:10005E0008140008083E0808000000A06000000810
:10006E000808080800006060000000201008040264
:10007E00003E5149453E0000427F40000042615122
:10008E004946002141454B31001814127F100027BC
:10009E0045454539003C4A4949300001710905037F
:1000AE0000364949493600064949291E00003636B0
:1000BE000000000056360000000814224100001413
:1000CE0014141414000041221408000201510906F0
:1000DE0000324959513E007C1211127C007F494971
:1000EE004936003E41414122007F4141221C007FA2
:1000FE0049494941007F09090901003E4149497AB0
:10010E00007F0808087F0000417F41000020404129
:10011E003F01007F08142241007F40404040007F95
:10012E00020C027F007F0408107F003E4141413ED9
:10013E00007F09090906003E4151215E007F091921
:10014E0029460046494949310001017F0101003F1E
:10015E004040403F001F2040201F003F4038403F9E
:10016E000063140814630007087008070061514902
:10017E00454300007F41410000552A552A55000095
:10018E0041417F0000040201020400404040404013
:10019E00000001020400002054545478007F4844AB
:1001AE00443800384444442000384444487F0038E2
:1001BE005454541800087E0901020018A4A4A47C0B
:1001CE00007F080404780000447D400000408084D5
:1001DE007D00007F102844000000417F4000007C1D
:1001EE0004180478007C0804047800384444443829
:1001FE0000FC242424180018242418FC007C080475
:10020E00040800485454542000043F444020003C4D
:10021E004040207C001C2040201C003C4030403CD4
:10022E00004428102844001CA0A0A07C0044645464
:10023E004C441414141414140000000000000000A8
:10024E000000000000000000000000F800000000A8
:10025E00000000333000000000100C06100C0600E9
:10026E00000000000000000040C07840C078400050
:10027E00043F04043F040400007088FC08300000B2
:10028E00001820FF211E0000F008F000E01800000A
:10029E0000211C031E211E0000F0088870000000C3
:1002AE001E2123241927211010160E000000000015
:1002BE000000000000000000000000E01804020032
:1002CE00000000071820400000020418E0000000A3
:1002DE000040201807000000404080F080404000A1
:1002EE000202010F01020200000000F000000000F7
:1002FE000101011F010101000000000000000000CB
:10030E0080B070000000000000000000000000003F
:10031E0000010101010101010000000000000000C8
:10032E000030300000000000000000008060180463
:10033E00006018060100000000E010080810E00040
:10034E00000F102020100F00001010F80000000009
:10035E000020203F20200000007008080888700050
:10036E0000302824222130000030088888483000D0
:10037E000018202020110E000000C02010F80000F0
:10038E0000070424243F240000F808888808080089
:10039E000019212020110E0000E01088881800009E
:1003AE00000F112020110E0000380808C838080070
:1003BE000000003F000000000070880808887000F0
:1003CE00001C222121221C0000E010080810E00071
:1003DE000000312222110F00000000C0C0000000FA
:1003EE00000000303000000000000080000000001F
:1003FE000000806000000000000080402010080017
:10040E0000010204081020004040404040404000DF
:10041E0004040404040404000008102040800000BA
:10042E000020100804020100007048080808F000BF
:10043E000000003036010000C030C828E810E0008F
:10044E000718272423140B000000C038E00000001A
:10045E00203C23020227382008F888888870000084
:10046E00203F202020110E00C03008080808380058
:10047E00071820202010080008F808080810E000CF
:10048E00203F202020100F0008F88888E808100070
:10049E00203F20202320180008F88888E808100044
:1004AE00203F200003000000C0300808083800007C
:1004BE0007182020221E020008F808000008F8087D
:1004CE00203F210101213F20000808F80808000004
:1004DE000020203F2020000000000808F808080037
:1004EE00C08080807F00000008F888C028180800AF
:1004FE00203F20012638200008F8080000000000E8
:10050E00203F20202020300008F8F800F8F80800DE
:10051E00203F003F003F200008F830C00008F808D8
:10052E00203F200007183F00E01008080810E000E8
:10053E000F10202020100F0008F808080808F000FF
:10054E00203F210101010000E01008080810E00022
:10055E000F18242438504F0008F8888888887000B7
:10056E00203F2000030C3020007088080808380057
:10057E000038202121221C00180808F8080818004D
:10058E000000203F2000000008F808000008F808CE
:10059E00001F202020201F000878880000C838087F
:1005AE00000007380E010000F80800F80008F800F7
:1005BE00033C0700073C0300081868808068180891
:1005CE0020302C03032C30200838C800C83808000F
:1005DE000000203F2000000010080808C83808005E
:1005EE002038262120201800000000FE0202020002
:1005FE000000007F40404000000C30C000000000B2
:10060E00000000010638C00000020202FE000000D9
:10061E00004040407F00000000000402020204007F
:10062E0000000000000000000000000000000000BC
:10063E0080808080808080800002020400000000A4
:10064E00000000000000000000008080808000009C
:10065E000019242222223F2008F80080800000008A
:10066E00003F112020110E0000000080808000004D
:10067E00000E112020201100000000808088F8005C
:10068E00000E112020103F2000008080808000008E
:10069E00001F222222221300008080F088888818F2
:1006AE000020203F202000000000808080808000FD
:1006BE00006B94949493600008F800808080000092
:1006CE00203F210000203F2000809898000000006D
:1006DE000020203F2020000000000080989800009D
:1006EE0000C08080807F000008F8000080808000BD
:1006FE00203F24022D302000000808F800000000E2
:10070E000020203F2020000080808080808080009C
:10071E00203F20003F20003F80800080808000002E
:10072E00203F210000203F200000808080800000BC
:10073E00001F202020201F008080008080000000ED
:10074E0080FFA12020110E0000000080808080001C
:10075E00000E112020A0FF8080808000808080000D
:10076E0020203F212000010000008080808080003A
:10077E000033242424241900008080E080800000AF
:10078E000000001F202000008080000000808000FC
:10079E00001F202020103F2080808000008080805D
:1007AE0000010E30080601008080008000808080ED
:1007BE000F300C030C300F00008080008080800012
:1007CE000020312E0E31200080808000008080803D
:1007DE0080818E70180601000080808080808000ED
:1007EE000021302C2221300000000000807C02020B
:1007FE0000000000003F404000000000FF0000002D
:10080E0000000000FF0000000002027C80000000DB
:10081E000040403F000000000006010102020404F7
:10082E0000000000000000000000F010101010FF8B
:10083E0010101010F000000000000F04040404FF5C
:10084E00040404040F0000004040405F55555575E8
:10085E005555555F404040000040200F09498979A9
:10086E000909090F2040000000FE02424ACA4A4A06
:10087E00CA4A4A4202FE000000FF40504C4340402C
:10088E004F50505C40FF00000000F888888888FFB9
:10089E0088888888F800000000001F080808087F74
:1008AE00888888889F80F00080828282828282E29D
:1008BE00A2928A8682808000000000000040807F25
:1008CE000000000000000000101010FF10900888BB
:1008DE008888FF88888808000444827F01808040D1
:1008EE00432C1028468180000010101010D030FFCD
:1008FE0030D0121C1010000010080402010000FF7E
:08090E000000010204081000C2
:081931007F027EEFDEFEDFFC09
:01193900228B
:1018C300AD07AC06ED1DAE0470011C4E6005121988
:0418D3003180F1224D
:10187F008F08E5087006FD7FA6121720E508B40152
:09188F0007E4FD7FA712172022D7
:101749008F08E508700DFD7FC8121720E4FD7FA101
:10175900121720E508B4010EE4FD7FC0121720E43A
:07176900FD7FA012172022F2
:08193A007F01AE071FEE70FAF9
:011942002282
:0F18FB00D291D29012193AC29112193AC2902288
:0A192700C291D29012193AD2912217
:0F190A00D29112193AD29012193AC29002193A98
:02179700AD079C
:10179900E4FCC290ED30E704D2918002C2911219A3
:1017A9003AD29012193AC290ED25E0FD0CBC08E23C
:0117B900220D
:0D171300121720E4FDFF121720E4FD7F10E7
:10172000AB05AA071218FB7F7812179712190AEB5C
:1017300060047F408002E4FF12179712190AAF027B
:0917400012179712190A02192769
:1017DD00A907ED24B0FFE4FD121720E954F0C4541D
:1017ED000F4410FFE4FD121720E9540FFFE4FD0232
:0217FD001720B3
:1018AE00E4FD7F8D121720E4FD7F14121720E4FD56
:0518BE007FAF021720BE
:0E191900E4FD7F8D121719E4FD7FAE0217204A
:1017BA00E4F9E924B0FFE4FD121713E4F5087D010A
:1017CA00E4FF1217200508E508C3948040F009B920
:0217DA0008E025
:0117DC0022EA
:0412AD008F0F8D1002
:1012B100E4F513E512C313FDF514E4F515F516E590
:1012C10012B408087517007518068029E512131362
:1012D10013541FFF7E00E512540760059000018042
:1012E10003900000E5822FFFE5833EFE7C00121093
:1012F100AB8E178F18EB24E0F513AD10AF0F12175B
:10130100DDE4F515F516C3E5169518E515951750A5
:1013110067E514FD7C00AE15AF161210BDED4C70E3
:101321000FE51264086009AD100510AF0F1217DD4B
:10133100E512B4081075F006E513A4241EF582E544
:10134100F034008013E512B4102E75F010E513A4EB
:101351002446F582E5F03402F583E5822516F5820F
:10136100E5833515F583E493FF7D011217200516FA
:08137100E51670920515808E4F
:011379002251
:040003008F1CA905A0
:100007007F017E00AD0119ED6009AD1C7C00121067
:03001700AB80F1CA
:01001A0022C3
:081554008F548D558A568B5708
:10155C00E4F55CF55DE559B40803755C02E4F55AF5
:10156C00E55AC395585069C3E558955A14FD7F0A3E
:10157C00120003AC56AD57CFCDCFCECCCE1210BD92
:10158C007C007D0A1210BD8D5BE55D7025E558145D
:10159C00FFE55AC39F501BE55B7014E559C3132537
:1015AC005C855AF0A42554FF8559127B2080187550
:1015BC005D01E559C313255C855AF0A42554FFE55C
:1015CC005B2430FB855912AD551212AD055A809033
:0115DC0022EC
:0A1645008F088D098B0A8A0B890CAF
:10164F00E4F50EAB0AAA0BA90C850E827583001266
:10165F00107E602AAF0E050E8F8275830012107EEA
:10166F00FB850D12AD09AF081212ADE50DB40804DC
:0E167F0074068004E50DC3132508F50880C528
:01168D00223A
:0614C9008F5E8D5F8B6059
:1014CF00E561131313541FFF7E00E56154077C0081
:1014DF0060047D0180027D00ED2FFFEC3EFEAD61CB
:1014EF007C001210AB8E648F65E4F562F563C3E583
:1014FF00639565E5629564504BE561FD7C00AE62D6
:10150F00AF631210BDED4C7009AD5F055FAF5E129A
:10151F0017DDE561B4102DE560C43354E02436F5D2
:10152F0082E43408F583E5822563F582E58335622D
:10153F00F583E493FF7D011217200563E56370AE19
:04154F00056280AA07
:011553002275
:0615DD008F498D4A8B4B83
:1015E300E4F550F551E54C131313541FFFE54C5428
:1015F3000760047E0180027E00EF2EF54CE4F55275
:10160300E552C3954C503AE552254AFDAF491217AE
:10161300DDE4F553E553C3954B5022AB4DAA4EA9D8
:101623004F0551E551AE507002055014F5828E837B
:1016330012107EFF7D01121720055380D7055280BB
:01164300BFE7
:011644002283
:10137A00C2927FC87E001218C3D292E4FD7FAE12D9
:10138A001713E4FD7F40121720E4FD7F8112172016
:10139A00E4FD7FCF121720E4FD7FA1121720E4FDA0
:1013AA007FC8121720E4FD7FA6121720E4FD7FA84C
:1013BA00121720E4FD7F3F121720E4FD7FD3121796
:1013CA0020E4FDFF121720E4FD7FD5121720E4FD6B
:1013DA007F80121720E4FD7FD9121720E4FD7FF1E8
:1013EA00121720E4FD7FDA121720E4FD7F1212178C
:1013FA0020E4FD7FDB121720E4FD7F40121720E472
:10140A00FD7F20121720E4FD7F02121720E4FD7FE2
:10141A008D121720E4FD7F14121720E4FD7FA41219
:10142A001720E4FD7FA61217201217BAE4FD7FAF3A
:03143A0002172076
:1018D70053890F438910758B66758DFCC28FD28E25
:0318E700D2AB225F
:1009160068656C6C6F20776F726C64000003050964
:1009260011FF118905C300E000F000F80000000087
:100936000000004428FF11AA440000000000000047
:1009460000000000000000000000000000000000A1
:100956000000000000000000000000000000000091
:100966000000000000000000000000000000000081
:1009760000000000000083013844829292740183D3
:10098600000000000000007C44FF017D7D7D017DAC
:100996007D7D7D017D7D7D7D7D01FF000000000068
:1009A600000100010001000100010001000000003B
:1009B600000000000001010000000000000000002F
:1009C6000000000000000000000000000000000021
:1009D6000000000000000000000000000000000011
:1009E6000000000000000000000000000000000001
:1009F60000000000000001010000000000000101ED
:100A060000000000000000000001010101010101D9
:100A160001010101010101010101010000000000C5
:100A260000000000000000000000000000000000C0
:100A360000000000000000003F3F0303F313111104
:100A46001111111101F1116181010101816111F190
:100A5600010101014141F10101010101C121111110
:100A6600111121C1010101014141F1010101010100
:100A760001010101011111111111D33303033F3F8C
:100A86000000000000000000000000000000000060
:100A96000000000000000000000000000000000050
:100AA6000000000000000000000000000000000040
:100AB6000000000000000000E0E000007F010101EE
:100AC60001010100007F0000010618060100007FF9
:100AD6000000000040407F40400000001F204040D2
:100AE6004040201F0000000040407F4040000000C2
:100AF60000600000000040300C0300000000E0E051
:100B060000000000000000000000000000000000DF
:100B160000000000000000000000000000000000CF
:100B260000000000000000000000000000000000BF
:100B36000000000000000000070706060606040481
:100B460004844444448404048444444484040404DF
:100B560084C404040404844444448404040404044F
:100B660084444444840404040404844444448404BF
:100B76000484444444840404040406060606070761
:100B8600000000000000000000000000000000005F
:100B9600000000000000000000000000000000004F
:100BA600000000000000000000000000000000003F
:100BB600000000000000000000000000000000002F
:100BC60000101814121100000F1010100F00000072
:100BD600101F10000000081012120D00001800006F
:100BE6000D1212120D000018000010181412110038
:100BF6000010181412110000000000000000000090
:100C060000000000000000000000000000000000DE
:100C160000000000000000000000000000000000CE
:100C260000000000000000000000000000000000BE
:100C360000000000000000000000000000000000AE
:100C4600000000000000000000000000000000009E
:100C5600000000000000000080808080808080808E
:100C6600000000000000000000000000000000007E
:100C7600000000000000000000000000000000006E
:100C8600000000000000000000000000000000005E
:100C9600000000000000000000000000007F030CC0
:100CA600300C037F00003854545800007C0404784C
:100CB60000003C40407C00000000000000000000F6
:100CC600000000000000000000000000000000001E
:100CD6000000000000000000FFAAAAAA280800FFE2
:100CE60000000000000000000000000000000000FE
:100CF60000000000000000000000000000000000EE
:100D060000000000007F030C300C037F0000264922
:0C0D160049493200007F020408107F00F1
:101898000F24FF19430064FF18EA0014FF182007FB
:0518A800D0023D00002C
:1017FF001218607FE87E031218C312137AE4FF12E7
:10180F00187FE4FF1217491218D7D2AF12168E8025
:01181F00FBCD
:03001B000216D5F5
:0D16D500C0E0C0D075D000C000C004C00748
:1016E200758B66758DFCE4FFEF25E02433F8E6FC8C
:1016F20008E64C600DEF25E02433F808E616187072
:0617020001160FBF04E216
:0B170800D007D004D000D0D0D0E032D9
:04194300638001229A
:1018EA001211A68F22E522653C5522F53B85223C42
:0118FA0022CB
:10182000750BFF750C09750D167B007A00793F1258
:101830000D7E7B007A00793F750D10E4FDFF0216E6
:011840004562
:10186000E4FFEF75F005A42427F8E6FC08E6FDEF99
:0E18700025E02433F8A60408A6050FBF03E404
:01187E002247
:10168E00E4F508E50825E02433F8E6FE08E64E709A
:10169E002CE50875F005A42427F8E6FE08E6FFE51C
:1016AE000825E02433F8A60608A607E50875F00518
:1016BE00A42424F808E6FA08E6F912113F0508E515
:0616CE0008C3940340BDB7
:0116D40022F3
:0300000002143DAA
:0C143D00787FE4F6D8FD75816502148408
:10107E00BB010CE58229F582E5833AF583E0225027
:10108E0006E92582F8E622BBFE06E92582F8E22271
:0D109E00E58229F582E5833AF583E493228B
:1010AB00EF8DF0A4A8F0CF8CF0A428CE8DF0A42E59
:0210BB00FE2213
:1010BD00BC000BBE0029EF8DF084FFADF022E4CC17
:1010CD00F875F008EF2FFFEE33FEEC33FCEE9DECE0
:1010DD00984005FCEE9DFE0FD5F0E9E4CEFD22ED26
:1010ED00F8F5F0EE8420D21CFEADF075F008EF2F70
:1010FD00FFED33FD4007985006D5F0F222C398FD61
:05110D000FD5F0EA22FD
:10111200D083D082F8E4937012740193700DA3A36C
:1011220093F8740193F5828883E473740293B5F0A3
:0D113200067403936860E9A3A3A3A380D80B
:06113F008A838982E4733B
:100D2200E517240BF8E60517227808300702780B3E
:100D3200E475F0011211700211452000EB7F2ED2F2
:100D4200008018EF540F2490D43440D4FF30040BA9
:100D5200EF24BFB41A0050032461FFE518600215A6
:100D620018051BE51B7002051A30070D7808E4759B
:100D7200F001121170EF02115E0217707403D207B4
:100D82008003E4C207F5178B088A09890AE4F5187B
:100D9200F51AF51BE51860077F20120D5D80F575C9
:100DA20019FFC201C200C202C203C205C206C208C2
:100DB200120D2BFF700D3007057F00120D6EAF1B59
:100DC200AE1A22B4255FC2D5C204120D2BFF24D065
:100DD200B40A00501A75F00A781830D50508B6FF23
:100DE2000106C6A426F620D5047002D20380D924B7
:100DF200CFB41A00EF5004C2E5D204020F6ED20142
:100E020080C6D20080C0D20280BCD2D580BAD205C0
:100E120080B47F20120D5D2002077401B5180040D6
:100E2200F1120D22FF120D5D020D96D208D206803C
:100E320095120D22FB120D22FA120D22F94A4B7065
:100E420006793F7A107BFF20022EE518602A7E0089
:100E52008E8275830012107E60060EEE651970F0A8
:100E6200C2D5EBC0E0EAC0E0E9C0E0EE120FB5D0B7
:100E7200E0F9D0E0FAD0E0FB121145FF60AAEBC026
:100E8200E0EAC0E0E9C0E0120D5DD0E02401F9D053
:100E9200E03400FAD0E0FBE5190460DCD519D98012
:100EA200877BFF7A0F79B1D202809C791080027918
:100EB20008C206C2088008D2D5790A8004790AC21B
:100EC200D5E519047002F519E4FAFDFEFF120D22B0
:100ED200FC7B08200113120D22FD7B1030000A1248
:100EE2000D22FE120D22FF7B20EC3382D592D550CB
:100EF20013C3E43000069FFFE49EFEE42001039D3D
:100F0200FDE49CFCE4CBF8C201EC700CCFCECDCC5E
:100F1200E824F8F870F38017C3EF33FFEE33FEEDE9
:100F220033FDEC33FCEB33FB994002FB0FD8E9EBCA
:100F3200300105F8D0E0C448B201C0E00AEC4D4EE1
:100F42004F78207B0070C2EAB5190040BCC0E012A5
:100F52000FB7D0F0D0E0200104C4C0E0C4B201C099
:100F6200F0120D46D0F0D5F0EB020D961211800E64
:100F720033530EAD580E044C0E00420EB14F0EB953
:0F0F8200440EB9490E19430EBF550EA3460EA3D8
:100F9100450EA347105F500E082D0E0C2E0E2F2B61
:100FA1000E10230E2D2010482A0DC84800000E27D0
:100FB1003F3F3F00790AA2D5200314300509B9103B
:100FC100020404B9080104A2D5200602500104203C
:100FD10002689202B518005034C0E07F2030031936
:100FE1007F30A20272067205500F12100EC202C2A9
:100FF10006C205C2087F30800F300503E9C0E01248
:101001000D5D300503D0E0F9D0E0B518CC300517FF
:101011007F30B9100C120D5D7F583004077F788046
:1010210003B90803120D5D3002057F2D020D5D7FAE
:10103100202008F87F2B2006F322920280CF286E11
:10104100756C6C2900D201120D223001F8C20178B1
:101051001830D50108F6020DC82D50434958120D1C
:10106100222403B405004001E490105A93120D4E5E
:0D107100743A120D4ED203751804020EAD34
:101449000217FFE493A3F8E493A34003F68001F2A3
:1014590008DFF48029E493A3F85407240CC8C333A4
:10146900C4540F4420C8834004F456800146F6DF73
:10147900E4800B0102040810204080901898E47E53
:10148900019360BCA3FF543F30E509541FFEE49368
:10149900A360010ECF54C025E060A840B8E493A32F
:1014A900FAE493A3F8E493A3C8C582C8CAC583CA5A
:1014B900F0A3C8C582C8CAC583CADFE9DEE780BE12
:0118AD00003A
:10114500BB010689828A83E0225002E722BBFE02A8
:09115500E32289828A83E49322DB
:10115E00BB010689828A83F0225002F722BBFE0170
:02116E00F3226A
:10117000FAE6FB0808E6F925F0F618E6CA3AF62280
:10118000D083D082F8E4937012740193700DA3A3FE
:1011900093F8740193F5828883E473740293686012
:0611A000EFA3A3A380DF12
:10177000EFB40A07740D12177B740A309811A899F8
:10178000B8130CC2983098FDA899C298B811F630D9
:0717900099FDC299F59922B1
:00000001FF
